:020000040800F2
:1000000058200020B1070008B9050008BB0500080A
:10001000BF050008C3050008C70500080000000070
:10002000000000000000000000000000CB050008F8
:10003000CD05000800000000CF050008834300083C
:10004000CB070008CB070008CB07000821470008B2
:10005000CB070008CB070008CB070008CB07000838
:10006000CB070008CB070008CB070008CB07000828
:10007000CB070008CB070008CB070008CB07000818
:10008000CB070008CB070008CB070008CB07000808
:10009000CB070008CB070008CB070008CB070008F8
:1000A000CB070008CB070008CB070008CB070008E8
:1000B000CB070008CB070008CB070008CB070008D8
:1000C000CB070008CB070008CB070008CB070008C8
:1000D000CB070008C1420008CB0700081D3B000801
:1000E000CB070008CB070008CB070008CB070008A8
:1000F000CB070008CB070008CB070008CB07000898
:10010000CB070008CB070008F13D0008CB0700082B
:10011000CB070008CB070008C53C00080D3D0008D0
:10012000CB070008CB070008CB070008CB07000867
:1001300000F002F800F0B0F80AA090E8000C824449
:100140008344AAF10107DA4501D100F0A5F8AFF226
:10015000090EBAE80F0013F0010F18BFFB1A43F0A5
:100160000103184704180300241803000A444FF041
:10017000000C10F8013B13F0070408BF10F8014B06
:100180001D1108BF10F8015B641E05D010F8016B4B
:10019000641E01F8016BF9D113F0080F1EBF10F8AF
:1001A000014BAD1C0C1B09D16D1E58BF01F801CBD2
:1001B000FAD505E014F8016B01F8016B6D1EF9D555
:1001C0009142D6D37047000000230024002500266A
:1001D000103A28BF78C1FBD8520728BF30C148BFAA
:1001E0000B6070476E2905F0B281702905F02583F8
:1001F000662906F08983652906F08683672906F05B
:1002000083836129AFF3008003681B0A28BF41F094
:100210008001692904F0D286642904F0CF8675290B
:1002200004F0CC866F2905F0B282782905F0F182BE
:10023000E92905F04D82E42905F04A82F52905F007
:100240004782EF2905F0AF82F82905F0F0820368B4
:10025000DB0928BF41F08001632905F0BC817329C7
:1002600005F0C181E32905F09185F32905F0968514
:10027000002070471FB505F027FB04000020002177
:1002800006F016FB401C60600020002106F026FBF3
:10029000E0601FBD10B510BD05F0F7FD1146FFF77A
:1002A000E9FF00F023F805F0D5FE03B4FFF7F2FFF5
:1002B00003BC04F0C1FD0000302805DB392803DC55
:1002C000A0F13001C8B210E0412805DB462803DC6C
:1002D000A0F13701C8B208E0612805DB662803DC1D
:1002E000A0F15701C8B200E0FF20704708B502F046
:1002F000EBF841F2883002F039F94FF4A06000F0D9
:1003000077FA0121080700F0D2FE4FF4E13003F044
:100310008BFB03F05FFF41F61F4142F20F7003F0C9
:1003200098FD41F61F4142F20F7003F0E8FD0021F5
:100330007B4801F07BFE00217A4801F077FE012125
:10034000774801F0DFFB04F0F4F804F005FD4FF40A
:10035000E13003F011FC03F09AFC0020724981F8AF
:1003600068000870C87002F0E1FF02F049FF04F075
:10037000F9F904F080FAD1E06B488078012812D1B5
:1003800000BF80F3138800BF00BF6848006800F416
:10039000E06067490843001D64490860BFF34F8F60
:1003A00000BF00BFFEE76048C078012801D102F01D
:1003B000BDFF5D480078012804D0022816D003282C
:1003C00013D130E028220021012003F059FEC8207B
:1003D00002F0CCF803F04FFF012803D1022052496C
:1003E000087002E001205049087096E04E484078BD
:1003F00001280BD101214B4801F084FB03F0D3F914
:1004000003F027FA0020484908700BE003F0CBF90D
:1004100002F07DFF47A004F05FFD03F056FA0020D4
:100420004149087079E0464803F08DF84549087065
:100430000846007800286FD0414943A003F041FBF3
:1004400045493F4803F048F9434A3D4943A003F07A
:1004500038FB4148008B31284BD13F4991F82A00A5
:10046000FFF72AFF02033C4991F82C00FFF724FF15
:1004700002EB0022384991F82E00FFF71DFF02EB36
:100480000012354991F83000FFF716FF1044394942
:100490000880314991F83A00FFF70EFF02032E4918
:1004A00091F83C00FFF708FF02EB00222A4991F87F
:1004B0003E00FFF701FF02EB0012274991F84000D0
:1004C000FFF7FAFE10442C4908802349087EFFF705
:1004D000F3FE04462848038826480288214627A0C0
:1004E00003F0EFFA2448028822480188012003F033
:1004F0001EFE1948808B00901748438B028B28A161
:10050000294804F0F5FC284928A003F0DAFA002075
:100510000C4908700449087000BF00BF2CE70000B8
:1005200000100040000C0040780100200CED00E0BD
:100530000000FA05C9CFB4ABCDEAB3C90D0A00007B
:100540007403002000000020B6CCD0C5C4DAC8DD9A
:100550003A2020257300000004050020D7AABBBB69
:10056000BAF341534349493A2025732025730D0AB4
:10057000000000000E00002014000020D7AABBBB22
:10058000B3F6C0B4A3ACC3FCC1EEC0E0D0CD2578B7
:100590002CB5D8D6B725782CCAFDD6B5257800005D
:1005A000256325632563000001000020CAD5B5BD81
:1005B000C1CB25730D0A0000704700BFFEE700BFE6
:1005C000FEE700BFFEE700BFFEE7704770477047D9
:1005D0000CB50020019000906C48006840F4803019
:1005E0006A49086000BF6948006800F40030009064
:1005F0000198401C0190009818B90198B0F5A06FBF
:10060000F1D16248006800F4003010B10120009080
:1006100001E0002000900098012843D15C48006868
:1006200040F010005A4908600846006820F00300B6
:1006300008600846006840F00200086053484068BF
:10064000524948600846406848600846406840F49F
:10065000806048600846406820F47C104860084686
:10066000406840F4E81048600846006840F0807038
:10067000086000BF4548006800F000700028F9D00D
:100680004248406820F003004049486008464068FE
:1006900040F00200486000BF3C48406800F00C0099
:1006A0000828F9D10CBD10B5FFF792FF10BD10B5A9
:1006B0003648006840F00100344908600846406848
:1006C00034490840314948600846006832490840CA
:1006D0002E4908600846006820F48020086008461B
:1006E000406820F4FE0048604FF41F008860FFF768
:1006F000DAFF4FF000602949086010BD10B50021F5
:1007000000200022214B5B6803F00C0121B1042979
:1007100006D0082928D107E0214B224C236027E08E
:100720001F4B204C236023E0184B5B6803F47010D0
:10073000164B5B6803F48032022303EB904022B92E
:10074000194B4343174C23600DE0104B5B6803F4D7
:10075000003323B1144B4343124C236003E0104B8E
:100760004343104C236003E00D4B0E4C236000BF4D
:1007700000BF064B5B68C3F303130C4CE15C094BF1
:100780001B68CB40074C236010BD000000100240E6
:10079000002002400000FFF8FFFFF6FE08ED00E039
:1007A00000127A001800002000093D001C00002003
:1007B0000948804709480047FEE7FEE7FEE7FEE7F5
:1007C000FEE7FEE7FEE7FEE7FEE7FEE70448054931
:1007D000054A064B70470000AF06000831010008CB
:1007E000581A002058200020581C0020581C0020B7
:1007F00031490143314A1160704770B5002100232F
:100800000F22C47804B32D4C246804F4E064C4F5CA
:10081000E064210AC1F10403CA40447804FA03F1F8
:100820008478144021430901254C0678A1550478A9
:1008300004F01F050124AC4005786D11AD0005F1F1
:10084000E025C5F8004109E0047804F01F05012403
:10085000AC401C4D0678761145F8264070BD1A4A0A
:100860000A400243154B1B1F1A60704739B1134AE7
:10087000121D12680243114B1B1D1A6006E00F4A3D
:10088000121D126882430D4B1B1D1A60704704280D
:1008900008D14FF0E021096941F004014FF0E02256
:1008A000116107E04FF0E021096921F004014FF0E8
:1008B000E0221161704700000000FA050CED00E035
:1008C00000E400E080E100E080FFFF1F10B50120A0
:1008D00000F014FC002000F011FC10BD2A49086053
:1008E00070472949091F086070472749843108600B
:1008F000704701460020254A10884FF67F4210407D
:100900000843224A10807047014600201F4A108881
:100910004FF68072104008431C4A1080704708B59B
:1009200000220092194A2C3A0092009A0244009246
:10093000009A116008BD08B50146002000901348D8
:100940002C3800900098084400900098008808BD5A
:100950000D489C300068C0B270470C4808300088D1
:1009600040F0010009490831088070470648A0306E
:100970000068C0B2704705480830008840F00200A7
:10098000024908310880704704860D422C6C0040F3
:1009900010B50446CC48844208D10121042000F05F
:1009A00093FB0021042000F08FFB46E0C7488442FF
:1009B00008D10121082000F087FB0021082000F069
:1009C00083FB3AE0C248844208D10121102000F0A4
:1009D0007BFB0021102000F077FB2EE0BD48844215
:1009E00008D10121202000F06FFB0021202000F021
:1009F0006BFB22E0B848844208D10121402000F07E
:100A000063FB0021402000F05FFB16E0B348844206
:100A100008D10121802000F057FB0021802000F048
:100A200053FB0AE0AE48844207D10121801500F053
:100A30004BFB0021A01500F047FB10BD10B50121B4
:100A4000084600F041FB0021012000F03DFB10BDF5
:100A50002DE9F04102460025002600200023002455
:100A6000002791F803C00CF00F0591F803C00CF0BB
:100A7000100CBCF1000F03D091F802C04CEA050540
:100A800091F800C0BCF1000F31D0146800202BE0B9
:100A90004FF0010C0CFA00F3B1F800C00CEA0306A9
:100AA0009E4220D183004FF00F0C0CFA03F7BC4399
:100AB00005FA03FC4CEA040491F803C0BCF1280FCA
:100AC00006D14FF0010C0CFA00FCC2F814C00AE089
:100AD00091F803C0BCF1480F05D14FF0010C0CFA9E
:100AE00000FCC2F810C0401C0828D1D31460B1F833
:100AF00000C0BCF1FF0F34DD546800202EE000F18F
:100B0000080C4FF0010808FA0CF3B1F800C00CEA29
:100B100003069E4221D183004FF00F0C0CFA03F71D
:100B2000BC4305FA03FC4CEA040491F803C0BCF191
:100B3000280F05D100F1080C08FA0CF8C2F814804F
:100B400091F803C0BCF1480F07D100F1080C4FF039
:100B5000010808FA0CF8C2F81080401C0828CED30F
:100B60005460BDE8F0814FF6FF7101800221817071
:100B70000421C17070470246002093680B400BB1FE
:100B8000012000E0002070470146886880B270476D
:100B900002460020D3680B400BB1012000E000208A
:100BA00070470146C86880B2704701617047416173
:100BB00070470AB1016100E041617047C160704750
:100BC0004FF480320A438261816182618269826965
:100BD000704702460020434B18684FF68073184058
:100BE00040EA021008433F4B186070473E49C86115
:100BF0007047F0B50A46002300240021002500F0CC
:100C00000046B6F1004F02D1364EF16901E0354E93
:100C10007168C0F3034583B200F44016B6F5401F77
:100C200008D121F070612F4E766826F070662D4F46
:100C30007E6012E000F48016B6F5801F06D1032610
:100C400006FA05F4A14341F0706106E0460D360155
:100C500003FA06F6B14341F0706122B1460D360148
:100C600003FA06F6314300F00046B6F1004F02D118
:100C70001C4EF16101E01B4E7160F0BD30B50022E9
:100C80008B071C0F0F2303FA04F2164B08338C104A
:100C900053F824309343134C08348D1044F8253016
:100CA00023468C1053F824308C07240F00FA04F4E8
:100CB00023430C4C08348D1044F8253030BD0A49CC
:100CC000DC3108607047000000080140000C014062
:100CD000001001400014014000180140001C0140B8
:100CE00000200140000001400000204210B5012119
:100CF000080700F0F6F900214FF0805000F0F1F9FC
:100D000010BD2A49086270472849086170470146AA
:100D10000020274A106820F0E00008431060704768
:100D20002249A0310860704710B502460020204BD0
:100D3000186820F00300104318601E4B1B6843F036
:100D400004031C4C2360012901D130BF00E020BF07
:100D5000184B1B6823F00403164C236010BD144885
:100D6000006840F00400124908600846006840F03E
:100D7000020008600F48006840F004000D49086058
:100D800000BF00BF30BF704701460020084A5268CC
:100D90000A400AB1012000E00020704704490968B8
:100DA00041EA8001024A11607047000000000E42D3
:100DB0000070004010ED00E0DF48006840F00100E6
:100DC000DD49086008464068DC490840DA49486067
:100DD00008460068DA490840D749086008460068B4
:100DE00020F4802008600846406820F4FE00486037
:100DF0004FF41F0088607047CF49096821F48031A3
:100E0000CD4A11601146096821F480211160B0F5C6
:100E1000803F03D0B0F5802F0ED106E0C6490968A7
:100E200041F48031C44A116007E0C349096841F4C4
:100E3000A021C14A116000E000BF00BF704710B59B
:100E400001460022002300204A11012A02D1BA4C97
:100E5000236806E0022A02D1B74C236A01E0B64CAF
:100E6000636A01F01F02012494401C400CB1012070
:100E700000E0002010BD38B50020009000240025BF
:100E800000BF3120FFF7DBFF05460098401C0090B3
:100E90000098B0F5A06F01D0002DF2D03120FFF7FF
:100EA000CEFF08B1012400E00024204638BD0146F1
:100EB0000020A14A106820F0F80040EAC10010604C
:100EC0007047A04908607047024600209A4B586856
:100ED00020F47C1042EA01031843974B5860704796
:100EE00098490866704701460020934A506820F0F0
:100EF00003000843506070478F48406800F00C00C2
:100F00007047014600208C4A506820F0F0000843EA
:100F10005060704701460020874A506820F4E06026
:100F200008435060704701460020834A506820F40F
:100F3000605040EAC1005060704729B17E4A527A41
:100F400002437D4B5A7204E07B4A527A82437A4BC9
:100F50005A7270477B49D8310860704701460020BB
:100F6000754A506820F440400843506070470021A3
:100F7000714A20321170704A82F82010012802D084
:100F800004280AD104E001216B4A2032117005E0E7
:100F90000521694A2032117000E000BF00BF704790
:100FA0006949086070476449096A0143624A1162ED
:100FB0007047654944390860704730B50021002208
:100FC000002400235C4D6D6805F00C0121B104295B
:100FD00005D0082923D105E05C4D056022E05B4D7A
:100FE00005601FE0544D6D6805F47012524D6D6838
:100FF00005F48034022505EB92421CB9544D55434B
:1010000005600BE04C4D6D6805F400351DB1504D89
:101010005543056002E04D4D5543056002E04B4DE0
:10102000056000BF00BF444D6D6805F0F00109097F
:10103000484D6B5C0568DD4045603F4D6D6805F4CB
:10104000E061090A434D6B5C4568DD4085603A4DBF
:101050006D6805F46051C90A3E4D6B5C4568DD4022
:10106000C560354D6D6805F44041890B3A4D6B5CA8
:10107000C568B5FBF3F5056130BD29B12E4A52694B
:1010800002432D4B5A6104E02B4A526982432A4B9A
:101090005A61704729B1284A92690243264B9A61E6
:1010A00004E0254A92698243234B9A61704729B133
:1010B000214AD2690243204BDA6104E01E4AD26918
:1010C00082431D4BDA61704729B11B4AD268024343
:1010D000194BDA6004E0184AD2688243164BDA6092
:1010E000704729B1144A12690243134B1A6104E094
:1010F000114A12698243104B1A61704712494039F4
:10110000086070470F49C86470470B49C871704741
:101110000948406A40F080700749486270470146BC
:101120000020054A92680A400AB1012000E0002030
:101130007047014988727047001002400000FFF8B4
:10114000FFFFF6FE000042428004424200127A0095
:1011500000093D002C0000203C00002029B1504A2D
:10116000128802434E4B1A8004E04D4A1288824393
:101170004B4B1A8070474A48001D008840F0100011
:101180004749091D088070474548001D00884FF6F3
:10119000EF7108404249091D08807047002140480E
:1011A0001C300188001F008841EA0040704700B5EC
:1011B0000246FFF7E0FF100C394918310880091D7D
:1011C0000A80FFF7E1FF00BD00B50246FFF7D3FF3D
:1011D000C2F30340324908310880091D0A80FFF735
:1011E000D3FF00BD00B50246FFF7C5FF100C2C4928
:1011F00020310880091D0A80FFF7C6FF00BD0020CE
:101200002749103109880907080B25491431098835
:101210000843704700BF2248001D008800F02000EE
:101220000028F8D070471E48001D00884FF6F7715F
:1012300008401B49091D088000BF1948001D00888F
:1012400000F008000028F8D0704701460020144A3A
:10125000121D12880A400AB1012000E000207047E8
:101260000F49091D098881430D4A121D11807047DD
:10127000014600200A4A121D12880A40D0B2084ACC
:1012800012880A4012B108B1012000E00020704726
:101290000349091D09888143014A121D11807047C5
:1012A0000028004010B50446FE48844208D10121C0
:1012B000C014FFF709FF0021E014FFF705FFC4E0A9
:1012C000B4F1804F08D101210846FFF70AFF002141
:1012D0000120FFF706FFB8E0F348844208D101215E
:1012E0000220FFF7FEFE00210220FFF7FAFEACE02D
:1012F000EE48844208D101210420FFF7F2FE0021CC
:101300000420FFF7EEFEA0E0E948844208D1012165
:101310000820FFF7E6FE00210820FFF7E2FE94E038
:10132000E448844208D101211020FFF7DAFE0021B1
:101330001020FFF7D6FE88E0DF48844208D1012163
:101340002020FFF7CEFE00212020FFF7CAFE7CE020
:10135000DA48844208D101214014FFF7B5FE00218C
:101360006014FFF7B1FE70E0D548844209D1012135
:10137000C804FFF7A9FE00214FF40020FFF7A4FEE8
:1013800063E0D048844209D101210805FFF79CFEA3
:1013900000214FF48010FFF797FE56E0CA488442C0
:1013A00009D101214805FFF78FFE00214FF40010FD
:1013B000FFF78AFE49E0C548844208D10121402058
:1013C000FFF78FFE00214020FFF78BFE3DE0C04875
:1013D000844208D101218020FFF783FE0021802074
:1013E000FFF77FFE31E0BB48844208D10121801520
:1013F000FFF777FE0021A015FFF773FE25E0B64842
:10140000844209D101210804FFF75EFE00214FF458
:101410008030FFF759FE18E0B048844209D101211D
:101420004804FFF751FE00214FF40030FFF74CFE57
:101430000BE0AB48844208D101218804FFF744FE49
:1014400000214FF48020FFF73FFE10BD00220288EC
:10145000944B98420ED0994B98420BD0B0F1804FEC
:1014600008D0914B984205D0904B984202D0904BB7
:10147000984204D14FF68F731A404B881A438D4B14
:10148000984207D08C4B984204D04FF6FF431A4045
:10149000CB881A4302808B8883850B880385814B18
:1014A00098420BD0854B984208D08B4B984205D080
:1014B0008A4B984202D08A4B984201D10B7A03861C
:1014C00001238382704770B5002400220023058C1D
:1014D0004FF6FE7635400584028C8388048B4FF6E8
:1014E0008F752C40B51E2C400D882C43751E2A404C
:1014F0000D892A434D882A436A4DA8420BD06F4D6F
:10150000A84208D0744DA84205D0744DA84202D01C
:10151000734DA84213D14FF6F7752A404D892A43DF
:101520004FF6FB752A408D882A434FF6FF652B4006
:101530004FF6FF552B408D892B43CD892B4383805C
:101540000483CD888586028470BD70B50024002296
:101550000023058C4FF6EF7635400584028C838896
:10156000048B48F6FF752C404FF6FF452C400D8844
:101570004FF6FF7606EA05252C434FF6DF752A4025
:101580000D8906EA05152A434D8806EA05152A4302
:10159000444DA84202D0494DA8421DD14FF67F7557
:1015A0002A404D894FF6FF7606EA05152A434FF685
:1015B000BF752A408D8806EA05152A434FF6FF3588
:1015C0002B404FF2FF752B408D8906EA85052B4392
:1015D000CD8906EA85052B4383800483CD88058762
:1015E000028470BD70B5002400220023058C4FF6E4
:1015F000FF6635400584028C8388848B4FF68F7597
:101600002C404FF6FC752C400D882C434FF6FF55AF
:101610002A400D894FF6FF7606EA05252A434D88B4
:1016200006EA05252A431F4DA84202D0234DA842B1
:101630001DD14FF2FF752A404D894FF6FF7606EA1D
:1016400005252A434FF6FF352A408D8806EA0525F1
:101650002A434EF6FF752B404DF6FF752B408D89C2
:1016600006EA05152B43CD8906EA05152B43838031
:101670008483CD888587028470BD70B500220023E5
:101680000024058C4EF6FF7635400584038C848853
:10169000828B48F6FF752A404FF6FF452A400D8899
:1016A00020E00000002C0140000400400008004041
:1016B000000C0040001000400014004000340140C5
:1016C000004C01400050014000540140001800400F
:1016D000001C004000200040004001400044014048
:1016E000004801404FF6FF7606EA05252A434DF6ED
:1016F000FF752B400D8906EA05352B434D8806EA18
:1017000005352B43FA4DA84202D0FA4DA84208D124
:101710004BF6FF752C408D894FF6FF7606EA85154E
:101720002C4384808283CD88A0F84050038470BD10
:10173000828B4FF2FF331A408283828B4FF6FF7306
:1017400003EA01231A4382837047F0B50C4615461D
:10175000002200210026078C4EF6FF7C07EA0C07CA
:101760000784828B018C4FF6FF7707EA043640F638
:10177000FF473A404FF6FF7707EA05273A434FF60F
:10178000FF7707EA03373A43D94FB8420ED0D94F13
:10179000B8420BD0B0F1804F08D0D74FB84205D037
:1017A000D64FB84202D0D64FB84206D14DF6FF7799
:1017B000394046F48057394305E047F6FF57394032
:1017C00044F48057394382830184F0BD828B4FF605
:1017D000F3731A408283828B0A4382837047F0B589
:1017E0000C461546002200210026078C4FF6FF6CA0
:1017F00007EA0C070784828B018C4FF6FF7707EA14
:1018000004264FF60C773A404FF6FF7707EA0317A6
:101810002F433A43B64FB8420ED0B64FB8420BD022
:10182000B0F1804F08D0B44FB84205D0B34FB842A2
:1018300002D0B34FB84206D14FF6FF57394046F4B5
:101840008077394305E04FF2FF57394044F4807701
:10185000394382830184F0BD028B4FF2FF331A407B
:101860000283028B4FF6FF7303EA01231A430283BC
:101870007047F0B50C461546002200210026078C63
:101880004FF6EF7C07EA0C070784028B018C4FF6BA
:10189000FF7707EA041640F6FF473A404FF6FF7716
:1018A00007EA03373A434FF6FF7707EA05273A433B
:1018B0008F4FB8420ED08F4FB8420BD0B0F1804F4F
:1018C00008D08D4FB84205D08C4FB84202D08C4F13
:1018D000B84206D14FF6DF77394046F0100739435A
:1018E00005E04FF65F77394044F010073943028333
:1018F0000184F0BD028B4FF6F3731A400283028B12
:101900000A4302837047F0B50C46154600220021B9
:10191000068C4FF6FE773E400684028B018C4FF614
:101920000C7632407E1C06EA03162E433243704E7C
:10193000B0420ED06F4EB0420BD0B0F1804F08D005
:101940006D4EB04205D06D4EB04202D06C4EB042EA
:1019500006D14FF6FD76314044F00106314305E0F3
:101960004FF6F576314044F001063143028301849D
:10197000F0BD70B505460C465D4885420ED05D4809
:1019800085420BD0B5F1804F08D05B48854205D029
:101990005A48854202D05A48854200D100E000BF33
:1019A000208850B92389A28861882846FFF7ABFFB9
:1019B000E1882846FFF79EFF25E0208804280AD109
:1019C0002389A28861882846FFF753FFE1882846CB
:1019D000FFF742FF17E0208808280AD12389A28850
:1019E00061882846FFF7FBFEE1882846FFF7EEFEF8
:1019F00009E02389A28861882846FFF7A6FEE188CE
:101A00002846FFF795FE70BD2DE9F04105460C46CE
:101A100000260127608808B9022600E00026A08879
:101A2000012801D1022700E001272088A0B92389DD
:101A3000A28861882846FFF766FFE1882846FFF7FD
:101A400059FF23893A4631462846FFF712FFE188BD
:101A50002846FFF701FF13E02389A2886188284602
:101A6000FFF707FFE1882846FFF7F6FE23893A468D
:101A700031462846FFF747FFE1882846FFF73AFF3F
:101A8000BDE8F0810A884B881A438B881A43CB88BB
:101A90001A430B891A434B891A438B891A43A0F8BE
:101AA000442070474FF6FF71818000210180C18082
:101AB0004180017270470021018041808180C18096
:101AC000018141818181C181704700210180418074
:101AD000012181800021C1800181704700210180A6
:101AE00041808180C18001814181818170470000F6
:101AF000002C014000340140000400400008004078
:101B0000000C004021B1028842F00102028004E092
:101B100002884FF6FE731A400280704731B1B0F868
:101B2000442042F40042A0F8442005E0B0F84420EC
:101B3000C2F30E02A0F8442070471AB183890B4308
:101B4000838102E083898B43838170478182704760
:101B500041EA0203A0F8483070471AB183890B4369
:101B6000838102E083898B438381704701894FF62B
:101B7000F8721140018170470A46002101894FF631
:101B80008F73194011430181704730B504460D46EB
:101B900029462046FFF7F0FF208940F0070020810A
:101BA00030BD2DE9F04104460D4616461F46602D16
:101BB00006D13B46012231462046FFF75AFE05E09A
:101BC0003B46012231462046FFF79DFE294620462E
:101BD000FFF7D2FF208940F007002081BDE8F081A7
:101BE00030B50C4600210189C9B24FF6FF7505EAF0
:101BF0000325154325432943018130BD2DE9F041DB
:101C000005460E4617469846002443463A46314656
:101C10002846FFF7E5FF2C894FF6F870044044F0A2
:101C200007044FF68F70044044F070042C81BDE827
:101C3000F081F0B504460D4616461F463B46324637
:101C400029462046FFF7CCFF208940F480402081C0
:101C5000F0BD0185828270470A46002101884FF657
:101C60008F731940114301807047F0B50C4615463B
:101C70001E460021002200230189028B038C4FF6AF
:101C8000F877394021434FF6FC473A4040F20117BC
:101C90003A434FF6DD773B404FF6FF7707EA0617EA
:101CA0002F433B43018102830384F0BD0A46002198
:101CB000018B4FF68F7319401143018370470A4619
:101CC0000021018B48F6FF7319404FF6FF7303EABA
:101CD00002231943018370470A460021818B4FF686
:101CE0008F7319401143818370470A460021818B0D
:101CF00048F6FF7319404FF6FF7303EA02231943B6
:101D00008183704721B1028842F08002028004E0A2
:101D100002884FF67F731A400280704721B1828893
:101D200042F00402828004E082884FF6FB731A407E
:101D30008280704721B1828842F00802828004E0EC
:101D400082884FF6F7731A408280704721B18288EB
:101D500042F00102828004E082884FF6FE731A404E
:101D6000828070470A460021018B4FF6F7731940B5
:101D70001143018370470A460021018B4FF2FF7324
:101D800019404FF6FF7303EA02231943018370479A
:101D90000A460021818B4FF6F77319401143818366
:101DA00070470A460021818B4FF2FF7319404FF6AE
:101DB000FF7303EA02231943818370470A46002117
:101DC000018B4FF6FB7319401143018370470A469C
:101DD0000021018B4FF6FF3319404FF6FF7303EAE2
:101DE00002231943018370470A460021818B4FF675
:101DF000FB7319401143818370470A460021818B90
:101E00004FF6FF3319404FF6FF7303EA02231943DD
:101E1000818370470A460021018B4FF67F7319407A
:101E20001143018370470A460021018BC1F30E0163
:101E30004FF6FF7303EA02231943018370470A46F2
:101E40000021818B4FF67F731940114381837047C6
:101E50000A460021818BC1F30E014FF6FF7303EA9E
:101E600002231943818370470A460021018C4FF6F3
:101E7000FD7319401143018470470A460021018C0B
:101E80004FF6F77319401143018470470A46002149
:101E9000018C4FF6DF7319404FF6FF7303EA02130C
:101EA0001943018470470A460021018C4FF67F7365
:101EB00019404FF6FF7303EA021319430184704778
:101EC0000A460021018C4FF6FF5319404FF6FF736D
:101ED00003EA02231943018470470A460021018C5A
:101EE0004FF2FF7319404FF6FF7303EA02231943C1
:101EF000018470470A460021018C4DF6FF7319409A
:101F00004FF6FF7303EA023319430184704730B57B
:101F1000002301248C40A3B2048C9C430484048CD1
:101F200002FA01F5ADB22C43048430BD30B5002374
:101F300004248C40A3B2048C9C430484048C02FAD5
:101F400001F5ADB22C43048430BD70B503460020CA
:101F500000241846183001258D40ACB21D8CA543D5
:101F60001D8409B1082909D100EB6100056825F03D
:101F7000700505600568154305600EE00D1FC5F38B
:101F80004E052844056825F4E045056005684FF6D0
:101F9000FF7606EA02263543056070BD21B102884E
:101FA00042F00202028004E002884FF6FD731A40FC
:101FB0000280704721B1028842F00402028004E0EE
:101FC00002884FF6FB731A400280704721B1828865
:101FD00042F08002828004E082884FF67F731A40CC
:101FE0008280704702884FF6F7731A400280028899
:101FF0000A430280704782884FF68F731A408280AE
:1020000082880A438280704702894FF6F8731A402B
:10201000028102890A430281704702894FF67F7369
:102020001A40028102890A43028170478184704705
:102030008185704781867047018770478187704727
:10204000A0F84010704702884FF6FF431A40028004
:1020500002880A43028070470146888E7047014615
:10206000088F70470146888F70470146B1F84000DD
:1020700070470146888C70470146088D70470246BC
:102080000020138A0B400BB1012000E000207047B4
:10209000CA430282704730B5024600200023002464
:1020A000158A05EA0103958905EA010413B10CB10B
:1020B000012000E0002030BDCA43028270470000CA
:1020C00010B50446FB48844209D101218803FEF77C
:1020D000FBFF00214FF48040FEF7F6FF32E0F648A8
:1020E000844209D101214804FEF7FBFF00214FF48F
:1020F0000030FEF7F6FF25E0F048844209D10121C7
:102100008804FEF7EEFF00214FF48020FEF7E9FF80
:1021100018E0EB48844209D10121C804FEF7E1FF31
:1021200000214FF40020FEF7DCFF0BE0E54884427D
:1021300008D101210805FEF7D4FF00214FF48010DB
:10214000FEF7CFFF10BD2DE9F04786B005460E46DD
:102150000024A24600BFA1460027B08900B100BFFD
:102160002F462C8A4CF6FF700440F08804432C82E2
:10217000AC894EF6F3100440B08831890843718968
:1021800008430443AC81AC8A4FF6FF400440B08959
:102190000443AC8201A8FEF710FFC648874202D173
:1021A000DDF810A001E0DDF80CA0A88900F40040E3
:1021B00040B10AEBCA0000EB0A1031684900B0FBDD
:1021C000F1F807E00AEBCA0000EB0A103168890059
:1021D000B0FBF1F86420B8FBF0F0040120096421A1
:1021E00001FB1089A88900F4004040B1322000EBC7
:1021F000C900B0FBF1F000F00700044308E0322012
:1022000000EB09106421B0FBF1F000F00F00044373
:102210002C8106B0BDE8F0874FF416510160002113
:102220008180C18001810C21418100218181704721
:1022300010B502460020108A4FF2FF0318400B88A9
:102240004C8823438C882343CC8823431843108233
:1022500010BD0021018041808180C180704721B183
:10226000828942F40052828104E082894DF6FF7334
:102270001A4082817047F0B50346002400260025ED
:10228000002040F66A17B94200D100BF1846C1F3DA
:10229000421401F01F06012707FA06F5012C01D1AF
:1022A0000C3004E0022C01D1103000E014301AB1DF
:1022B00007682F43076002E00768AF430760F0BD7F
:1022C0001AB1838A0B43838202E0838A8B43838221
:1022D0007047028A4FF6F0731A400282028A0A435C
:1022E0000282704782894FF2FF731A40828182898D
:1022F0000A438281704721B1828942F002028281C1
:1023000004E082894FF6FD731A4082817047028A89
:102310004FF6DF731A400282028A0A430282704734
:1023200021B1028A42F48042028204E0028A4BF622
:10233000FF731A4002827047C1F30802828070471F
:1023400001468888C0F308007047818941F0010187
:1023500081817047028BD2B20283028B42EA012252
:1023600002837047028B02F47F420283028B0A438E
:102370000283704721B1828A42F02002828204E007
:10238000828A4FF6DF731A408282704721B1828AB7
:1023900042F01002828204E0828A4FF6EF731A4004
:1023A0008282704721B1828A42F00802828204E070
:1023B000828A4FF6F7731A408282704721B1828970
:1023C00042F40042828103E08289C2F30E028281DC
:1023D000704721B1828A42F40062828204E0828ADC
:1023E0004FF2FF731A4082827047828A4FF6FB7366
:1023F0001A408282828A0A438282704721B1828A8D
:1024000042F00202828204E0828A4FF6FD731A4093
:102410008282704702460020B1F5007F00D100BFE4
:1024200013880B400BB1012000E00020704701F43D
:102430000072B2F5007F00D100BFCA43028070472E
:1024400070B50246002400230025002040F66A16DD
:10245000B14200D100BFC1F3421501F01F030126B4
:1024600006FA03F3012D02D19689334006E0022DCE
:1024700002D1168A334001E0968A33400C120126BD
:1024800006FA04F41688344013B10CB1012000E0C0
:10249000002070BD10B50022002340F66A14A1424E
:1024A00000D100BF0A1201249440A3B2DC4304808F
:1024B00010BD0000003801400044004000480040CA
:1024C000004C00400050004030B5354800684FF4E3
:1024D0007A72B0FBF2F1B1F1807F01D301201DE0EF
:1024E00021F07F40401E4FF0E022506150170F2234
:1024F000002807DA13071D0E2A4B00F00F04241FD3
:102500001D5503E013071C0E274B1C5400BF002071
:102510004FF0E022906107201061002008B100BF59
:10252000FEE730BD0146214A12784A434FF0E023CE
:102530005A6100229A611A46126942F001021A6138
:1025400000BF4FF0E022106900F001021AB100F460
:102550008032002AF5D04FF0E022126922F0010209
:102560004FF0E0231A6100229A6170471049086019
:102570004FF0E021096941F001014FF0E0221161C3
:1025800000BF0B4909680029FBD170470848006863
:1025900020B107480068401E0549086070470000E8
:1025A0001800002018ED00E000E400E040000020EA
:1025B000440000202DE9F04104460D4690461E4699
:1025C00001273DB10A21F94802F0F3FE2946F748F8
:1025D00002F013FEFF2C0AD800BFF548008800F077
:1025E00040000028F9D0F249091D0C8003E0214683
:1025F000F0A001F01FFBBDB1B6B111E00A20FFF75A
:10260000B5FFEA48543890F8680000F0010038B18E
:1026100000270020E549543981F86800487002E03D
:10262000701E061EEAD100BF3846BDE8F08170B5C5
:102630000325032413E0C8230022E0A1E0A0FFF754
:10264000B9FF0446032C04D14FF4FA60FFF78EFF64
:1026500003E00CB1012C00D103E0681EC5B2002DCF
:10266000E9D100BF4FF4FA60FFF780FF204670BD4C
:102670002DE9F04100250027032603241DE0C8238F
:102680000022D1A1D2A0FFF795FF0446032C04D16C
:102690004FF4FA60FFF76AFF0DE04CB9CFA1C348D1
:1026A000153002F098FD00B909E0FFF7C0FF02E025
:1026B000012C00D103E0701EC6B2002EDFD100BF96
:1026C000D4B9BA4F1537C748002101604160018174
:1026D000817200250AE007F10D00405DC2494855AE
:1026E000B248263802F089FD681CC5B20B2DF2DB1A
:1026F000BD49BEA001F0E5F92046BDE8F08170B506
:102700000325032413E064230022ACA1BBA0FFF740
:1027100051FF0446032C04D14FF4FA60FFF726FF63
:1027200003E00CB1012C00D103E0681EC5B2002DFE
:10273000E9D100BF204670BD70B51425032414E014
:102740004FF4FA730022AEA1B0A0FFF733FF0446A6
:10275000032C04D14FF4FA60FFF708FF03E00CB13B
:10276000012C00D103E0681EC5B2002DE8D100BFE6
:10277000204670BD70B50325032442F21070FFF7A8
:10278000F5FE14E04FF47A7300228CA1A2A0FFF7AB
:1027900011FF0446032C04D14FF4FA60FFF7E6FE64
:1027A00003E00CB1012C00D103E0681EC5B2002D7E
:1027B000E8D100BF4FF4FA60FFF7D8FE204670BDA5
:1027C00070B50325032414E04FF4FA73002295A199
:1027D00096A0FFF7EFFE0446032C04D14FF4FA60F5
:1027E000FFF7C4FE03E00CB1012C00D103E0681E2A
:1027F000C5B2002DE8D100BF204670BD2DE9F041E3
:102800008EB00326032400274FF00008342101A8CE
:1028100002F0CFFD00253CE04FF4FA60FFF7A6FE82
:10282000C823002284A186A0FFF7C4FE0446032C1F
:1028300004D14FF4FA60FFF799FE07E00CB1012CC8
:1028400004D1012059495439487026E0FCB97BA1D4
:102850005648153002F0BFFC07467BA1384602F00F
:10286000BAFC8046002088F80000B81C02F0A6FCE4
:10287000C5B21DB901204D49543948702A4673A18B
:1028800001A802F035FB01A94AA001F01AF9701E57
:10289000C6B2052D01DA002EBED100BF20460EB013
:1028A000BDE8F0812DE9F04100250027032603242F
:1028B0001DE0C823002241A167A0FFF77BFE04466C
:1028C000032C04D14FF4FA60FFF750FE0DE04CB931
:1028D00061A13648153002F07EFC00B909E0FFF72F
:1028E000A6FE02E0012C00D103E0701EC6B2002E4D
:1028F000DFD100BF9CB92D4F15371521394802F0A3
:1029000036FD002505E0B81C405D36494855681C79
:10291000C5B2142DF7DB334951A001F0D2F820469F
:10292000BDE8F0812DE9F0419AB005460E46174604
:102930004FF003080324642101A802F03AFD4C483B
:10294000009750F8252033464AA101A802F0D0FA9A
:10295000C5E043F6982300224DA101A8FFF72AFE07
:102960000446032C04D14FF4FA60FFF7FFFD03E0A7
:102970000CB1012C00D1B6E0A8F1010000F0FF0875
:102980004FF4FA7300220DA143A0FFF713FE044693
:102990004CB945A10548153002F01DFC20B1204678
:1029A0001AB0BDE8F0819AE084E00000CC0100207C
:1029B0000048004025730D0A000000004F4B000046
:1029C0004154453000000000434E554D00000000CA
:1029D0002041542B434E554D0000000041542B43E1
:1029E0004E554D003A0D0020670D00204E756D626A
:1029F00065725F4255463A25730D0A004154000046
:102A00002B435245473A20302C31000041542B4390
:102A10005245473F0000000041542B4350494E3F70
:102A2000000000004348494E4100000041542B4340
:102A30004F50533F000000002B4353513A00000019
:102A400041542B43535100002C000000D0C5BAC59F
:102A5000D6CAC1BF3A25640041542B4343494400C0
:102A600049434349445F4255463A25730D0A0000E5
:102A70004C00002041542B43495053544152543D83
:102A8000222573222C222573222C2225732200005A
:102A9000434F4E4E4543540041542B4349505354E9
:102AA0004154555300000000434F4E4E45435420BF
:102AB0004F4B0000F4A1F64802F08DFB78B14FF4C3
:102AC000FA730022F3A1F6A0FFF774FD04464FF459
:102AD000FA730022F6A1F8A0FFF76CFD0446B8F1E6
:102AE000000F7FF436AF00BF20461AB0BDE8F0817A
:102AF00010B50324F3480268F34801680020FFF78B
:102B000011FF041E02D1E24969398870204610BDC8
:102B100070B50325032414E04FF4FA730022DDA1FD
:102B2000DFA0FFF747FD0446032C04D14FF4FA6001
:102B3000FFF71CFD03E00CB1012C00D103E0681E7F
:102B4000C5B2002DE8D100BF204670BD70B5032589
:102B5000032415E04FF47A730022AFF2A011DBA03A
:102B6000FFF728FD0446032C04D14FF4FA60FFF769
:102B7000FDFC03E00CB1012C00D103E0681EC5B2DE
:102B8000002DE7D100BF4FF4FA60FFF7EFFC2046BD
:102B900070BD70B50325032415E04FF416730022B1
:102BA000AFF2E811CCA0FFF705FD0446032C04D1D9
:102BB0004FF4FA60FFF7DAFC03E00CB1012C00D10E
:102BC00003E0681EC5B2002DE7D100BF4FF4FA60E4
:102BD000FFF7CCFC204670BD70B50325032415E03B
:102BE0004FF496730022AFF22C21C0A0FFF7E2FC55
:102BF0000446032C04D14FF4FA60FFF7B7FC03E05E
:102C00000CB1012C00D103E0681EC5B2002DE7D144
:102C100000BF204670BD70B50325032414E04FF4B7
:102C20007A730022A2A1A4A0FFF7C4FC0446032CDF
:102C300004D14FF4FA60FFF799FC03E00CB1012CCA
:102C400000D103E0681EC5B2002DE8D100BF4FF4EB
:102C5000FA60FFF78BFC204670BD70B50325032496
:102C600015E04FF496730022AFF2B021A3A0FFF756
:102C7000A1FC0446032C04D14FF4FA60FFF776FC64
:102C800003E00CB1012C00D103E0681EC5B2002D99
:102C9000E7D100BF4FF4FA60FFF768FC204670BD33
:102CA00070B50325032415E04FF416730022AFF22C
:102CB000F42196A0FFF77EFC0446032C04D14FF4C8
:102CC000FA60FFF753FC03E00CB1012C00D103E0E4
:102CD000681EC5B2002DE7D100BF4FF4FA60FFF7C0
:102CE00045FC204670BD10B50324C8230022AFF276
:102CF00034318DA0FFF75EFC0446204610BD10B5B0
:102D00000324C8230022AFF24C318FA0FFF752FCFE
:102D10000446204610BD10B50324C8230022AFF29C
:102D2000643190A0FFF746FC0446204610BD10B564
:102D30000324C8230022AFF27C318EA0FFF73AFCB7
:102D40000446204610BD10B50324C823002291A1DB
:102D500093A0FFF72FFC0446204610BD70B5032456
:102D6000002500264FF42F7300228FA190A0FFF7BB
:102D700021FC0446FCB9142245490B318F4802F06E
:102D80007FFA43482F388D490A6802604A684260DA
:102D9000097A01723A3889490B310A6842644A68F3
:102DA0008264097A80F84C1000F1440200F13A0183
:102DB00083A000F086FE204670BD10B50324C82312
:102DC0000022AFF2084183A0FFF7F4FB044620463F
:102DD00010BD10B50324C8230022AFF2204161A02A
:102DE000FFF7E8FB0446204610BD10B50324C823B6
:102DF00000227CA17DA0FFF7DDFB0446204610BD2C
:102E000070B5054603247DA000F05BFE002020493C
:102E1000693981F868000A211D48153802F0C9FA9D
:102E200032217B4802F0A3FA4FF4FA73002279A111
:102E300079A0FFF7BFFB04469CB9294679A000F0B2
:102E4000F9FE6420FFF792FB40F6B833002276A12A
:102E50001A20FFF7AFFB0446214675A000F031FEB3
:102E60000BE001200A4969394870214676A000F03C
:102E700028FE01217A48FEF745FE204670BD70B558
:102E80000325032404E10000434C4F534544000054
:102E9000E1010020434C4F5345204F4B0000000000
:102EA00041542B434950434C4F53453D31000000A2
:102EB00053485554204F4B0041542B4349505348DD
:102EC00055540000580000205400002041542B436A
:102ED000474154543D31000041542B434950435322
:102EE00047503D312C22434D2200000041542B43DA
:102EF0004950484541443D310000000041542B43B6
:102F000047434C4153533D224222000041542B433E
:102F10004744434F4E543D312C224950222C2243EA
:102F20004D4E45542200000041542B534150425213
:102F30003D332C312C22436F6E74797065222C2224
:102F4000475052532200000041542B5341504252EB
:102F50003D332C312C2241504E222C22434D4E45E4
:102F60005422000041542B53415042523D312C31E8
:102F70000000000041542B434E54503D226E7470AB
:102F8000312E616C6979756E2E636F6D222C333230
:102F9000000000002B434E54503A20310000000046
:102FA00041542B434E5450002B434C4253000000DD
:102FB00041542B434C42533D312C31004F0D0020E6
:102FC0006C6E673A2573200D0A6C61743A25730D97
:102FD0000A00000041542B53415042523D302C31E5
:102FE00000000000302E302E302E300041542B5384
:102FF000415042523D322C3100000000D7BCB1B8E4
:10300000BFAACABCB7A2CBCDCAFDBEDD0D0A000067
:10301000BE0D00203E00000041542B434950534553
:103020004E4400002573000053454E44204F4B0092
:10303000D2D1CDEAB3C9D2BBB4CEB7A2CBCD20207A
:1030400025640D0A00000000B7A2CBCDCAA7B0DCF2
:10305000A3ACD7B4CCAC3A2025640D0A0000000024
:10306000000C00404FF47A730022AFF2B061FEA072
:10307000FFF7A0FA0446032C04D14FF4FA60FFF7DF
:1030800075FA03E00CB1012C00D103E0681EC5B253
:10309000002DE7D100BF4FF4FA60FFF767FA204632
:1030A00070BD70B50325032414E0C8230022AFF2DD
:1030B000F461F0A0FFF77EFA0446032C04D14FF42C
:1030C000FA60FFF753FA03E00CB1012C00D103E0E2
:1030D000681EC5B2002DE8D100BF4FF4FA60FFF7BB
:1030E00045FA204670BD70B50325032414E0C823BB
:1030F0000022AFF23871E4A0FFF75CFA0446032C1B
:1031000004D14FF4FA60FFF731FA03E00CB1012C5F
:1031100000D103E0681EC5B2002DE8D100BF4FF416
:10312000FA60FFF723FA204670BD30B587B0054638
:103130000C46D948A0F11801C968A0F1180292788C
:10314000CDE90414039206901838C088D249183982
:103150000969D14A183A5269CDE900210290CE4856
:10316000183803780279CD49284601F0C1FE284677
:1031700007B030BD70B59AB004460D4603266421F1
:1031800001A802F016F9FFF7BAFA061E35D1FFF7CB
:103190004EFA061E31D1FFF7EDFA061E2DD1FFF7CC
:1031A000A2FF002829D1FFF76AFE061E25D1FFF7EE
:1031B00078FF061E21D12246B9A101A801F098FE90
:1031C000C8230022AFF2B41101A8FFF7F3F9A0B9A8
:1031D0002946B7A000F075FC2946AFF2B81000F000
:1031E00029FD4FF4FA70FFF7C1F94FF4FA6300229A
:1031F000B2A11A20FFF7DEF9064630461AB070BDBC
:1032000010B50324FFF77BFA041E02D00120AD495C
:103210004870FFF70CFA041E02D00120A94948703B
:10322000FFF78AFA041E02D00120A6494870FFF772
:10323000A1FA041E02D00120A2494870FFF7DEFA6D
:10324000041E02D001209F494870FFF72BFB041E8B
:1032500002D001209B494870FFF780FD041E02D078
:10326000012098494870FFF7D6FC041E02D00120C7
:1032700094494870FFF7F1FC041E02D001209149E7
:103280004870FFF70DFD041E02D001208D494870E3
:103290008D4802688D4801680020FFF743FB041E3B
:1032A00002D001208749487000208649087010BD6F
:1032B00070B50525032406E0FFF7A2FF044604B914
:1032C00003E0681EC5B2002DF6D100BF204670BDD8
:1032D00070B50525032406E0FFF7EAFF044604B9AC
:1032E00003E0681EC5B2002DF6D100BF204670BDB8
:1032F00010B502460B46002000211078012103E0A2
:10330000545C60404C1CE1B29942F9DB10BD10B531
:1033100003246F4A6C4801686C48006800F072FA38
:103320006C48FFF76DFD0446204610BD7CB50024B7
:103330000025FFF77CF9041E1ED1FFF7D4FC041E04
:103340001AD1FFF7DCFC041E16D1FFF74EFD08B9B9
:10335000012000E00020041E0ED0C8230022AFF69A
:10336000A4115DA0FFF726F9C8230022AFF6B4111F
:10337000AFF21040FFF71EF9FFF7D9FC041E64D12D
:10338000FFF7E1FC041E60D1C823002256A158A01B
:10339000FFF710F9002858D14A4890F874003038E7
:1033A000484991F87310303901EB810100EB41007D
:1033B00000F5FA6051498880424890F8770030382B
:1033C000404991F87610303901EB810100EB410062
:1033D0004A4988713B4890F87A003038394991F869
:1033E0007910303901EB810100EB41004349C8718C
:1033F000344890F87D003038324991F87C103039EB
:1034000001EB810100EB41003C4908702D4890F828
:10341000800030382B4991F87F10303901EB810161
:1034200000EB410035494870264890F88300303859
:10343000244991F88210303901EB810100EB410001
:103440002E4988702EA000F03CFB2C4880782B4938
:1034500049782A4ECDE900103378F279B179B088F5
:1034600001F005F87CBD000041542B434D47463D1B
:103470003100000041542B43534D503D31372C3126
:1034800036372C302C30000041542B435343533DEE
:103490002247534D220000008C0D0020C418030861
:1034A00041542B434D47533D222573220D0A000002
:1034B000534D533A2025730D0A0000002B434D470E
:1034C000533A0000780100205800002054000020EA
:1034D0005C020020BD13002041542B434E54504346
:1034E00049443D31000000002B43434C4B3A00005F
:1034F00041542B43434C4B3F0000000084180020F4
:10350000CAB1BCE4B8FCD0C20D0A000010B500245A
:103510004FF47A73AFF23402AFF660318AA0FFF74E
:1035200049F80446204610BD10B500244FF47A73C4
:10353000AFF25002AFF67C31AFF2D400FFF73AF8A9
:103540000446204610BDF0B599B005466421684692
:1035500001F02FFF00277F4C204601F072FEC6B21B
:1035600006E0701EC6B216B9002019B0F0BD641C8A
:1035700020782228F5D12E3405E014F8010B05F847
:10358000010B701EC6B220780D28F6D100202870DD
:103590000120EAE70146302905DB392903DCA1F1E6
:1035A0003000C0B27047412905DB462903DCA1F198
:1035B0003700C0B2F6E7612905DB662903DCA1F11B
:1035C0005700C0B2EEE70020ECE70146092903DC12
:1035D00001F13000C0B270470A2905DB0F2903DC76
:1035E00001F13700C0B2F6E73020F4E7F8B5044641
:1035F0000D461746002F33D02EE02078812806DABA
:103600002078012101F0BEFB0646641C0DE014F891
:10361000010B8DF8010014F8010B8DF80000BDF8C6
:103620000000012101F0AEFB0646300BFFF7CDFF95
:1036300005F8010BC6F30320FFF7C7FF05F8010BE0
:10364000C6F30310FFF7C1FF05F8010B06F00F00EA
:10365000FFF7BBFF05F8010B20780028CDD138E03B
:1036600034E014F8010BFFF795FF0007000E8DF80A
:10367000010014F8010BFFF78DFF9DF801100844BD
:10368000C0B28DF8010014F8010BFFF783FF0007AB
:10369000000E8DF8000014F8010BFFF77BFF9DF87A
:1036A00000100844C0B28DF80000BDF800000021F1
:1036B00001F068FB0646802E02DA2E706D1C05E0D4
:1036C0003006000C40EA16202880AD1C2078002827
:1036D000C7D100202870F8BD38B502460B462EE051
:1036E00012F8010BFFF756FF0001ADF8020012F8C7
:1036F000010BFFF74FFFBDF80210084480B2ADF890
:10370000020012F8010BFFF745FF0001ADF80000C1
:1037100012F8010BFFF73EFFBDF80010084480B21D
:10372000ADF800004FF6FF70844208DABDF80000E3
:10373000BDF8021000EB012084B21C809B1C1078A5
:103740000028CDD138BD000041542B434E4D493D9A
:10375000322C3200F8010020F0B504461546002056
:103760001EE0265C3211265C06F00F033032392A47
:1037700003DDD61D01F8106001E001F8102003F10F
:103780003006F3B2392B05DDDE1D012707EB4007BC
:10379000CE5503E0012606EB40068B55461C30B2A1
:1037A000A842DEDBF0BD00B585B064486449D0F8BE
:1037B0002C21FFF7D1FF614880784006000E614957
:1037C0000870084602785E49891D5F4801F018FEBE
:1037D00000F0FCFE5D48C0795C4989795B4A52790A
:1037E0005A4BDB78CDE90132CDE903105748807898
:1037F000009056480388544A55A1624801F078FB6E
:1038000005B000BD70B58EB005460E4614462C229C
:103810005DA103A801F079FD484890F8020149F63E
:1038200041410844634908806348A0F10A01A0F1BE
:103830001603A0F13C02CDE9004102905FA16E4861
:1038400001F056FB6C4A6DA16D4801F051FB0EB0C2
:1038500070BD70B50024C8256A480068284447F642
:10386000FD71884217DC00BF0AE0464A115D654AD7
:103870001268101901F0AFF90F20FEF777FE641CF3
:10388000AC42F2DB5F48006828445E4908605EA0F5
:1038900000F017F918E05B480068284447F6FD710E
:1038A000884211DD642057490860002407E0354A4A
:1038B000115D544A1268101901F08DF9641CAC4274
:1038C000F5DB55A000F0FDF870BD10B514211E48C1
:1038D00001F04DFD4FF4BE71494801F048FD4FF431
:1038E000A071454801F043FD10BD2DE9F05F804611
:1038F0000E46914600241CE016F814A06000401CFF
:1039000016F800B0504601F0ACFA3038C5B2092DB7
:1039100001DDE81FC5B2584601F0A3FA3038C7B23E
:10392000092F01DDF81FC7B207EB051008F80400E6
:10393000641C4C45E0DBBDE8F09F00003C17002014
:10394000F80F00206A000020F7100020600100201E
:10395000646174613A222573222C0920200D0A200B
:1039600074696D653A2225642E253032642E253027
:10397000326420253032643A253032643A253032C0
:10398000642200005C020020436F6E74656E742D2B
:10399000547970653A6170706C69636174696F6EB7
:1039A0002F6A736F6E2D70617463682B6A736F6E0C
:1039B0000D0A000068000020BC0100207B0D0A20D9
:1039C0006D616368696E6569643A222573222C0D06
:1039D0000A2073696D69643A222573222C0D0A2529
:1039E000730D0A6C6E673A25730D0A6C61743A2583
:1039F000730D0A7D00000000B80E00202573000042
:103A0000BD1300206C000020D0B4C8EBD3A6BCB11D
:103A1000726F6D0D0A000000D0B4C2FAC1CB2CB495
:103A2000D3CDB7D0B40D0A0010B586B0044601213D
:103A30004804FDF73CFB01210420FDF72BFB04208B
:103A4000ADF8140003208DF8160018208DF817002B
:103A500005A93048FCF7FCFF0820ADF8140004204D
:103A60008DF8170005A92B48FCF7F2FF26208DF8EA
:103A7000000003208DF801008DF8020001208DF870
:103A800003006846FCF7B9FE01940020ADF8080079
:103A9000ADF80A00ADF80C00ADF810000C20ADF840
:103AA0000E0001A91C48FEF74EFB012240F22551F1
:103AB0001948FEF7E0FB01211748FEF7D0FB06B0DE
:103AC00010BD0FB410B5B4B0002437A80190C821C0
:103AD00002A8019B369A01F0E5F90EE02046621C2F
:103AE000D4B202AA115C0C48FEF726FC00BF4021AC
:103AF0000948FEF78FFC0028F9D0C72C03DA02A88A
:103B0000005D0028EAD10020019034B010BC5DF8BF
:103B100014FB0000000801400044004010B540F2D2
:103B200025516048FEF78CFC28B35E48FEF708FC80
:103B3000C4B25D48008800F40040E0B95A480088EB
:103B4000FF2812DC00215948FEF770FA5648008819
:103B500018B901215548FDF7D5FF53490888411C84
:103B6000514A118052490C5405E04F48008840F4F6
:103B700000404D49088010BD10B586B004460121B3
:103B80000820FDF787FA01218804FDF790FA4548DF
:103B9000FEF796FA4FF48060ADF8100003208DF820
:103BA000120018208DF8130004A94248FCF750FFBA
:103BB0004FF40060ADF8100004208DF8130004A944
:103BC0003C48FCF745FF00940020ADF80400ADF838
:103BD0000600ADF80800ADF80C000C20ADF80A00A6
:103BE00069463048FEF7AFFA01212E48FEF737FB51
:103BF000012240F225512B48FEF73DFB27208DF88E
:103C0000140000208DF815008DF8160001208DF8A5
:103C1000170005A8FCF7F1FD40F65F11632000F0E6
:103C200041F900202049088000212048FDF76AFF63
:103C300006B010BD0FB438B505A800904FF48071E0
:103C40001D4801F094FB1C48009A049901F018F9F2
:103C500000200090184801F0F4FA85B2164917A028
:103C6000FFF72FFF00240DE000BF40210D48FEF7B5
:103C7000D1FB0028F9D01048015D0A48FEF75CFB33
:103C8000601C84B2AC42EFDB38BC5DF814FB10B5AD
:103C90004FF48071064801F06AFB00200249088059
:103CA00010BD000000480040460100200014004004
:103CB00039150020000C014039160020533A202508
:103CC000730D0A0010B50121A148FEF7E4F9E0B137
:103CD00001219F48FEF7F0F99E480068401C9D496D
:103CE00008609D480068401C9B490860994800682E
:103CF000142803D101209949087006E0954800680E
:103D0000142802DD00209349086010BD2DE9F04120
:103D1000002400250026002701219148FEF7BBF969
:103D2000002863D001218E48FEF7C6F98D4800882F
:103D300040F400408B49088000218948FDF7E2FEED
:103D4000002088490988C1F30E01874A5054114662
:103D500086A0FFF7B6FE89A1834801F03CFA48B976
:103D600088A1814801F037FA20B989A17E4801F085
:103D700032FA18B101207949887037E088A1774874
:103D8000543001F028FA38B186A1774801F023FABF
:103D900010B101207149887070495431724801F0A6
:103DA0001AFA60B16D4869300021016041600181FB
:103DB0006D4901F022FA0120684981F868007BA171
:103DC000694801F008FA78B164216448803001F054
:103DD000F0FA65496148803001F00FFA01205F492F
:103DE00081F8680003200870FFF751FFBDE8F081FB
:103DF00010B501216F48FEF74EF948B301216D4817
:103E0000FEF75AF96C480068782805DA6A480068B5
:103E1000401C694908601BE05048806F664909688A
:103E2000884215DC65480068401C64490860002031
:103E30006149086001204949887061A0FFF741FE8F
:103E400000215C48FEF7F2F800215A48FDF75AFEBF
:103E500010BD7FB505460C4601211020FDF727F95E
:103E6000ADF80450ADF800400020ADF80600ADF804
:103E7000020069463648FDF7E9FA01221146344846
:103E8000FDF75BFE36208DF80C0002208DF80D004A
:103E900000208DF80E0001208DF80F0003A8FCF71C
:103EA000ACFC7FBD7FB505460C4601212020FDF707
:103EB000FEF8ADF80450ADF800400020ADF8060063
:103EC000ADF8020069462648FDF7C0FA0122114606
:103ED0002348FDF732FE01212148FDF713FE37206C
:103EE0008DF80C0002208DF80D0000208DF80E00DA
:103EF00001208DF80F0003A8FCF77FFC7FBD7FB584
:103F000005460C4601210820FDF7D1F8ADF8045014
:103F1000ADF800400020ADF80600ADF8020069469B
:103F20002448FDF793FA012211462248FDF705FEC9
:103F300032208DF80C0003208DF80D0001208DF843
:103F40000E008DF80F0003A8FCF757FC7FBD0000A2
:103F500000100040480100204C01002078010020A2
:103F600000140040460100203915002055534152ED
:103F700054204255463A25730D0A0000434C4F53D6
:103F8000454400005044503A204445414354000009
:103F9000434F4E4E454354204641494C00000000DB
:103FA0003E0000004552524F520000002B434D543A
:103FB00000000000000C00405001002054010020CF
:103FC00032B7D6D6D3B9FDC8A5C1CB0010B50446CB
:103FD0007A48D0F82001C8B97848C0F820414FF499
:103FE00000417748FCF7E1FD00207449C1F8280141
:103FF000012081F838010020C1F83C01012240F283
:1040000027717048FEF737F9012010BD0020FCE74A
:10401000F0B502460B460020FF24FF2509E012F808
:10402000016B86EA0501684E765C86EA0405674EF8
:10403000745C1E1EA3F10107BBB2F0D14619B0B2E9
:104040004FF6FF7606EA00200619B0B2F0BDF0B5D3
:1040500004460D46FF23FF2600210BE0625C5A4018
:10406000D0B2594F385C80EA0603D0B2574F3E5C5D
:10407000481C81B2A942F1DB06EB032080B2F0BDFF
:104080002DE9F04707460D461646A819A0F101098B
:104090004F48077003204E49487008464580868087
:1040A000002402782146641C4448FF3042544848AA
:1040B00042782146641C4148FF30425444484088BD
:1040C00002122146641C3D48FF3042544048827829
:1040D0002146641C3948FF3042543D488088021212
:1040E0002146641C3548FF30425439480279214644
:1040F000641C3248FF3042542146FFF7A8FF804637
:104100004FEA28222146641C2C48FF3042542046A6
:10411000611CCCB22949FF3101F800800020FF3931
:10412000C1F82C012046FFF751FFBDE8F0872DE9CB
:10413000F04106460F4615462548067006202449DC
:10414000487008464780002402782146641C1B48BA
:10415000FF3042541E4842782146641C1748FF3005
:1041600042541B48408802122146641C1348FF3009
:104170004254174882782146641C1048FF3042544C
:104180002A122146641C42542146641C455421468F
:10419000FFF75DFF80464FEA28222146641C07484E
:1041A000FF3042542046611CCCB20449FF3101F873
:1041B00000802046FFF70AFFBDE8F0813C17002091
:1041C00000080140003801400C6900080C6A000832
:1041D0005801002000B587B0012144F20400FCF72B
:1041E00059FF9148FDF76CFF4FF40070ADF81800CF
:1041F00003208DF81A0018208DF81B0006A98B48A3
:10420000FCF726FC4FF48060ADF8180004208DF810
:104210001B0006A98548FCF71BFC4FF416500290C2
:104220000020ADF80C00ADF80E00ADF81000ADF8B0
:1042300014000C20ADF8120002A97B48FDF783FFA3
:1042400025208DF8040002208DF8050003208DF84C
:10425000060001208DF8070001A8FCF7CEFA012224
:1042600040F225517048FEF706F801216E48FDF72F
:10427000F6FF07B000BD70B5002400256C4890F82B
:10428000380103281AD16A48B0F82C0184B2A01E64
:1042900067490D5C601E085C00EB052085B2A01E1E
:1042A00081B26348FFF7D3FEA84205D100206049E0
:1042B00081F83801012070BD0020FCE70020FAE7FA
:1042C00010B5002440F225515748FEF7B9F8B0B1B7
:1042D00000205749C1F830015348FEF731F8C4B205
:1042E000534890F8390150B95148D0F82C11D0F802
:1042F0002C01401C4E4AC2F82C011046445440F296
:1043000027714948FEF79CF8D0B3494890F8380126
:10431000012835D14648D0F828014549D1F8201167
:1043200088420FD24248D0F82821D0F82801401CFA
:104330003F4BC3F8280103F1FF00815C3A48FDF7C9
:10434000FBFF1DE0002240F227713748FDF793FF85
:10435000012240F225513448FDF78DFF00203449F9
:10436000C1F82001C1F82801C1F82C01022081F810
:1043700038010020C1F83C01C1F84001C1F830010A
:1043800010BD10B5FEF702F92948D0F82C01A8B1EC
:10439000274890F8390188B92548D0F83001401CE9
:1043A0002349C1F830010846D0F830010A2805D960
:1043B000012081F83901032081F838011C4890F868
:1043C000380102281CD11A48D0F84001401C184975
:1043D000C1F84001022813D34FF400411348FCF701
:1043E000E6FB0020124981F83901084690F83801AF
:1043F000012805D16420C1F83401022081F8380178
:1044000010BD10B50A48D0F8241100F0D2FF0848BA
:10441000D0F82011FF3000F0AAFF00200449C1F8B5
:104420002C01C1F8280110BD0038014000080140EE
:104430003C1700200146CA1701EB92729210A1EBC3
:10444000820292B9642091FBF0F200FB121050B985
:104450004FF4C87091FBF0F200FB121008B9012074
:1044600070470020FCE70120FAE70020F8E72DE97B
:10447000F05F06460F4690469946DDE90AAB0024F8
:1044800040F2B270864203DB40F63300864202DD22
:104490000120BDE8F09F40F2B2750AE02846FFF720
:1044A000C9FF10B1A848044401E0A8480444681CAE
:1044B00085B2B542F2DB781EC7B2002510E0A448F1
:1044C000405D40F2A321484304EBC0143046FFF79F
:1044D000B1FF18B1012D01D19E480444681C85B27A
:1044E000BD42ECDBA8F1010040F2A321484304EBFC
:1044F000C014C9EB4910C0EB092004EB0014CAEB4F
:104500000A1004EB80045C44FCF784FE2046FCF7B0
:104510004EFEFCF77FFE0020BBE71CB5002000909C
:10452000034613220B21019040F2E270FFF79FFF38
:104530001CBD10B501214FF0C050FCF7B8FD0120A3
:10454000FCF7DFFB0420FCF7F6F945F255518842F1
:1045500029D0FCF7BBF90120FCF709FD00BF412081
:10456000FCF76DFC0028FAD04FF48070FCF71BFDBF
:104570000120FCF71EFDFCF756FEFCF74BFE012167
:104580000846FCF7EBFDFCF745FE47F6FF70FCF72D
:104590001BFEFCF73FFEFFF7C0FF45F2555104201C
:1045A000FCF7BDF90EE07B20FCF749FC10B97A203E
:1045B000FCF745FCFCF737FE01210846FCF7CEFD71
:1045C000FCF728FEFCF7A4FD002010BD70B5002606
:1045D00000240025FCF7E2FD06465E48B6FBF0F13C
:1045E00000FB11644FF46160B4FBF0F05A4948716C
:1045F0004FF46160B4FBF0F100FB11403C21B0FBD3
:10460000F1F0554988714FF46160B4FBF0F100FBA3
:1046100011403C21B0FBF1F201FB12004E49C87180
:104620004C48B6FBF0F44D480088A0423CD04B49C2
:104630000C8040F2B27510E02846FFF7FBFE40B157
:10464000B4F5B77F02D3A4F5B77404E0681C85B253
:1046500006E0A4F26D14681C85B2B4F5B67FEBD801
:1046600000BF3D480580002516E03B490888FFF75C
:10467000E1FE30B1012D04D11D2C01D31D3C09E018
:104680000CE03348405DA04203D83148405D241A15
:1046900000E003E0681C85B21C2CE6D200BF681C59
:1046A0002D498870601CC870002070BDF0B50346AD
:1046B0000C461546642093FBF0F0C6B2642093FBD1
:1046C000F0F700FB1730C1B2132E02DD01F16400D8
:1046D000C1B20846CF1701EB977701EBA707BAB233
:1046E000072092FBF0F700FB172082B25719601EDB
:1046F000DFF86CC01CF80000384482B2CF1701EB21
:104700009777BF10A1EB87071FB9032C01DA501E62
:1047100082B2072092FBF0F700FB1720C0B2F0BD79
:1047200010B50120FCF7A4FD08B1FFF74FFF0220F0
:10473000FCF79EFD10B10220FCF7AAFD0120FCF75A
:10474000A7FDFCF767FD10BD0085E2018033E101A4
:10475000186B0008805101006001002068010020F2
:104760000C6B000870B5002400250026FDF780FFC3
:1047700068B900BF09E05F48015D04F1110000F075
:104780002AFA0F2000F032F9641C0B2CF3DBFEF741
:10479000CBFE10B958A0FFF794F9FEF7B7FE10B999
:1047A0005BA0FFF78EF948226049002000F09EFAD6
:1047B0005FA0FFF786F95CA0FFF783F94D48002161
:1047C00001604160816008225849C91C263800F008
:1047D00017FE0B2255491131464800F011FE022206
:1047E000524923314348283800F00AFE0F224F492E
:1047F0002A314048103800F003FE05224B49393178
:104800003C48203000F0FCFD03224849453139483E
:10481000453000F0F5FD3748283800F0CFFC05465C
:104820003448453000F0CAFC064632482E38C56789
:10483000866700F1080143A0FFF743F92D4944A022
:10484000FFF73FF92B482E382A46C16F43A0FFF7E8
:1048500038F92849103945A0FFF733F925492031A7
:1048600044A0FFF72EF923482E383246816F44A02A
:10487000FFF727F970BD10B52AE0C8224549464820
:10488000006800F033FA002409E043490968081978
:1048900042A100F0A0F90A20FDF768FE641CC82CB4
:1048A000F3DB3FA0FFF70DF93B480068C8303A49F9
:1048B00008603EA1374800F08EFC48B1354A3DA162
:1048C000414800F015FBFEF722FD40A0FFF7F9F884
:1048D0003148006840F24C418842CEDB2E480068E7
:1048E000884202DD64202C4908603CA0FFF7E9F80B
:1048F00010BD0000A6010020C9E8D6C3B6CCD0C5C3
:10490000CEAA74657874B8F1CABD0D0A0000000023
:10491000C9E8D6C3B6CCD0C5D6B1BDD3B7A2B5BD54
:10492000B4AEBFDAB3C9B9A60D0A0000D41800208E
:10493000B6C1C8A1C4ACC8CFC5E4D6C3B3C9B9A673
:104940000D0A0000BBFAC6F7C2EB25730D0A000082
:10495000CAD6BBFABAC52573200D0A00BCE4B8F468
:1049600025642020202025640D0A0000697025732D
:10497000200D0A00B6CBBFDA2573200D0A00000017
:10498000D6D8C6F4CAB1BCE4256420202020202556
:10499000640D0A00301900206C0100203000000076
:1049A000B2C1B3FDC1CB0D0A0000000064617461A7
:1049B00000000000B6CFCDF8CAB1B5C4CAFDBEDD57
:1049C00025730D0A000000005C020020B7A2CBCDC9
:1049D000C1CBB1B8B7DD0D0A00000000B6C1B3F617
:1049E000C1CBB1B8B7DDA3BA0000000008E0421E99
:1049F00090B2002101E04A1C91B2B1F52F7FFADBA1
:104A00000028F4D17047002107E0002201E0531C88
:104A10009AB2052AFBDB4B1C99B28142F5DB704749
:104A200010B54FF40041D648FCF7BFF80120FFF75E
:104A3000EAFF4FF48041D248FCF7B7F80120FFF7B6
:104A4000E2FF4FF40041CE48FCF7B1F80120FFF738
:104A5000DAFF4FF48041CA48FCF7A9F810BD10B541
:104A60004FF40041C648FCF7A2F80120FFF7CBFF46
:104A70004FF48041C248FCF798F80120FFF7C3FFCC
:104A80004FF40041BE48FCF790F80120FFF7BBFF50
:104A90004FF48041BA48FCF78AF810BD38B5482079
:104AA0008DF8030003208DF802004FF40040ADF8AC
:104AB00000006946B248FBF7CBFF4FF48041B04895
:104AC000FCF773F84FF47A750AE04FF40041AC48F4
:104AD000FCF751F8012801D1002401E0012403E092
:104AE000281EA5F10105F0D100BF4FF48041A44874
:104AF000FCF75DF810208DF803006946A048FBF72D
:104B0000A7FF204638BD70B50446002524E004F018
:104B1000800028B14FF400419948FCF746F804E0C2
:104B20004FF400419648FCF742F86006040E01205D
:104B3000FFF769FF4FF480419148FCF736F80120F8
:104B4000FFF761FF4FF480418D48FCF730F80120FA
:104B5000FFF759FF681CC5B2082DD8DB70BDF8B54A
:104B6000002548208DF803004FF40040ADF8000008
:104B700003208DF8020069468148FBF769FF002495
:104B80001EE04FF480417E48FCF70FF80120FFF74C
:104B90003AFF4FF400417A48FBF7EDFF012801D1BD
:104BA000012600E0002646EA4500C5B24FF48041E8
:104BB0007348FBF7FCFF0120FFF725FF601CC4B220
:104BC000082CDEDB10208DF8030069466C48FBF7EB
:104BD0003FFF2846F8BD70B504460D46FFF720FF9D
:104BE000A020FFF790FFFFF759FF08B9002070BD24
:104BF0002012FFF788FFFFF751FF08B90020F6E702
:104C0000E0B2FFF780FFFFF749FF08B90020EEE7A9
:104C10002846FFF778FFFFF741FF08B90020E6E7D5
:104C2000FFF71DFF0F20FFF7E1FE0120DFE770B562
:104C300004460D461646FFF7F3FEA020FFF763FF7C
:104C4000FFF72CFF08B9002070BD2012FFF75BFFB3
:104C5000FFF724FF08B90020F6E7E0B2FFF753FFA3
:104C6000FFF71CFF08B90020EEE708E02878FFF7FF
:104C70004AFF6D1CFFF712FF08B90020E4E7301E61
:104C8000A6F101018EB2F1D1FFF7E9FE0120DBE7C9
:104C900070B50446FFF7C4FEA020FFF734FFFFF70E
:104CA000FDFE08B9002070BDC4F30720FFF72BFFFD
:104CB000FFF7F4FE08B90020F5E7E0B2FFF723FFA5
:104CC000FFF7ECFE08B90020EDE7FFF7A9FEA120F1
:104CD000FFF719FFFFF7E2FE08B90020E3E7FFF74F
:104CE0003EFF0546FFF7BBFE2846DCE770B50446ED
:104CF0000D461646FFF794FEA020FFF704FFFFF7CE
:104D0000CDFE08B9002070BDC4F30720FFF7FBFEFD
:104D1000FFF7C4FE08B90020F5E7E0B2FFF7F3FEA5
:104D2000FFF7BCFE08B90020EDE70FE0FFF778FEC3
:104D3000A120FFF7E8FEFFF7B1FE08B90020E2E787
:104D4000FFF70DFF28706D1CFFF789FE301EA6F1DE
:104D50000106EBD100BFD6E708B501214020FCF7E2
:104D600099F94FF44040ADF8000003208DF802009F
:104D700010208DF8030069460148FBF769FE08BD65
:104D8000001801402DE9F04102460F46802A01DA61
:104D900010462FE01FB1244B45F2205602E0234B72
:104DA00045F220560025102416E0A6EB050C0CEB6E
:104DB000DC7805EB68014FEA410C33F81CC09445E0
:104DC00000D10BE04FEA410C33F81CC0944501DAE6
:104DD0000D4600E00E46641E002CE6D100BF34B143
:104DE0004FF0010C0CEB410C33F81CC001E04FF00C
:104DF000000C6046BDE8F0810246002100E0491C3D
:104E00000B4830F8110020B1094830F811009042E9
:104E1000F5D1074830F8110018B1064830F81100F4
:104E200070471046FCE70000A8BF0108246B00088B
:104E30002C1403080C160308014600BF7047074AEC
:104E4000126802F0807242B100BF4FF060421268F7
:104E5000002AFAD04FF0604318707047FCED00E074
:104E6000704710B5044600F0FBFA0068005D0007CB
:104E700004D5DF2C02D0A4F1200010BD204610BDC7
:104E80001CB50C46064B7B4469460090204600F05A
:104E900078FB04460020694600F086FB20461CBDD6
:104EA0001F0700007CB51D4616460C00009001D07F
:104EB0002044401E074B7B442A46694601903046F9
:104EC00000F05FFB05461CB10020694600F06CFB5A
:104ED00028467CBDF90600000FB4044910B503AAAA
:104EE000029800F085FB10BC5DF814FB70010020F7
:104EF0000FB41CB5084B06AA7B4469460090059880
:104F000000F03FFB04460020694600F04DFB2046C0
:104F10001CBC5DF814FB0000AD06000070B5044633
:104F200085690068C10601D5302600E02026C0074B
:104F300007D070BDD4E9012130469047206A401C5B
:104F400020626D1EF6D570BD70B504468569007887
:104F5000C00707D170BDD4E9012120209047206A05
:104F6000401C20626D1EF6D570BD70B50C4605461E
:104F7000012A05D02878800600D5EA69002302E0DE
:104F8000012305E05B1C934202D2E05C0028F9D1CA
:104F9000A869E618C01AA861286A18442862284639
:104FA000FFF7BCFF04E0D5E9012114F8010B90479D
:104FB000B442F8D32846FFF7C7FF70BD2DE9F04192
:104FC0000646002410687529314616A510D000F059
:104FD00053FA002802DA404213A507E031688A0735
:104FE00001D512A502E0490704D511A5012401E06D
:104FF00000F04BFA00210A2206F1240709E0B0FB79
:10500000F2FCB0FBF2F302FB1C003030785418467F
:10501000491C0028F3D123462A463046BDE8F0411A
:1050200000F03CBA000000002D0000002B00000042
:10503000200000002DE9F05F894604464FF0000A89
:10504000DFF874B1FB44C0F820A02046E16888472F
:10505000002874D0252806D0D4E901219047206A81
:10506000401C2062F1E700265F462046E168884741
:105070002028054607DB312D05D2781910F8200CC1
:1050800008B10643F1E7B00701D526F00406C4F8DD
:105090001CA00027C4F818A02A2D09D0284601F02A
:1050A000FFFB38B304EB8708303DC8F8185019E00F
:1050B00059F8041B204604EB87029161E168884798
:1050C000012F054618D1E069002820DA26F02006D5
:1050D0001DE0D8F8180000EB800005EB40003038E8
:1050E000C8F818002046E1688847054601F0D8FB5B
:1050F0000028EED1012F0AD02E2D08D12046E168DC
:1051000088477F1C0546022F46F02006C4DBA069B5
:10511000002803DA404246F00106A061F00701D002
:1051200026F010066C2D0BD0682D09D04C2D39D0EF
:105130006A2D35D0742D35D07A2D33D016E038E075
:10514000E1682F4620468847B842054609D16C2FB2
:1051500026D04FF48060E168064320468847054624
:1051600004E06C2F1AD04FF4807006430DB3A5F104
:105170004100192802D8203546F400664A462946DF
:10518000204626604E46FBF72DF880B101280BD053
:10519000F61D26F0070000F1080956E74020E4E775
:1051A0008020D8E70020D6E706F104094DE728461D
:1051B00052E7206ABDE8F09FA4C7020070B506461A
:1051C00000F056F90468054630460A22002100F036
:1051D0003FFB2C6070BD30B505460B462A4613F8E0
:1051E000014B12F8010B08B1A042F8D01CB1002805
:1051F00002D06D1CF1E7284630BD40EA01030246AB
:1052000030B59B0710D14FF0013400E008C208C947
:105210001D1B9D4315EAC41FF8D013F0FF0102F8CF
:10522000011B0DD01B0AF8E711F8013B002B02F817
:10523000013B05D011F8013B002B02F8013BF3D1F3
:1052400030BD10B5431C02E010F8011B71B181079D
:10525000FAD14FF0013202C88C1A8C4314EAC21101
:10526000F9D0C01A0A0603D0C01E10BDC01A10BD66
:105270000A0401D0801E10BD0902FCD0401E10BDE2
:10528000032A40F2308010F0030C00F0158011F872
:10529000013BBCF1020F624498BF11F801CB00F84A
:1052A000013B38BF11F8013BA2F1040298BF00F89E
:1052B00001CB38BF00F8013B11F0030300F025805B
:1052C000083AC0F0088051F8043B083A51F804CB82
:1052D000A0E80810F5E7121D5CBF51F8043B40F848
:1052E000043BAFF30080D20724BF11F8013B11F853
:1052F00001CB48BF11F8012B24BF00F8013B00F897
:1053000001CB48BF00F8012B704710B5203AC0F020
:105310000B80B1E81850203AA0E81850B1E81850B6
:10532000A0E81850BFF4F5AF5FEA027C24BFB1E8F3
:105330001850A0E8185044BF18C918C0BDE8104064
:105340005FEA827C24BF51F8043B40F8043B08BF6D
:105350007047D20728BF31F8023B48BF11F8012B34
:1053600028BF20F8023B48BF00F8012B70474FF0E0
:1053700000020429C0F0128010F0030C00F01B8022
:10538000CCF1040CBCF1020F18BF00F8012BA8BF30
:1053900020F8022BA1EB0C0100F00DB85FEAC17CF4
:1053A00024BF00F8012B00F8012B48BF00F8012BA7
:1053B00070474FF0000200B51346944696462039D8
:1053C00022BFA0E80C50A0E80C50B1F12001BFF4BE
:1053D000F7AF090728BFA0E80C5048BF0CC05DF824
:1053E00004EB890028BF40F8042B08BF704748BF72
:1053F00020F8022B11F0804F18BF00F8012B7047E6
:1054000010B5044610F0030F08BF11F0030F40F071
:1054100015804FF0013E121FC0F20E8051F8043B80
:10542000A3EB0E0C2CEA030C1CEACE1C08BF40F8C0
:10543000043BF0D0A1F1040102F10402521E08DB8A
:1054400011F8013B002B00F8013BF7D11146FFF7A3
:105450008EFF204610BD70477047704770470000B0
:1054600010B500F031FA001D10BD00BF451400005A
:1054700000487047F819002009684A0501D540B274
:105480007047C905FCD500B2704709684A0501D5C7
:10549000C0B27047C905FCD580B270472DE9F0470E
:1054A0000D4699469246044600F124080168880694
:1054B00004D5E06921F01001216000E00120A8423C
:1054C00001DD471B00E00027A1697A1902EB090002
:1054D000081AA0612078C00602D42046FFF71EFDFE
:1054E000002608E0D4E901211AF806009047206A56
:1054F000401C761C20624E45F4DB2078C0060AD59D
:105500002046FFF70BFD06E0D4E90121302090474B
:10551000206A401C2062381EA7F10107F4DC07E076
:10552000D4E9012118F805009047206A401C206248
:10553000281EA5F10105F3DC2046FFF705FD2078C4
:10554000000602D50220BDE8F0870120FBE71168C4
:105550000268006A530501D508700AE0D30501D539
:10556000088006E0130603D5C217C1E9000200E077
:10557000086001207047000001694A1C0261087838
:10558000704700B58FB0CDE9013100210591054983
:105590007944CDE9031011466846FFF74BFD0FB083
:1055A00000BD0000E5FFFFFF0A6802F8010B0A607A
:1055B0007047D1E900239A4202D2531C0B6010704D
:1055C000704710B5436913B1AFF3008001E0FFF7F6
:1055D000CCFC012010BD127800F124010A700022D9
:1055E0004A700122EDE711684FF0FF32E9E7000051
:1055F000074B70B50D467B44FFF7C3FF04462846B2
:1056000000F01FFC10B14FF0FF3070BD204670BDA0
:1056100045F8FFFF2DE9FF5F15468A460446DFF88F
:10562000AC80F8440027D8E900103E46CDE90010D0
:1056300010E03AF816106A4602A800F006FC411C79
:1056400007D02178890603D5E269391891420DD82F
:105650000744761C2078800602D5E069B84205DD53
:10566000AE42E6DB3AF816000028E2D1A069C01B82
:10567000A0612046FFF752FCD8E90010CDE90010E8
:10568000002017E03AF818106A4602A800F0DDFB87
:10569000B0F1FF3F81460BD000250DF1080B05E06E
:1056A000D4E901211BF8050090476D1C4D45F7D347
:1056B00008F10100B0428046E4DB206A38442062F1
:1056C0002046FFF741FCBDE8FF9F0000DAC1020061
:1056D0002DE9F0418046D21D22F007020025D2E9D3
:1056E0000002F52915A614D0011E72F1000106DA98
:1056F0000023D0EB030063EB020211A608E0D8F808
:1057000000108B0701D50FA602E0490701D50EA6B0
:1057100001251146002408F1240704E000F0D8F820
:1057200030323A55641C50EA0102F7D12B4632461A
:1057300021464046BDE8F041FFF7B0BE0000000042
:105740002D0000002B0000002000000030B40021DC
:1057500000F1240408E002F00705D208303542EADF
:105760004372DB086554491C52EA0305F3D104680F
:10577000002310A2250707D5A40600D421B1C469CF
:1057800001230DA2641EC46130BCFFF787BE10B5B3
:10579000044621461068FFF778FE02462046BDE821
:1057A00010400023D2E7D21D22F00701D1E90023E7
:1057B000CCE700000000000030000000F0B40D460F
:1057C0000188090502D5214C7C4402E01F4C7C4431
:1057D0000E34002100F1240608E002F00F07120940
:1057E000E75D42EA03721B097754491C52EA03073A
:1057F000F3D102780023120704D5702D06D009B129
:10580000022311342246F0BCFFF748BE01231034B6
:10581000F8E770B504460D4621461068FFF735FEDF
:10582000024629462046BDE870400023C6E7D21D47
:1058300022F00703D3E90023C0E70368126843F0AE
:10584000200303600823C3610023B7E73CC00200C4
:105850002DE9F04791460F4680460446002614F88D
:10586000015B2DB1FFF7FCFD0068405DC007F6D17C
:105870002B2D02D02D2D18D0641E4A4639462046C5
:1058800000F090FA27B13968A14201D1C7F8008031
:105890004FF0020471050BD54042002803DDFFF7ED
:1058A000E7FD0460A007BDE8F08746F48066E4E702
:1058B0000028F8DAFFF7DCFD04606FF00040F2E743
:1058C00000487047F819002000487047181A002057
:1058D00030B5B0F10A024FEA900E71F100034EEAC2
:1058E000817EB0EB0E0061EB91014FEA101E4EEA93
:1058F000017E10EB0E0041EB11114FEA102E4EEA23
:10590000016E10EB0E0041EB11214FEA104E4EEAF2
:10591000014E10EB0E0041EB1141401841F1000126
:105920004FEAD00040EA41704FEAD10110EB800508
:105930004FEA810444EA907444EB01046D1944EB8E
:105940000404521BA3414FF0000348BF0A3200D5A4
:1059500030BD401C41F1000130BD70472DE9FF4FC3
:105960000C461E464FF0FF378BB0D2E90001DDF840
:1059700060800A908A46C1F30A5505B93D46002168
:1059800008464FF00000BAF1000F00F4400005DABD
:1059900000EB80004FF4400101EA50004FEA9059BB
:1059A000B9F1010F00DDB9460A9850EA4A000ED05D
:1059B00044F61050A5F2FF3545432F14B8F1000FFF
:1059C0001ED07542291E1EDDC9F100021CE0B8F18F
:1059D000010F4FF0000001D0302103E0F24305E059
:1059E0002154401CB042FBDB3046002200212154F0
:1059F0000B99C1F80880C1E900200FB0BDE8F08F15
:105A0000BD1B6D1CDEE74A4600DA694206A800F0BD
:105A1000AFFA06AB93E8070003AB83E807005046F4
:105A20000A9900F061FB8DE80700A0F500501F38CF
:105A300000900398002D0ADD42F21F014A460844F7
:105A4000002303A90390684600F0CAFD09E0A0F511
:105A500000504A461F38002303A90390684600F00F
:105A6000D4FD8DE807000004000C03D04FF0FF3098
:105A7000410800E01046B8F1000F03D00022009268
:105A800015461EE0751E05D4FFF722FF3032625521
:105A90006D1EF9D5B3460122084302D000227F1CB7
:105AA00004E02078302801D100227F1E002A0997C7
:105AB00084D01DE0112D07DAFFF70AFF303262555E
:105AC0006D1C50EA0102F5D1084302D00098C8B11C
:105AD0000EE00021681E05E0235C625C63542254E2
