:020000040800F2
:1000000090200020650600086D0400086F040008B9
:1000100073040008770400087B0400080000000057
:100020000000000000000000000000007F04000845
:100030008104000800000000830400085F400008FD
:100040007F0600087F0600087F060008FD430008C1
:100050007F0600087F0600087F0600087F0600086C
:100060007F0600087F0600087F0600087F0600085C
:100070007F0600087F0600087F0600087F0600084C
:100080007F0600087F0600087F0600087F0600083C
:100090007F0600087F0600087F0600087F0600082C
:1000A0007F0600087F0600087F0600087F0600081C
:1000B0007F0600087F0600087F0600087F0600080C
:1000C0007F0600087F0600087F0600087F060008FC
:1000D0007F0600089D3F00087F0600087D38000865
:1000E0007F0600087F0600087F0600087F060008DC
:1000F0007F0600087F0600087F0600087F060008CC
:100100007F0600087F060008593B00087F060008AC
:100110007F0600087F060008253A0008753A0008A7
:100120007F0600087F0600087F0600087F0600089B
:1001300000F002F800F0B0F80AA090E8000C824449
:100140008344AAF10107DA4501D100F0A5F8AFF226
:10015000090EBAE80F0013F0010F18BFFB1A43F0A5
:1001600001031847D4130300F41303000A444FF0AB
:10017000000C10F8013B13F0070408BF10F8014B06
:100180001D1108BF10F8015B641E05D010F8016B4B
:10019000641E01F8016BF9D113F0080F1EBF10F8AF
:1001A000014BAD1C0C1B09D16D1E58BF01F801CBD2
:1001B000FAD505E014F8016B01F8016B6D1EF9D555
:1001C0009142D6D37047000000230024002500266A
:1001D000103A28BF78C1FBD8520728BF30C148BFAA
:1001E0000B6070476E2904F0A287702905F0038127
:1001F000662906F07181652906F06E81672906F08F
:100200006B816129AFF3008003681B0A28BF41F0AE
:100210008001692904F01085642904F00D85752991
:1002200004F00A856F2905F09080782905F0CF80C9
:10023000E92905F02B80E42905F02880F52905F04F
:100240002580EF2905F08D80F82905F0CE80036820
:10025000DB0928BF41F08001632904F0AC877329D2
:1002600004F0B187E32905F07383F32905F078835F
:10027000002070471FB505F00BFC04000020002192
:1002800006F0FEF8401C60600020002106F00EF928
:10029000E0601FBD10B510BD05F0D5FB1146FFF79E
:1002A000E9FF00F009F805F0B7FC03B4FFF7F2FF2F
:1002B00003BC05F0FBFC000002F060F841F288305E
:1002C00002F0AEF84FF4A06000F0ECF9012108074D
:1002D00000F047FE4FF4E13003F044FA03F0E8FD8C
:1002E00041F61F4142F20F7003F067FC41F61F41D7
:1002F00042F20F7003F0B7FC00214B4801F0F0FD13
:1003000000214A4801F0ECFD0121474801F054FB6F
:1003100003F07DFF04F08EFB4FF4E13003F0DCFAD4
:1003200003F065FB0020424981F854000870C87052
:1003300002F01CFF02F08BFE04F082F804F009F9D1
:1003400070E03B488078012812D100BF80F3138809
:1003500000BF00BF3748006800F4E060364908433A
:10036000001D34490860BFF34F8F00BF00BFFEE798
:100370002F48C078012801D102F0F8FE2C480078FF
:10038000012804D0022816D003284AD12DE02822C3
:100390000021012003F028FDC82002F041F803F0FD
:1003A000D8FD012803D102202149087002E0012074
:1003B0001F49087035E01E48407801280BD1012103
:1003C0001A4801F0F9FA03F0C2F803F010F900201E
:1003D0001749087008E003F0BAF802F0B8FE03F01D
:1003E00042F90020124908701BE0144802F076FF21
:1003F000134908700846007890B1104911A003F025
:100400000EFA002213490D4803F004F8114A0B4973
:1004100011A003F004FA002009490870044908708B
:1004200000BF00BF8DE7000000100040000C00403E
:100430005C0100200CED00E00000FA054403002000
:1004400000000020B6CCD0C5C4DAC8DD3A20202593
:10045000730000000C040020D7AABBBBBAF3C4DAB7
:10046000C8DD3A202573202573000000704700BFC7
:10047000FEE700BFFEE700BFFEE700BFFEE77047F4
:10048000704770470CB50020019000906C480068E0
:1004900040F480306A49086000BF6948006800F491
:1004A000003000900198401C0190009818B9019804
:1004B000B0F5A06FF1D16248006800F4003010B1CF
:1004C0000120009001E0002000900098012843D115
:1004D0005C48006840F010005A490860084600680F
:1004E00020F0030008600846006840F00200086041
:1004F000534840685249486008464068486008468A
:10050000406840F4806048600846406820F47C10F1
:1005100048600846406840F4E810486008460068B3
:1005200040F08070086000BF4548006800F000702F
:100530000028F9D04248406820F003004049486054
:100540000846406840F00200486000BF3C484068F0
:1005500000F00C000828F9D10CBD10B5FFF792FF90
:1005600010BD10B53648006840F0010034490860FD
:1005700008464068344908403149486008460068E8
:10058000324908402E4908600846006820F480205F
:1005900008600846406820F4FE0048604FF41F00E1
:1005A0008860FFF7DAFF4FF000602949086010BD4E
:1005B00010B5002100200022214B5B6803F00C01E4
:1005C00021B1042906D0082928D107E0214B224C6B
:1005D000236027E01F4B204C236023E0184B5B680F
:1005E00003F47010164B5B6803F48032022303EBB4
:1005F000904022B9194B4343174C23600DE0104B38
:100600005B6803F4003323B1144B4343124C236063
:1006100003E0104B4343104C236003E00D4B0E4CA2
:10062000236000BF00BF064B5B68C3F303130C4C91
:10063000E15C094B1B68CB40074C236010BD0000F8
:1006400000100240002002400000FFF8FFFFF6FE0D
:1006500008ED00E000127A000400002000093D00CF
:10066000080000200948804709480047FEE7FEE7E8
:10067000FEE7FEE7FEE7FEE7FEE7FEE7FEE7FEE752
:1006800004480549054A064B704700006305000809
:1006900031010008901A002090200020901C0020BA
:1006A000901C002031490143314A1160704770B5F8
:1006B000002100230F22C47804B32D4C246804F4D5
:1006C000E064C4F5E064210AC1F10403CA4044783F
:1006D00004FA03F18478144021430901254C06787B
:1006E000A155047804F01F050124AC4005786D1174
:1006F000AD0005F1E025C5F8004109E0047804F0FB
:100700001F050124AC401C4D0678761145F82640A3
:1007100070BD1A4A0A400243154B1B1F1A607047EE
:1007200039B1134A121D12680243114B1B1D1A6086
:1007300006E00F4A121D126882430D4B1B1D1A6002
:100740007047042808D14FF0E021096941F0040105
:100750004FF0E022116107E04FF0E021096921F03C
:1007600004014FF0E0221161704700000000FA051B
:100770000CED00E000E400E080E100E080FFFF1FFE
:1007800010B5012000F014FC002000F011FC10BD99
:100790002A49086070472949091F0860704727499E
:1007A00084310860704701460020254A10884FF6C2
:1007B0007F4210400843224A1080704701460020C3
:1007C0001F4A10884FF68072104008431C4A108060
:1007D000704708B500220092194A2C3A0092009AFC
:1007E00002440092009A116008BD08B5014600203D
:1007F000009013482C38009000980844009000980E
:10080000008808BD0D489C300068C0B270470C4895
:100810000830008840F0010009490831088070471D
:100820000648A0300068C0B270470548083000880C
:1008300040F00200024908310880704704860D42EA
:100840002C6C004010B50446CC48844208D10121EC
:10085000042000F093FB0021042000F08FFB46E011
:10086000C748844208D10121082000F087FB0021FD
:10087000082000F083FB3AE0C248844208D10121FD
:10088000102000F07BFB0021102000F077FB2EE011
:10089000BD48844208D10121202000F06FFB0021D7
:1008A000202000F06BFB22E0B848844208D10121EF
:1008B000402000F063FB0021402000F05FFB16E0C9
:1008C000B348844208D10121802000F057FB002169
:1008D000802000F053FB0AE0AE48844207D101219A
:1008E000801500F04BFB0021A01500F047FB10BD68
:1008F00010B50121084600F041FB0021012000F065
:100900003DFB10BD2DE9F0410246002500260020E8
:1009100000230024002791F803C00CF00F0591F884
:1009200003C00CF0100CBCF1000F03D091F802C012
:100930004CEA050591F800C0BCF1000F31D01468F5
:1009400000202BE04FF0010C0CFA00F3B1F800C0CE
:100950000CEA03069E4220D183004FF00F0C0CFAE4
:1009600003F7BC4305FA03FC4CEA040491F803C006
:10097000BCF1280F06D14FF0010C0CFA00FCC2F8B4
:1009800014C00AE091F803C0BCF1480F05D14FF044
:10099000010C0CFA00FCC2F810C0401C0828D1D38E
:1009A0001460B1F800C0BCF1FF0F34DD54680020C2
:1009B0002EE000F1080C4FF0010808FA0CF3B1F832
:1009C00000C00CEA03069E4221D183004FF00F0CB9
:1009D0000CFA03F7BC4305FA03FC4CEA040491F853
:1009E00003C0BCF1280F05D100F1080C08FA0CF87F
:1009F000C2F8148091F803C0BCF1480F07D100F190
:100A0000080C4FF0010808FA0CF8C2F81080401CDE
:100A10000828CED35460BDE8F0814FF6FF71018005
:100A2000022181700421C170704702460020936842
:100A30000B400BB1012000E00020704701468868A0
:100A400080B2704702460020D3680B400BB10120F2
:100A500000E0002070470146C86880B2704701611D
:100A60007047416170470AB1016100E04161704720
:100A7000C16070474FF480320A43826181618261B4
:100A800082698269704702460020434B18684FF61E
:100A90008073184040EA021008433F4B18607047CB
:100AA0003E49C8617047F0B50A4600230024002182
:100AB000002500F00046B6F1004F02D1364EF16934
:100AC00001E0354E7168C0F3034583B200F440166F
:100AD000B6F5401F08D121F070612F4E766826F0E0
:100AE00070662D4F7E6012E000F48016B6F5801F10
:100AF00006D1032606FA05F4A14341F0706106E031
:100B0000460D360103FA06F6B14341F0706122B199
:100B1000460D360103FA06F6314300F00046B6F101
:100B2000004F02D11C4EF16101E01B4E7160F0BD1F
:100B300030B500228B071C0F0F2303FA04F2164B6B
:100B400008338C1053F824309343134C08348D1021
:100B500044F8253023468C1053F824308C07240F9A
:100B600000FA04F423430C4C08348D1044F825306B
:100B700030BD0A49DC3108607047000000080140C0
:100B8000000C014000100140001401400018014019
:100B9000001C0140002001400000014000002042F4
:100BA00010B50121080700F0F6F900214FF0805040
:100BB00000F0F1F910BD2A49086270472849086120
:100BC000704701460020274A106820F0E0000843E3
:100BD000106070472249A0310860704710B5024686
:100BE0000020204B186820F00300104318601E4BB3
:100BF0001B6843F004031C4C2360012901D130BF62
:100C000000E020BF184B1B6823F00403164C236040
:100C100010BD1448006840F00400124908600846FE
:100C2000006840F0020008600F48006840F00400CF
:100C30000D49086000BF00BF30BF7047014600206B
:100C4000084A52680A400AB1012000E000207047BB
:100C50000449096841EA8001024A116070470000B6
:100C600000000E420070004010ED00E0DF48006818
:100C700040F00100DD49086008464068DC49084052
:100C8000DA49486008460068DA490840D7490860F0
:100C90000846006820F4802008600846406820F478
:100CA000FE0048604FF41F0088607047CF49096814
:100CB00021F48031CD4A11601146096821F4802168
:100CC0001160B0F5803F03D0B0F5802F0ED106E063
:100CD000C649096841F48031C44A116007E0C3493C
:100CE000096841F4A021C14A116000E000BF00BFC3
:100CF000704710B501460022002300204A11012A46
:100D000002D1BA4C236806E0022A02D1B74C236A0A
:100D100001E0B64C636A01F01F02012494401C40BC
:100D20000CB1012000E0002010BD38B5002000907B
:100D30000024002500BF3120FFF7DBFF05460098A7
:100D4000401C00900098B0F5A06F01D0002DF2D0AB
:100D50003120FFF7CEFF08B1012400E00024204637
:100D600038BD01460020A14A106820F0F80040EA92
:100D7000C10010607047A04908607047024600201B
:100D80009A4B586820F47C1042EA01031843974BB1
:100D90005860704798490866704701460020934A9A
:100DA000506820F003000843506070478F48406847
:100DB00000F00C007047014600208C4A506820F07B
:100DC000F00008435060704701460020874A506891
:100DD00020F4E06008435060704701460020834AD9
:100DE000506820F4605040EAC1005060704729B15B
:100DF0007E4A527A02437D4B5A7204E07B4A527A11
:100E000082437A4B5A7270477B49D83108607047E9
:100E100001460020754A506820F440400843506065
:100E200070470021714A20321170704A82F82010F8
:100E3000012802D004280AD104E001216B4A2032A3
:100E4000117005E00521694A2032117000E000BFF1
:100E500000BF70476949086070476449096A0143E7
:100E6000624A11627047654944390860704730B57D
:100E700000210022002400235C4D6D6805F00C0168
:100E800021B1042905D0082923D105E05C4D056076
:100E900022E05B4D05601FE0544D6D6805F4701253
:100EA000524D6D6805F48034022505EB92421CB961
:100EB000544D554305600BE04C4D6D6805F400350D
:100EC0001DB1504D5543056002E04D4D5543056041
:100ED00002E04B4D056000BF00BF444D6D6805F05A
:100EE000F0010909484D6B5C0568DD4045603F4DE8
:100EF0006D6805F4E061090A434D6B5C4568DD40AF
:100F000085603A4D6D6805F46051C90A3E4D6B5CD1
:100F10004568DD40C560354D6D6805F44041890B7D
:100F20003A4D6B5CC568B5FBF3F5056130BD29B181
:100F30002E4A526902432D4B5A6104E02B4A5269F2
:100F400082432A4B5A61704729B1284A9269024369
:100F5000264B9A6104E0254A92698243234B9A61A9
:100F6000704729B1214AD2690243204BDA6104E07B
:100F70001E4AD26982431D4BDA61704729B11B4A70
:100F8000D2680243194BDA6004E0184AD2688243FF
:100F9000164BDA60704729B1144A12690243134BA9
:100FA0001A6104E0114A12698243104B1A617047BA
:100FB00012494039086070470F49C86470470B49AF
:100FC000C87170470948406A40F08070074948621C
:100FD000704701460020054A92680A400AB1012084
:100FE00000E00020704701498872704700100240FD
:100FF0000000FFF8FFFFF6FE00004242800442427C
:1010000000127A0000093D0018000020280000208E
:1010100029B1504A128802434E4B1A8004E04D4ACF
:10102000128882434B4B1A8070474A48001D008843
:1010300040F010004749091D088070474548001DD1
:1010400000884FF6EF7108404249091D088070473B
:10105000002140481C300188001F008841EA004000
:10106000704700B50246FFF7E0FF100C3949183110
:101070000880091D0A80FFF7E1FF00BD00B50246A8
:10108000FFF7D3FFC2F30340324908310880091D3E
:101090000A80FFF7D3FF00BD00B50246FFF7C5FF8A
:1010A000100C2C4920310880091D0A80FFF7C6FF6B
:1010B00000BD00202749103109880907080B254980
:1010C000143109880843704700BF2248001D00887A
:1010D00000F020000028F8D070471E48001D00884E
:1010E0004FF6F77108401B49091D088000BF1948D9
:1010F000001D008800F008000028F8D07047014665
:101100000020144A121D12880A400AB1012000E092
:10111000002070470F49091D098881430D4A121D9F
:1011200011807047014600200A4A121D12880A40A9
:10113000D0B2084A12880A4012B108B1012000E07A
:10114000002070470349091D09888143014A121D87
:10115000118070470028004010B50446FE488442C4
:1011600008D10121C014FFF709FF0021E014FFF7A7
:1011700005FFC4E0B4F1804F08D101210846FFF714
:101180000AFF00210120FFF706FFB8E0F348844280
:1011900008D101210220FFF7FEFE00210220FFF707
:1011A000FAFEACE0EE48844208D101210420FFF7AA
:1011B000F2FE00210420FFF7EEFEA0E0E9488442A1
:1011C00008D101210820FFF7E6FE00210820FFF7E3
:1011D000E2FE94E0E448844208D101211020FFF7A8
:1011E000DAFE00211020FFF7D6FE88E0DF488442B7
:1011F00008D101212020FFF7CEFE00212020FFF79B
:10120000CAFE7CE0DA48844208D101214014FFF78D
:10121000B5FE00216014FFF7B1FE70E0D5488442AE
:1012200009D10121C804FFF7A9FE00214FF40020D5
:10123000FFF7A4FE63E0D048844209D101210805EC
:10124000FFF79CFE00214FF48010FFF797FE56E059
:10125000CA48844209D101214805FFF78FFE0021C9
:101260004FF40010FFF78AFE49E0C548844208D1D8
:1012700001214020FFF78FFE00214020FFF78BFE69
:101280003DE0C048844208D101218020FFF783FE61
:1012900000218020FFF77FFE31E0BB48844208D167
:1012A00001218015FFF777FE0021A015FFF773FEDF
:1012B00025E0B648844209D101210804FFF75EFE0B
:1012C00000214FF48030FFF759FE18E0B048844207
:1012D00009D101214804FFF751FE00214FF40030ED
:1012E000FFF74CFE0BE0AB48844208D10121880493
:1012F000FFF744FE00214FF48020FFF73FFE10BDB2
:1013000000220288944B98420ED0994B98420BD001
:10131000B0F1804F08D0914B984205D0904B984245
:1013200002D0904B984204D14FF68F731A404B88ED
:101330001A438D4B984207D08C4B984204D04FF6FD
:10134000FF431A40CB881A4302808B8883850B8821
:101350000385814B98420BD0854B984208D08B4B2C
:10136000984205D08A4B984202D08A4B984201D1CC
:101370000B7A038601238382704770B50024002214
:101380000023058C4FF6FE7635400584028C838859
:10139000048B4FF68F752C40B51E2C400D882C43C6
:1013A000751E2A400D892A434D882A436A4DA8425A
:1013B0000BD06F4DA84208D0744DA84205D0744D93
:1013C000A84202D0734DA84213D14FF6F7752A40B8
:1013D0004D892A434FF6FB752A408D882A434FF6E4
:1013E000FF652B404FF6FF552B408D892B43CD8950
:1013F0002B4383800483CD888586028470BD70B5BD
:10140000002400220023058C4FF6EF76354005843A
:10141000028C8388048B48F6FF752C404FF6FF45FD
:101420002C400D884FF6FF7606EA05252C434FF633
:10143000DF752A400D8906EA05152A434D8806EA1C
:1014400005152A43444DA84202D0494DA8421DD15A
:101450004FF67F752A404D894FF6FF7606EA05154F
:101460002A434FF6BF752A408D8806EA05152A43A0
:101470004FF6FF352B404FF2FF752B408D8906EA62
:1014800085052B43CD8906EA85052B43838004839C
:10149000CD880587028470BD70B50024002200232A
:1014A000058C4FF6FF6635400584028C8388848B5B
:1014B0004FF68F752C404FF6FC752C400D882C4351
:1014C0004FF6FF552A400D894FF6FF7606EA0525AF
:1014D0002A434D8806EA05252A431F4DA84202D01B
:1014E000234DA8421DD14FF2FF752A404D894FF67A
:1014F000FF7606EA05252A434FF6FF352A408D88F8
:1015000006EA05252A434EF6FF752B404DF6FF757A
:101510002B408D8906EA05152B43CD8906EA051572
:101520002B4383808483CD888587028470BD70B50A
:10153000002200230024058C4EF6FF7635400584FA
:10154000038C8488828B48F6FF752A404FF6FF454E
:101550002A400D8820E00000002C014000040040DB
:1015600000080040000C0040001000400014004043
:1015700000340140004C0140005001400054014043
:1015800000180040001C00400020004000400140C6
:1015900000440140004801404FF6FF7606EA052569
:1015A0002A434DF6FF752B400D8906EA05352B437E
:1015B0004D8806EA05352B43FA4DA84202D0FA4D74
:1015C000A84208D14BF6FF752C408D894FF6FF7667
:1015D00006EA85152C4384808283CD88A0F840508C
:1015E000038470BD828B4FF2FF331A408283828B5B
:1015F0004FF6FF7303EA01231A4382837047F0B565
:101600000C461546002200210026078C4EF6FF7C72
:1016100007EA0C070784828B018C4FF6FF7707EAF5
:10162000043640F6FF473A404FF6FF7707EA0527B2
:101630003A434FF6FF7707EA03373A43D94FB842A8
:101640000ED0D94FB8420BD0B0F1804F08D0D74F51
:10165000B84205D0D64FB84202D0D64FB84206D1D4
:101660004DF6FF77394046F48057394305E047F699
:10167000FF57394044F48057394382830184F0BDD9
:10168000828B4FF6F3731A408283828B0A438283E4
:101690007047F0B50C461546002200210026078C45
:1016A0004FF6FF6C07EA0C070784828B018C4FF61C
:1016B000FF7707EA04264FF60C773A404FF6FF779C
:1016C00007EA03172F433A43B64FB8420ED0B64F3E
:1016D000B8420BD0B0F1804F08D0B44FB84205D01B
:1016E000B34FB84202D0B34FB84206D14FF6FF57BE
:1016F000394046F48077394305E04FF2FF573940CF
:1017000044F48077394382830184F0BD028B4FF229
:10171000FF331A400283028B4FF6FF7303EA012363
:101720001A4302837047F0B50C461546002200218B
:101730000026078C4FF6EF7C07EA0C070784028B24
:10174000018C4FF6FF7707EA041640F6FF473A4050
:101750004FF6FF7707EA03373A434FF6FF7707EA7A
:1017600005273A438F4FB8420ED08F4FB8420BD067
:10177000B0F1804F08D08D4FB84205D08C4FB842A1
:1017800002D08C4FB84206D14FF6DF77394046F091
:101790001007394305E04FF65F77394044F01007F2
:1017A000394302830184F0BD028B4FF6F3731A4074
:1017B0000283028B0A4302837047F0B50C4615463C
:1017C00000220021068C4FF6FE773E400684028BF5
:1017D000018C4FF60C7632407E1C06EA03162E432F
:1017E0003243704EB0420ED06F4EB0420BD0B0F1CB
:1017F000804F08D06D4EB04205D06D4EB04202D041
:101800006C4EB04206D14FF6FD76314044F00106F1
:10181000314305E04FF6F576314044F0010631439F
:1018200002830184F0BD70B505460C465D488542D3
:101830000ED05D4885420BD0B5F1804F08D05B4893
:10184000854205D05A48854202D05A48854200D187
:1018500000E000BF208850B92389A288618828460B
:10186000FFF7ABFFE1882846FFF79EFF25E02088C1
:1018700004280AD12389A28861882846FFF753FFEC
:10188000E1882846FFF742FF17E0208808280AD1A0
:101890002389A28861882846FFF7FBFEE188284655
:1018A000FFF7EEFE09E02389A28861882846FFF74A
:1018B000A6FEE1882846FFF795FE70BD2DE9F041B0
:1018C00005460C4600260127608808B9022600E07C
:1018D0000026A088012801D1022700E001272088E6
:1018E000A0B92389A28861882846FFF766FFE188AE
:1018F0002846FFF759FF23893A4631462846FFF725
:1019000012FFE1882846FFF701FF13E02389A28830
:1019100061882846FFF707FFE1882846FFF7F6FEB3
:1019200023893A4631462846FFF747FFE188284693
:10193000FFF73AFFBDE8F0810A884B881A438B888D
:101940001A43CB881A430B891A434B891A438B8954
:101950001A43A0F8442070474FF6FF7181800021A0
:101960000180C18041800172704700210180418067
:101970008180C180018141818181C18170470021C5
:1019800001804180012181800021C1800181704757
:101990000021018041808180C1800181418181815C
:1019A00070470000002C014000340140000400405A
:1019B00000080040000C004021B1028842F0010202
:1019C000028004E002884FF6FE731A4002807047DE
:1019D00031B1B0F8442042F40042A0F8442005E0C0
:1019E000B0F84420C2F30E02A0F8442070471AB1A8
:1019F00083890B43838102E083898B438381704712
:101A00008182704741EA0203A0F8483070471AB15A
:101A100083890B43838102E083898B4383817047F1
:101A200001894FF6F8721140018170470A46002182
:101A300001894FF68F73194011430181704730B50A
:101A400004460D4629462046FFF7F0FF208940F066
:101A50000700208130BD2DE9F04104460D461646B1
:101A60001F46602D06D13B46012231462046FFF736
:101A70005AFE05E03B46012231462046FFF79DFE17
:101A800029462046FFF7D2FF208940F00700208139
:101A9000BDE8F08130B50C4600210189C9B24FF68E
:101AA000FF7505EA0325154325432943018130BD10
:101AB0002DE9F04105460E46174698460024434658
:101AC0003A4631462846FFF7E5FF2C894FF6F87075
:101AD000044044F007044FF68F70044044F0700453
:101AE0002C81BDE8F081F0B504460D4616461F4630
:101AF0003B46324629462046FFF7CCFF208940F47A
:101B000080402081F0BD0185828270470A46002115
:101B100001884FF68F731940114301807047F0B56B
:101B20000C4615461E460021002200230189028B27
:101B3000038C4FF6F877394021434FF6FC473A4083
:101B400040F201173A434FF6DD773B404FF6FF77FF
:101B500007EA06172F433B43018102830384F0BD4C
:101B60000A460021018B4FF68F7319401143018300
:101B700070470A460021018B48F6FF7319404FF663
:101B8000FF7303EA02231943018370470A460021C9
:101B9000818B4FF68F7319401143818370470A463A
:101BA0000021818B48F6FF7319404FF6FF7303EA5B
:101BB000022319438183704721B1028842F08002D9
:101BC000028004E002884FF67F731A40028070475B
:101BD00021B1828842F00402828004E082884FF6BC
:101BE000FB731A408280704721B1828842F008025C
:101BF000828004E082884FF6F7731A408280704733
:101C000021B1828842F00102828004E082884FF68E
:101C1000FE731A40828070470A460021018B4FF6FE
:101C2000F77319401143018370470A460021018B65
:101C30004FF2FF7319404FF6FF7303EA0223194373
:101C4000018370470A460021818B4FF6F7731940D4
:101C50001143818370470A460021818B4FF2FF7345
:101C600019404FF6FF7303EA02231943818370473B
:101C70000A460021018B4FF6FB7319401143018383
:101C800070470A460021018B4FF6FF3319404FF68B
:101C9000FF7303EA02231943018370470A460021B8
:101CA000818B4FF6FB7319401143818370470A46BD
:101CB0000021818B4FF6FF3319404FF6FF7303EA83
:101CC00002231943818370470A460021018B4FF696
:101CD0007F7319401143018370470A460021018B2D
:101CE000C1F30E014FF6FF7303EA02231943018388
:101CF00070470A460021818B4FF67F7319401143CC
:101D0000818370470A460021818BC1F30E014FF693
:101D1000FF7303EA02231943818370470A460021B7
:101D2000018C4FF6FD7319401143018470470A4638
:101D30000021018C4FF6F77319401143018470475D
:101D40000A460021018C4FF6DF7319404FF6FF73EE
:101D500003EA02131943018470470A460021018CEB
:101D60004FF67F7319404FF6FF7303EA02131943CE
:101D7000018470470A460021018C4FF6FF53194039
:101D80004FF6FF7303EA02231943018470470A46A2
:101D90000021018C4FF2FF7319404FF6FF7303EAE5
:101DA00002231943018470470A460021018C4DF635
:101DB000FF7319404FF6FF7303EA0233194301849E
:101DC000704730B5002301248C40A3B2048C9C439F
:101DD0000484048C02FA01F5ADB22C43048430BDB6
:101DE00030B5002304248C40A3B2048C9C430484AB
:101DF000048C02FA01F5ADB22C43048430BD70B5F9
:101E00000346002000241846183001258D40ACB24E
:101E10001D8CA5431D8409B1082909D100EB61007F
:101E2000056825F0700505600568154305600EE03E
:101E30000D1FC5F34E052844056825F4E0450560EF
:101E400005684FF6FF7606EA02263543056070BD49
:101E500021B1028842F00202028004E002884FF6BB
:101E6000FD731A400280704721B1028842F00402DB
:101E7000028004E002884FF6FB731A40028070472C
:101E800021B1828842F08002828004E082884FF68D
:101E90007F731A408280704702884FF6F7731A40AA
:101EA000028002880A430280704782884FF68F734F
:101EB0001A40828082880A438280704702894FF6E6
:101EC000F8731A40028102890A430281704702892D
:101ED0004FF67F731A40028102890A4302817047DC
:101EE000818470478185704781867047018770477C
:101EF00081877047A0F84010704702884FF6FF4373
:101F00001A40028002880A43028070470146888E88
:101F100070470146088F70470146888F7047014619
:101F2000B1F8400070470146888C70470146088D23
:101F3000704702460020138A0B400BB1012000E0DD
:101F400000207047CA430282704730B50246002025
:101F500000230024158A05EA0103958905EA010496
:101F600013B10CB1012000E0002030BDCA43028251
:101F70007047000010B50446FB48844209D1012196
:101F80008803FEF7FBFF00214FF48040FEF7F6FFC9
:101F900032E0F648844209D101214804FEF7FBFFF4
:101FA00000214FF40030FEF7F6FF25E0F0488442B0
:101FB00009D101218804FEF7EEFF00214FF48020B3
:101FC000FEF7E9FF18E0EB48844209D10121C8047B
:101FD000FEF7E1FF00214FF40020FEF7DCFF0BE0ED
:101FE000E548844208D101210805FEF7D4FF00210D
:101FF0004FF48010FEF7CFFF10BD2DE9F04786B0FB
:1020000005460E460024A24600BFA1460027B0891F
:1020100000B100BF2F462C8A4CF6FF700440F088B8
:1020200004432C82AC894EF6F3100440B088318909
:102030000843718908430443AC81AC8A4FF6FF40E2
:102040000440B0890443AC8201A8FEF710FFC648E3
:10205000874202D1DDF810A001E0DDF80CA0A889CC
:1020600000F4004040B10AEBCA0000EB0A103168EE
:102070004900B0FBF1F807E00AEBCA0000EB0A10D8
:1020800031688900B0FBF1F86420B8FBF0F004017E
:102090002009642101FB1089A88900F4004040B1A7
:1020A000322000EBC900B0FBF1F000F00700044360
:1020B00008E0322000EB09106421B0FBF1F000F0E1
:1020C0000F0004432C8106B0BDE8F0874FF4165191
:1020D000016000218180C18001810C2141810021AA
:1020E0008181704710B502460020108A4FF2FF032D
:1020F00018400B884C8823438C882343CC88234387
:102100001843108210BD0021018041808180C18070
:10211000704721B1828942F40052828104E08289B1
:102120004DF6FF731A4082817047F0B503460024D4
:1021300000260025002040F66A17B94200D100BFF2
:102140001846C1F3421401F01F06012707FA06F5ED
:10215000012C01D10C3004E0022C01D1103000E040
:1021600014301AB107682F43076002E00768AF43D5
:102170000760F0BD1AB1838A0B43838202E0838A31
:102180008B4383827047028A4FF6F0731A400282B3
:10219000028A0A430282704782894FF2FF731A4013
:1021A000828182890A438281704721B1828942F00B
:1021B0000202828104E082894FF6FD731A40828117
:1021C0007047028A4FF6DF731A400282028A0A437E
:1021D0000282704721B1028A42F48042028204E006
:1021E000028A4BF6FF731A4002827047C1F308025D
:1021F0008280704701468888C0F308007047818953
:1022000041F0010181817047028BD2B20283028BBF
:1022100042EA012202837047028B02F47F4202836A
:10222000028B0A430283704721B1828A42F0200266
:10223000828204E0828A4FF6DF731A4082827047FE
:1022400021B1828A42F01002828204E0828A4FF633
:10225000EF731A408282704721B1828A42F00802ED
:10226000828204E0828A4FF6F7731A4082827047B6
:1022700021B1828942F40042828103E08289C2F363
:102280000E028281704721B1828A42F4006282820A
:1022900004E0828A4FF2FF731A4082827047828A7A
:1022A0004FF6FB731A408282828A0A438282704709
:1022B00021B1828A42F00202828204E0828A4FF6D1
:1022C000FD731A408282704702460020B1F5007FFC
:1022D00000D100BF13880B400BB1012000E00020AB
:1022E000704701F40072B2F5007F00D100BFCA430D
:1022F0000280704770B502460024002300250020AC
:1023000040F66A16B14200D100BFC1F3421501F098
:102310001F03012606FA03F3012D02D196893340EB
:1023200006E0022D02D1168A334001E0968A33403E
:102330000C12012606FA04F41688344013B10CB1CD
:10234000012000E0002070BD10B50022002340F6FF
:102350006A14A14200D100BF0A1201249440A3B222
:10236000DC43048010BD0000003801400044004000
:1023700000480040004C00400050004030B5354857
:1023800000684FF47A72B0FBF2F1B1F1807F01D3B3
:1023900001201DE021F07F40401E4FF0E0225061FF
:1023A00050170F22002807DA13071D0E2A4B00F0E2
:1023B0000F04241F1D5503E013071C0E274B1C544C
:1023C00000BF00204FF0E022906107201061002044
:1023D00008B100BFFEE730BD0146214A12784A43EA
:1023E0004FF0E0235A6100229A611A46126942F0C6
:1023F00001021A6100BF4FF0E022106900F00102F3
:102400001AB100F48032002AF5D04FF0E0221269B0
:1024100022F001024FF0E0231A6100229A61704716
:10242000104908604FF0E021096941F001014FF0C7
:10243000E022116100BF0B4909680029FBD17047F8
:102440000848006820B107480068401E0549086038
:10245000704700000400002018ED00E000E400E0F8
:102460002C000020300000202DE9F04104460D46EC
:1024700090461E4601273DB10A21F94802F092FD1F
:102480002946F74802F0F7FCFF2C0AD800BFF548B0
:10249000008800F040000028F9D0F249091D0C80A6
:1024A00003E02146F0A001F075FABDB1B6B111E02C
:1024B0000A20FFF7B5FFEA48403890F8540000F0D2
:1024C000010038B100270020E549403981F8540067
:1024D000487002E0701E061EEAD100BF3846BDE813
:1024E000F08170B50325032413E0C8230022E0A186
:1024F000E0A0FFF7B9FF0446032C04D14FF4FA60C3
:10250000FFF78EFF03E00CB1012C00D103E0681E41
:10251000C5B2002DE9D100BF4FF4FA60FFF780FF8C
:10252000204670BD2DE9F041002500270326032435
:102530001DE0C8230022D1A1D2A0FFF795FF0446D9
:10254000032C04D14FF4FA60FFF76AFF0DE04CB999
:10255000CFA1C348153002F07CFC00B909E0FFF7B9
:10256000C0FF02E0012C00D103E0701EC6B2002EB5
:10257000DFD100BFD4B9BA4F1537C7480021016079
:1025800041600181817200250AE007F10D00405D84
:10259000C2494855B248123802F06DFC681CC5B2F9
:1025A0000B2DF2DBBD49BEA001F039F92046BDE894
:1025B000F08170B50325032413E064230022ACA14D
:1025C000BBA0FFF751FF0446032C04D14FF4FA607F
:1025D000FFF726FF03E00CB1012C00D103E0681ED9
:1025E000C5B2002DE9D100BF204670BD70B51425DD
:1025F000032414E04FF4FA730022AEA1B0A0FFF759
:1026000033FF0446032C04D14FF4FA60FFF708FFB0
:1026100003E00CB1012C00D103E0681EC5B2002D0F
:10262000E8D100BF204670BD70B50325032442F2F7
:102630001070FFF7F5FE14E04FF47A7300228CA1BE
:10264000A2A0FFF711FF0446032C04D14FF4FA6057
:10265000FFF7E6FE03E00CB1012C00D103E0681E99
:10266000C5B2002DE8D100BF4FF4FA60FFF7D8FEE5
:10267000204670BD70B50325032414E04FF4FA73AF
:10268000002295A196A0FFF7EFFE0446032C04D18B
:102690004FF4FA60FFF7C4FE03E00CB1012C00D147
:1026A00003E0681EC5B2002DE8D100BF204670BD12
:1026B0002DE9F0418EB00326032400274FF00008D7
:1026C000342101A802F06EFC00253CE04FF4FA60D2
:1026D000FFF7A6FEC823002284A186A0FFF7C4FE50
:1026E0000446032C04D14FF4FA60FFF799FE07E08B
:1026F0000CB1012C04D1012059494039487026E021
:10270000FCB97BA15648153002F0A3FB07467BA11C
:10271000384602F09EFB8046002088F80000B81C76
:1027200002F08AFBC5B21DB901204D4940394870FD
:102730002A4673A101A802F019FA01A94AA001F0E2
:102740006EF8701EC6B2052D01DA002EBED100BF94
:1027500020460EB0BDE8F0812DE9F04100250027AC
:10276000032603241DE0C823002241A167A0FFF730
:102770007BFE0446032C04D14FF4FA60FFF750FEB1
:102780000DE04CB961A13648153002F062FB00B98A
:1027900009E0FFF7A6FE02E0012C00D103E0701E65
:1027A000C6B2002EDFD100BF9CB92D4F15371521C1
:1027B000394802F0D5FB002505E0B81C405D3649DC
:1027C0004855681CC5B2142DF7DB334951A001F000
:1027D00026F82046BDE8F0812DE9F0419AB0054683
:1027E0000E4617464FF003080324642101A802F0A7
:1027F000D9FB4C48009750F8252033464AA101A840
:1028000002F0B4F9C5E043F6982300224DA101A8D7
:10281000FFF72AFE0446032C04D14FF4FA60FFF7B9
:10282000FFFD03E00CB1012C00D1B6E0A8F10100DE
:1028300000F0FF084FF4FA7300220DA143A0FFF748
:1028400013FE04464CB945A10548153002F001FBC2
:1028500020B120461AB0BDE8F0819AE084E0000083
:102860009C0100200048004025730D0A0000000074
:102870004F4B00004154453000000000434E554D81
:10288000000000002041542B434E554D0000000035
:1028900041542B434E554D00A60C0020BB0C00208C
:1028A0004E756D6265725F4255463A25730D0A009A
:1028B000415400002B435245473A20302C31000050
:1028C00041542B435245473F0000000041542B43E5
:1028D00050494E3F000000004348494E410000006F
:1028E00041542B434F50533F000000002B435351A2
:1028F0003A00000041542B43535100002C000000CB
:10290000D0C5BAC5D6CAC1BF3A25640041542B43CD
:102910004349440049434349445F4255463A25737D
:102920000D0A00003800002041542B4349505354F5
:102930004152543D222573222C222573222C22251C
:1029400073220000434F4E4E4543540041542B43E5
:10295000495053544154555300000000434F4E4ECC
:10296000454354204F4B0000F6A1F84802F071FA9D
:1029700078B14FF4FA730022F5A1F8A0FFF774FDC7
:1029800004464FF4FA730022F8A1FAA0FFF76CFD99
:102990000446B8F1000F7FF436AF00BF20461AB0EE
:1029A000BDE8F08110B50324F5480268F5480168D8
:1029B0000020FFF711FF041E02D1E4495539887049
:1029C000204610BD70B50325032414E04FF4FA73BC
:1029D0000022DFA1E1A0FFF747FD0446032C04D14C
:1029E0004FF4FA60FFF71CFD03E00CB1012C00D19D
:1029F00003E0681EC5B2002DE8D100BF204670BDBF
:102A000070B50325032415E04FF47A730022AFF26A
:102A1000A011DDA0FFF728FD0446032C04D14FF4DC
:102A2000FA60FFF7FDFC03E00CB1012C00D103E0DC
:102A3000681EC5B2002DE7D100BF4FF4FA60FFF762
:102A4000EFFC204670BD70B50325032415E04FF45C
:102A500016730022AFF2E811CEA0FFF705FD044681
:102A6000032C04D14FF4FA60FFF7DAFC03E00CB159
:102A7000012C00D103E0681EC5B2002DE7D100BFD4
:102A80004FF4FA60FFF7CCFC204670BD70B503250B
:102A9000032415E04FF496730022AFF22C21C2A05C
:102AA000FFF7E2FC0446032C04D14FF4FA60FFF771
:102AB000B7FC03E00CB1012C00D103E0681EC5B2E5
:102AC000002DE7D100BF204670BD70B5032503245B
:102AD00014E04FF47A730022A4A1A6A0FFF7C4FC6F
:102AE0000446032C04D14FF4FA60FFF799FC03E08D
:102AF0000CB1012C00D103E0681EC5B2002DE8D155
:102B000000BF4FF4FA60FFF78BFC204670BD70B534
:102B10000325032415E04FF496730022AFF2B02191
:102B2000A5A0FFF7A1FC0446032C04D14FF4FA60E2
:102B3000FFF776FC03E00CB1012C00D103E0681E26
:102B4000C5B2002DE7D100BF4FF4FA60FFF768FC73
:102B5000204670BD70B50325032415E04FF41673AD
:102B60000022AFF2F42198A0FFF77EFC0446032C6C
:102B700004D14FF4FA60FFF753FC03E00CB1012CD1
:102B800000D103E0681EC5B2002DE7D100BF4FF4AD
:102B9000FA60FFF745FC204670BD10B50324C8233A
:102BA0000022AFF234318FA0FFF75EFC04462046CE
:102BB00010BD10B50324C8230022AFF24C3191A000
:102BC000FFF752FC0446204610BD10B50324C8236D
:102BD0000022AFF2643192A0FFF746FC0446204683
:102BE00010BD10B50324C8230022AFF27C3190A0A1
:102BF000FFF73AFC0446204610BD10B50324C82355
:102C0000002293A195A0FFF72FFC0446204610BD9B
:102C100010B50324C8230022AFF2AC3191A0FFF716
:102C200023FC0446204610BD10B50324C82300220F
:102C3000AFF2C4317AA0FFF717FC0446204610BD5E
:102C400010B50324C82300228AA18CA0FFF70CFC36
:102C50000446204610BD70B5054603248BA000F045
:102C6000DEFD00203949553981F854000A213748E2
:102C7000153802F097F93221894802F071F94FF4C2
:102C8000FA73002287A188A0FFF7EEFB04467CB907
:102C9000294688A000F07EFE6420FFF7C1FB40F6C5
:102CA000B833002284A11A20FFF7DEFB04460BE0B4
:102CB0000120264955394870214681A000F0AFFD1A
:102CC00001218548FEF778FE214684A000F0A7FD8B
:102CD000204670BD70B50325032415E04FF47A73C8
:102CE0000022AFF2744183A0FFF7BEFB0446032C21
:102CF00004D14FF4FA60FFF793FB03E00CB1012C11
:102D000000D103E0681EC5B2002DE7D100BF4FF42B
:102D1000FA60FFF785FB204670BD70B503250324DC
:102D2000FEE0C8230022AFF2B84175A0FFF79CFB7C
:102D30000446032C04D14FF4FA60FFF771FBEDE079
:102D4000E8E00000434C4F5345440000B10100202F
:102D5000434C4F5345204F4B0000000041542B4340
:102D60004950434C4F53453D3100000053485554A2
:102D7000204F4B0041542B434950534855540000B9
:102D8000440000204000002041542B43474154544C
:102D90003D31000041542B434950435347503D318E
:102DA0002C22434D2200000041542B4349504845FA
:102DB00041443D310000000041542B4347434C4106
:102DC00053533D224222000041542B434744434F7A
:102DD0004E543D312C224950222C22434D4E455415
:102DE0002200000041542B53415042523D332C31BC
:102DF0002C22436F6E74797065222C2247505253F7
:102E00002200000041542B53415042523D332C319B
:102E10002C2241504E222C22434D4E45542200007C
:102E200041542B53415042523D312C31000000009F
:102E300041542B434E54503D226E7470312E616CC0
:102E40006979756E2E636F6D222C3332000000009D
:102E50002B434E54503A20310000000041542B4384
:102E60004E54500041542B53415042523D302C316E
:102E700000000000302E302E302E300041542B53F5
:102E8000415042523D322C3100000000D7BCB1B855
:102E9000BFAACABCB7A2CBCDCAFDBEDD0D0A0000D9
:102EA000120D00203E00000041542B434950534571
:102EB0004E4400002573000053454E44204F4B0004
:102EC000B7A2CBCDCAA7B0DCA3ACD7B4CCAC3A2068
:102ED00025640D0A00000000000C0040D2D1CDEAAC
:102EE000B3C9D2BBB4CEB7A2CBCD3A2025640D0A6C
:102EF0000000000041542B434D47463D3100000087
:102F000041542B43534D503D31372C3136372C3003
:102F10002C3000000CB1012C00D104E0681EC5B2B9
:102F2000002D7FF4FEAE00BF4FF4FA60FFF778FA91
:102F3000204670BD70B50325032414E0C823002289
:102F4000AFF2D461F9A0FFF78FFA0446032C04D145
:102F50004FF4FA60FFF764FA03E00CB1012C00D1E2
:102F600003E0681EC5B2002DE8D100BF4FF4FA603F
:102F7000FFF756FA204670BD30B587B005460C46BF
:102F8000EE48A0F11801C968A0F118029278CDE9C5
:102F90000414039206901838C088E8491839096962
:102FA000E64A183A5269CDE900210290E348183800
:102FB00003780279E249284601F0D8FD284607B097
:102FC00030BD70B59AB004460D460326642101A8B1
:102FD00001F0E8FFFFF7EDFA061E35D1FFF781FAA1
:102FE000061E31D1FFF720FB061E2DD1FFF7A2FFF1
:102FF000002829D1FFF76EFE061E25D1FFF78DFEB2
:10300000061E21D12246CFA101A801F0AFFDC823A1
:103010000022AFF2701101A8FFF726FAA0B92946E5
:10302000CCA000F0FCFB2946AFF2781000F0B2FC17
:103030004FF4FA70FFF7F4F94FF4FA630022C8A1D5
:103040001A20FFF711FA064630461AB070BD10B5C7
:103050000324FFF7AEFA041E02D00120C2494870D3
:10306000FFF73FFA041E02D00120BF494870FFF766
:10307000BDFA041E02D00120BB494870FFF7D4FA04
:10308000041E02D00120B8494870FFF711FB041E4E
:1030900002D00120B4494870FFF75EFB041E02D045
:1030A0000120B1494870FFF710FD041E02D0012035
:1030B000AD494870FFF72BFD041E02D00120AA493C
:1030C0004870FFF747FD041E02D00120A649487052
:1030D000A6480268A64801680020FFF77DFB041E91
:1030E00002D00120A049487000209F49087010BDFF
:1030F00070B50525032406E0FFF7A9FF044604B9CF
:1031000003E0681EC5B2002DF6D100BF204670BD99
:1031100070B50525032406E0FFF7EAFF044604B96D
:1031200003E0681EC5B2002DF6D100BF204670BD79
:1031300010B502460B46002000211078012103E063
:10314000545C60404C1CE1B29942F9DB10BD10B5F3
:103150000324884A854801688548006800F026FAFB
:103160008548FFF778FD0446204610BD7CB5002455
:103170000025FFF7B6F9041E1ED1FFF70EFD041E51
:103180001AD1FFF716FD041E16D1FFF759FD08B935
:10319000012000E00020041E0ED0C8230022AFF65C
:1031A000301176A0FFF760F9C8230022AFF6401176
:1031B000AFF29430FFF758F9FFF713FD041E64D106
:1031C000FFF71BFD041E60D1C82300226FA171A070
:1031D000FFF74AF9002858D1634890F8600030386A
:1031E000614991F85F10303901EB810100EB41003A
:1031F00000F5FA606A4988805B4890F863003038CF
:10320000594991F86210303901EB810100EB41001E
:1032100063498871544890F866003038524991F8F3
:103220006510303901EB810100EB41005C49C87148
:103230004D4890F8690030384B4991F868103039A2
:1032400001EB810100EB410055490870464890F8B8
:103250006C003038444991F86B10303901EB810132
:1032600000EB41004E4948703F4890F86F003038FD
:103270003D4991F86E10303901EB810100EB4100BE
:103280004749887047A000F0CAFA45488078444909
:103290004978434ECDE900103378F279B179B0889E
:1032A00000F053FF7CBD10B500244FF47A7336A2B2
:1032B000AFF644213EA0FFF7D7F80446204610BDE4
:1032C00010B500244FF47A732FA2AFF65C21AFF251
:1032D000DC30FFF7C9F80446204610BDF0B599B0C0
:1032E00005466421684601F05DFE00271E4C6C34E3
:1032F000204601F0E4FDC6B206E0701EC6B216B963
:10330000002019B0F0BD641C20782228F5D12C349F
:1033100005E014F8010B05F8010B701EC6B2207809
:103320000D28F6D1002028700120EAE741542B43F4
:103330005343533D2247534D22000000E00C002030
:103340009414030841542B434D47533D22257322C7
:103350000D0A0000534D533A2025730D0A0000005A
:103360002B434D47533A00005C01002044000020ED
:10337000400000202C0200201113002041542B4358
:103380004E54504349443D31000000002B43434C10
:103390004B3A000041542B43434C4B3F000000008C
:1033A000B8180020CAB1BCE4B8FCD0C20D0A0000B5
:1033B00041542B434E4D493D322C320001463029B9
:1033C00005DB392903DCA1F13000C0B27047412987
:1033D00005DB462903DCA1F13700C0B2F6E761291D
:1033E00005DB662903DCA1F15700C0B2EEE700203F
:1033F000ECE70146092903DC01F13000C0B2704757
:103400000A2905DB0F2903DC01F13700C0B2F6E71A
:103410003020F4E7F8B504460D461746002F33D0A8
:103420002EE02078812806DA2078012101F018FBAF
:103430000646641C0DE014F8010B8DF8010014F829
:10344000010B8DF80000BDF80000012101F008FB20
:103450000646300BFFF7CDFF05F8010BC6F303203E
:10346000FFF7C7FF05F8010BC6F30310FFF7C1FF15
:1034700005F8010B06F00F00FFF7BBFF05F8010B85
:1034800020780028CDD138E034E014F8010BFFF7A4
:1034900095FF0007000E8DF8010014F8010BFFF7EF
:1034A0008DFF9DF801100844C0B28DF8010014F89A
:1034B000010BFFF783FF0007000E8DF8000014F8E2
:1034C000010BFFF77BFF9DF800100844C0B28DF898
:1034D0000000BDF80000002101F0C2FA0646802E6F
:1034E00002DA2E706D1C05E03006000C40EA162052
:1034F0002880AD1C20780028C7D100202870F8BD96
:10350000F0B50446154600201EE0265C3211265C0C
:1035100006F00F033032392A03DDD61D01F81060A2
:1035200001E001F8102003F13006F3B2392B05DD7C
:10353000DE1D012707EB4007CE5503E0012606EB11
:1035400040068B55461C30B2A842DEDBF0BD00B50C
:1035500085B04D484D49D0F80C22FFF7D1FF4A48BD
:1035600080784006000E4A490870084602784749AC
:10357000891D484801F03DFD00F096FE4648C0799F
:1035800045498979444A5279434BDB78CDE9013288
:10359000CDE903104048807800903F4803883D4AB9
:1035A0003EA14B4801F0E2FA05B000BD70B58CB009
:1035B00005460E4614462C2246A101A801F09EFCA9
:1035C000314890F8020149F6414108444C490880CD
:1035D0004C4BA3F126024CA15648009401F0C6FAC8
:1035E000544A55A1554801F0C1FA0CB070BD70B5F0
:1035F0000024C82552480068284447F6FD718842D7
:1036000017DC00BF0AE0324A115D4D4A12681019FA
:1036100001F04FF90F20FEF703FF641CAC42F2DB10
:103620004748006828444649086046A000F0F7F87B
:1036300018E043480068284447F6FD71884211DDD0
:1036400064203F490860002407E0214A115D3C4A9C
:103650001268101901F02DF9641CAC42F5DB3DA095
:1036600000F0DDF870BD10B514210A4801F078FCB7
:103670004FF4BE71314801F073FC4FF4A0712D4836
:1036800001F06EFC10BD0000901600204C0F0020D1
:10369000560000204B1000204C0100206461746132
:1036A0003A222573222C0920200D0A2074696D65A9
:1036B0003A2225642E253032642E253032642025AE
:1036C0003032643A253032643A25303264220000C8
:1036D0002C020020436F6E74656E742D54797065F2
:1036E0003A6170706C69636174696F6E2F6A736F91
:1036F0006E2D70617463682B6A736F6E0D0A000023
:10370000540000208A0100207B0D0A206D6163684F
:10371000696E6569643A222573222C0D0A2073694B
:103720006D69643A222573222C0D0A25730D0A7DDA
:10373000000000000C0E0020257300001113002073
:1037400058000020D0B4C8EBD3A6BCB1726F6D0D89
:103750000A000000D0B4C2FAC1CB2CB4D3CDB7D08C
:10376000B40D0A0010B586B0044601214804FDF7E7
:10377000F8FB01210420FDF7E7FB0420ADF814005D
:1037800003208DF8160018208DF8170005A9384879
:10379000FDF7B8F80820ADF8140004208DF81700E4
:1037A00005A93348FDF7AEF826208DF80000032068
:1037B0008DF801008DF8020001208DF803006846A5
:1037C000FCF775FF01940020ADF80800ADF80A0081
:1037D000ADF80C00ADF810000C20ADF80E0001A9FA
:1037E0002448FEF70AFC012240F225512148FEF749
:1037F0009CFC01211F48FEF78CFC06B010BD70B583
:1038000004460D46E1B21C48FEF7F0FC00BF8021E3
:103810001948FEF759FD0028F9D0204670BD0FB4B5
:1038200010B5B4B0002437A80190C82102A8019BAC
:10383000369A01F081F90EE02046621CD4B202AA49
:10384000115C0C48FEF7D2FC00BF40210948FEF78E
:103850003BFD0028F9D0C72C03DA02A8005D002840
:10386000EAD10020019034B010BC5DF814FB0000D8
:1038700000080140004400400038014010B540F20B
:1038800025516048FEF736FD28B35E48FEF7B2FCCE
:10389000C4B25D48008800F40040E0B95A4800888E
:1038A000FF2812DC00215948FEF71AFB5648008811
:1038B00018B901215548FEF77FF853490888411C83
:1038C000514A118052490C5405E04F48008840F499
:1038D00000404D49088010BD10B586B00446012156
:1038E0000820FDF731FB01218804FDF73AFB45482C
:1038F000FEF740FB4FF48060ADF8100003208DF818
:10390000120018208DF8130004A94248FCF7FAFFB2
:103910004FF40060ADF8100004208DF8130004A9E6
:103920003C48FCF7EFFF00940020ADF80400ADF830
:103930000600ADF80800ADF80C000C20ADF80A0048
:1039400069463048FEF759FB01212E48FEF7E1FB9E
:10395000012240F225512B48FEF7E7FB27208DF886
:10396000140000208DF815008DF8160001208DF848
:10397000170005A8FCF79BFE40F65F11632000F0DE
:1039800045F900202049088000212048FEF714F85E
:1039900006B010BD0FB438B505A800904FF4807183
:1039A0001D4801F0DDFA1C48009A049901F0B2F8B4
:1039B00000200090184801F082FA85B2164917A03D
:1039C000FFF72DFF00240DE000BF40210D48FEF75A
:1039D0007BFC0028F9D01048015D0A48FEF706FC80
:1039E000601C84B2AC42EFDB38BC5DF814FB10B550
:1039F0004FF48071064801F0B3FA002002490880B4
:103A000010BD0000004800403201002000140040BA
:103A10008D140020000C01408D150020533A202504
:103A2000730D0A0010B50121A348FEF78EFA00B30A
:103A30000121A148FEF79AFAA0480068401C9F495E
:103A400008609F480068401C9D4908609D48806E42
:103A50009A490968884203D101209A49087008E010
:103A60009848806E95490968884202DA0020934997
:103A7000086010BD2DE9F041002400250026002734
:103A800001219148FEF761FA002863D001218E4898
:103A9000FEF76CFA8D48008840F400408B4908809E
:103AA00000218948FDF788FF002088490988C1F373
:103AB0000E01874A5054114686A0FFF7B0FE89A137
:103AC000834801F0C6F948B988A1814801F0C1F9DD
:103AD00020B989A17E4801F0BCF918B101207949CB
:103AE000887037E088A17748403001F0B2F938B1EA
:103AF00086A1774801F0ADF910B1012071498870B5
:103B000070494031724801F0A4F960B16D485530F8
:103B100000210160416001816D4901F0ACF9012093
:103B2000684981F854007BA1694801F092F978B1A5
:103B3000642164486C3001F035FA654961486C30A5
:103B400001F099F901205F4981F8540003200870C1
:103B5000FFF74DFFBDE8F08110B501216F48FEF77A
:103B6000F4F948B301216D48FEF700FA6C4800688B
:103B7000782805DA6A480068401C694908601BE03B
:103B80005048406E66490968884215DC65480068FF
:103B9000401C6449086000206149086001204949CF
:103BA000887061A0FFF73BFE00215C48FEF798F9A2
:103BB00000215A48FDF700FF10BD7FB505460C46B1
:103BC00001211020FDF7CDF9ADF80450ADF800400B
:103BD0000020ADF80600ADF8020069463648FDF752
:103BE0008FFB012211463448FDF701FF36208DF886
:103BF0000C0002208DF80D0000208DF80E00012031
:103C00008DF80F0003A8FCF752FD7FBD7FB5054678
:103C10000C4601212020FDF7A4F9ADF80450ADF8C1
:103C200000400020ADF80600ADF8020069462648C5
:103C3000FDF766FB012211462348FDF7D8FE01215E
:103C40002148FDF7B9FE37208DF80C0002208DF8D1
:103C50000D0000208DF80E0001208DF80F0003A844
:103C6000FCF725FD7FBD7FB505460C4601210820E8
:103C7000FDF777F9ADF80450ADF800400020ADF83D
:103C80000600ADF8020069462448FDF739FB012221
:103C900011462248FDF7ABFE32208DF80C000320C0
:103CA0008DF80D0001208DF80E008DF80F0003A88F
:103CB000FCF7FDFC7FBD0000001000403401002037
:103CC000380100205C010020001400403201002077
:103CD0008D1400205553415254204255463A2573C5
:103CE0000D0A0000434C4F53454400005044503AE5
:103CF0002044454143540000434F4E4E4543542019
:103D00004641494C000000003E0000004552524F21
:103D1000520000002B434D5400000000000C0040F6
:103D20003C0100204001002032B7D6D6D3B9FDC8EF
:103D3000A5C1CB0010B504465748D0F80002C8B959
:103D40005548C0F800424FF400415448FCF787FE44
:103D500000205149C1F80802012081F81802002012
:103D6000C1F81C02012240F227714D48FEF7DDF92F
:103D7000012010BD0020FCE7F0B502460B460020F4
:103D8000FF24FF2509E012F8016B86EA0501454E84
:103D9000765C86EA0405444E745C1E1EA3F101079E
:103DA000BBB2F0D14619B0B24FF6FF7606EA00205A
:103DB0000619B0B2F0BDF0B504460D46FF23FF264C
:103DC00000210BE0625C5A40D0B2364F385C80EA8A
:103DD0000603D0B2344F3E5C481C81B2A942F1DBED
:103DE00006EB032080B2F0BD2DE9F04707460D46F3
:103DF0001646A819A0F101092C48077003202B4989
:103E00004870084645808680002402782146641C5C
:103E10002148FF304254254842782146641C1E4800
:103E2000FF3042542148408802122146641C1A483F
:103E3000FF3042541D4882782146641C1648FF30EA
:103E400042541A48808802122146641C1248FF30EE
:103E50004254164802792146641C0F48FF304254F0
:103E60002146FFF7A8FF80464FEA28222146641C1E
:103E70000948FF3042542046611CCCB20649FF314C
:103E800001F800800020FF39C1F80C022046FFF73E
:103E900051FFBDE8F08700009016002000080140A7
:103EA00000380140DC640008DC65000844010020A3
:103EB00000B587B0012144F20400FDF745F89148B0
:103EC000FEF758F84FF40070ADF8180003208DF895
:103ED0001A0018208DF81B0006A98B48FCF712FD6C
:103EE0004FF48060ADF8180004208DF81B0006A97F
:103EF0008548FCF707FD4FF4165002900020ADF8FE
:103F00000C00ADF80E00ADF81000ADF814000C2058
:103F1000ADF8120002A97B48FEF76FF825208DF856
:103F2000040002208DF8050003208DF80600012012
:103F30008DF8070001A8FCF7BAFB012240F22551D9
:103F40007048FEF7F2F801216E48FEF7E2F807B07C
:103F500000BD70B5002400256C4890F818020328B5
:103F60001AD16A48B0F80C0284B2A01E67490D5CF1
:103F7000601E085C00EB052085B2A01E81B263487C
:103F8000FFF719FFA84205D10020604981F8180207
:103F9000012070BD0020FCE70020FAE710B50024E6
:103FA00040F225515748FEF7A5F9B0B10020574916
:103FB000C1F810025348FEF71DF9C4B2534890F8F7
:103FC000190250B95148D0F80C12D0F80C02401C1C
:103FD0004E4AC2F80C021046445440F22771494838
:103FE000FEF788F9D0B3494890F81802012835D176
:103FF0004648D0F808024549D1F8001288420FD24D
:104000004248D0F80822D0F80802401C3F4BC3F8C1
:10401000080203F1FF00815C3A48FEF7E7F81DE073
:10402000002240F227713748FEF77FF8012240F264
:1040300025513448FEF779F800203449C1F80002D0
:10404000C1F80802C1F80C02022081F81802002011
:10405000C1F81C02C1F82002C1F8100210BD10B551
:10406000FEF7EEF92948D0F80C02A8B1274890F8DD
:10407000190288B92548D0F81002401C2349C1F81C
:1040800010020846D0F810020A2805D9012081F84C
:104090001902032081F818021C4890F8180202281F
:1040A0001CD11A48D0F82002401C1849C1F820023F
:1040B000022813D34FF400411348FCF7D2FC002030
:1040C000124981F81902084690F81802012805D112
:1040D0006420C1F81402022081F8180210BD10B546
:1040E0000A48D0F8041200F05DFF0848D0F800122A
:1040F000FF3000F035FF00200449C1F80C02C1F880
:10410000080210BD00380140000801409016002050
:104110000146CA1701EB92729210A1EB820292B98A
:10412000642091FBF0F200FB121050B94FF4C870FC
:1041300091FBF0F200FB121008B90120704700203B
:10414000FCE70120FAE70020F8E72DE9F05F0646DA
:104150000F4690469946DDE90AAB002440F2B27062
:10416000864203DB40F63300864202DD0120BDE8D3
:10417000F09F40F2B2750AE02846FFF7C9FF10B180
:10418000A848044401E0A8480444681C85B2B5422C
:10419000F2DB781EC7B2002510E0A448405D40F273
:1041A000A321484304EBC0143046FFF7B1FF18B118
:1041B000012D01D19E480444681C85B2BD42ECDB50
:1041C000A8F1010040F2A321484304EBC014C9EB5D
:1041D0004910C0EB092004EB0014CAEB0A1004EBF1
:1041E00080045C44FCF770FF2046FCF73AFFFCF7C4
:1041F0006BFF0020BBE71CB5002000900346132294
:104200000B21019040F2E270FFF79FFF1CBD10B53B
:1042100001214FF0C050FCF7A4FE0120FCF7CBFCBD
:104220000420FCF7E2FA45F25551884229D0FCF708
:10423000A7FA0120FCF7F5FD00BF4120FCF759FD6E
:104240000028FAD04FF48070FCF707FE0120FCF73D
:104250000AFEFCF742FFFCF737FF01210846FCF796
:10426000D7FEFCF731FF47F6FF70FCF707FFFCF7BE
:104270002BFFFFF7C0FF45F255510420FCF7A9FAC8
:104280000EE07B20FCF735FD10B97A20FCF731FDFC
:10429000FCF723FF01210846FCF7BAFEFCF714FFE8
:1042A000FCF790FE002010BD70B50026002400250C
:1042B000FCF7CEFE06465E48B6FBF0F100FB11644B
:1042C0004FF46160B4FBF0F05A4948714FF46160FB
:1042D000B4FBF0F100FB11403C21B0FBF1F055497B
:1042E00088714FF46160B4FBF0F100FB11403C2198
:1042F000B0FBF1F201FB12004E49C8714C48B6FB0D
:10430000F0F44D480088A0423CD04B490C8040F26C
:10431000B27510E02846FFF7FBFE40B1B4F5B77F59
:1043200002D3A4F5B77404E0681C85B206E0A4F2D9
:104330006D14681C85B2B4F5B67FEBD800BF3D485C
:104340000580002516E03B490888FFF7E1FE30B103
:10435000012D04D11D2C01D31D3C09E00CE0334894
:10436000405DA04203D83148405D241A00E003E0DC
:10437000681C85B21C2CE6D200BF681C2D498870D1
:10438000601CC870002070BDF0B503460C46154691
:10439000642093FBF0F0C6B2642093FBF0F700FBBF
:1043A0001730C1B2132E02DD01F16400C1B208461C
:1043B000CF1701EB977701EBA707BAB2072092FB63
:1043C000F0F700FB172082B25719601EDFF86CC0AF
:1043D0001CF80000384482B2CF1701EB9777BF106A
:1043E000A1EB87071FB9032C01DA501E82B2072008
:1043F00092FBF0F700FB1720C0B2F0BD10B5012012
:10440000FCF790FE08B1FFF74FFF0220FCF78AFE91
:1044100010B10220FCF796FE0120FCF793FEFCF79A
:1044200053FE10BD0085E2018033E101E86600081B
:10443000805101004C01002054010020DC6600087E
:1044400070B5002400250026FEF76CF868B900BF9F
:1044500009E05F48015D04F1110000F02AFA0F2025
:1044600000F032F9641C0B2CF3DBFEF729FF10B9C6
:1044700058A0FFF7D4F9FEF716FF10B95BA0FFF7BD
:10448000CEF948226049002000F09EFA5FA0FFF7B5
:10449000C6F95CA0FFF7C3F94D48002101604160F7
:1044A000816008225849C91C263800F0A2FD0B2261
:1044B00055491131464800F09CFD022252492331F2
:1044C0004348283800F095FD0F224F492A314048D3
:1044D000103800F08EFD05224B4939313C480C3034
:1044E00000F087FD0322484945313948313000F05A
:1044F00080FD3748283800F09FFC054634483130AD
:1045000000F09AFC064632482E388566466600F171
:10451000080143A0FFF783F92D4944A0FFF77FF975
:104520002B482E382A46816E43A0FFF778F9284998
:10453000103945A0FFF773F925490C3144A0FFF766
:104540006EF923482E383246416E44A0FFF767F9D2
:1045500070BD10B52AE0C82245494648006800F001
:1045600033FA002409E043490968081942A100F020
:10457000A0F90A20FDF754FF641CC82CF3DB3FA010
:10458000FFF74DF93B480068C8303A4908603EA142
:10459000374800F05EFC48B1354A3DA1414800F083
:1045A000E5FAFEF7D4FD40A0FFF739F9314800687D
:1045B00040F24C418842CEDB2E480068884202DD42
:1045C00064202C4908603CA0FFF729F910BD0000C9
:1045D0008A010020C9E8D6C3B6CCD0C5CEAA74657E
:1045E0007874B8F1CABD0D0A00000000C9E8D6C34E
:1045F000B6CCD0C5D6B1BDD3B7A2B5BDB4AEBFDAC7
:10460000B3C9B9A60D0A000008190020B6C1C8A197
:10461000C4ACC8CFC5E4D6C3B3C9B9A60D0A00005F
:10462000BBFAC6F7C2EB25730D0A0000CAD6BBFA67
:10463000BAC52573200D0A00BCE4B8F42564202017
:10464000202025640D0A000069702573200D0A00E2
:10465000B6CBBFDA2573200D0A000000D6D8C6F409
:10466000CAB1BCE42564202020202025640D0A0066
:10467000641900205801002030000000B2C1B3FDD1
:10468000C1CB0D0A000000006461746100000000ED
:10469000B6CFCDF8CAB1B5C4CAFDBEDD25730D0ACB
:1046A000000000002C020020B7A2CBCDC1CBB1B8D6
:1046B000B7DD0D0A00000000B6C1B3F6C1CBB1B83A
:1046C000B7DDA3BA0000000008E0421E90B200214E
:1046D00001E04A1C91B2B1F52F7FFADB0028F4D13A
:1046E0007047002107E0002201E0531C9AB2052A1E
:1046F000FBDB4B1C99B28142F5DB704710B54FF4E0
:104700000041D648FCF7ABF90120FFF7EAFF4FF470
:104710008041D248FCF7A3F90120FFF7E2FF4FF4F4
:104720000041CE48FCF79DF90120FFF7DAFF4FF476
:104730008041CA48FCF795F910BD10B54FF400410F
:10474000C648FCF78EF90120FFF7CBFF4FF48041FC
:10475000C248FCF784F90120FFF7C3FF4FF4004182
:10476000BE48FCF77CF90120FFF7BBFF4FF4804106
:10477000BA48FCF776F910BD38B548208DF803002B
:1047800003208DF802004FF40040ADF800006946A8
:10479000B248FCF7B7F84FF48041B048FCF75FF936
:1047A0004FF47A750AE04FF40041AC48FCF73DF94C
:1047B000012801D1002401E0012403E0281EA5F115
:1047C0000105F0D100BF4FF48041A448FCF749F93E
:1047D00010208DF803006946A048FCF793F82046A6
:1047E00038BD70B50446002524E004F0800028B1EF
:1047F0004FF400419948FCF732F904E04FF40041CE
:104800009648FCF72EF96006040E0120FFF769FFB9
:104810004FF480419148FCF722F90120FFF761FF36
:104820004FF480418D48FCF71CF90120FFF759FF38
:10483000681CC5B2082DD8DB70BDF8B5002548202E
:104840008DF803004FF40040ADF8000003208DF810
:10485000020069468148FCF755F800241EE04FF439
:1048600080417E48FCF7FBF80120FFF73AFF4FF448
:1048700000417A48FCF7D9F8012801D1012600E06F
:10488000002646EA4500C5B24FF480417348FCF764
:10489000E8F80120FFF725FF601CC4B2082CDEDB1E
:1048A00010208DF8030069466C48FCF72BF8284669
:1048B000F8BD70B504460D46FFF720FFA020FFF7B6
:1048C00090FFFFF759FF08B9002070BD2012FFF7D5
:1048D00088FFFFF751FF08B90020F6E7E0B2FFF7C5
:1048E00080FFFFF749FF08B90020EEE72846FFF7F1
:1048F00078FFFFF741FF08B90020E6E7FFF71DFF4B
:104900000F20FFF7E1FE0120DFE770B504460D46FA
:104910001646FFF7F3FEA020FFF763FFFFF72CFF1B
:1049200008B9002070BD2012FFF75BFFFFF724FFDE
:1049300008B90020F6E7E0B2FFF753FFFFF71CFFCE
:1049400008B90020EEE708E02878FFF74AFF6D1C61
:10495000FFF712FF08B90020E4E7301EA6F10101BD
:104960008EB2F1D1FFF7E9FE0120DBE770B5044616
:10497000FFF7C4FEA020FFF734FFFFF7FDFE08B9E4
:10498000002070BDC4F30720FFF72BFFFFF7F4FEF4
:1049900008B90020F5E7E0B2FFF723FFFFF7ECFED0
:1049A00008B90020EDE7FFF7A9FEA120FFF719FFE6
:1049B000FFF7E2FE08B90020E3E7FFF73EFF0546F8
:1049C000FFF7BBFE2846DCE770B504460D461646E9
:1049D000FFF794FEA020FFF704FFFFF7CDFE08B914
:1049E000002070BDC4F30720FFF7FBFEFFF7C4FEF5
:1049F00008B90020F5E7E0B2FFF7F3FEFFF7BCFED1
:104A000008B90020EDE70FE0FFF778FEA120FFF7DF
:104A1000E8FEFFF7B1FE08B90020E2E7FFF70DFF5F
:104A200028706D1CFFF789FE301EA6F10106EBD140
:104A300000BFD6E708B501214020FCF785FA4FF406
:104A40004040ADF8000003208DF8020010208DF8E2
:104A5000030069460148FBF755FF08BD00180140F7
:104A60002DE9F04102460F46802A01DA10462FE078
:104A70001FB1244B45F2205602E0234B45F220564D
:104A80000025102416E0A6EB050C0CEBDC7805EBFA
:104A900068014FEA410C33F81CC0944500D10BE08B
:104AA0004FEA410C33F81CC0944501DA0D4600E092
:104AB0000E46641E002CE6D100BF34B14FF0010C4D
:104AC0000CEB410C33F81CC001E04FF0000C6046C9
:104AD000BDE8F0810246002100E0491C0B4830F897
:104AE000110020B1094830F811009042F5D1074873
:104AF00030F8110018B1064830F811007047104620
:104B0000FCE7000078BB0108F4660008FC0F03080E
:104B1000DC1103081CB50C46064B7B44694600902B
:104B2000204600F01EFB04460020694600F02CFBE6
:104B300020461CBD6B0600007CB51D4616460C00C9
:104B4000009001D02044401E074B7B442A46694612
:104B50000190304600F005FB05461CB10020694677
:104B600000F012FB28467CBD450600000FB41CB5C2
:104B7000084B06AA7B4469460090059800F0F1FABC
:104B800004460020694600F0FFFA20461CBC5DF890
:104B900014FB00001106000070B50446856900682A
:104BA000C10601D5302600E02026C00707D070BD21
:104BB000D4E9012130469047206A401C20626D1ED6
:104BC000F6D570BD70B5044685690078C00707D179
:104BD00070BDD4E9012120209047206A401C20624A
:104BE0006D1EF6D570BD70B50C460546012A05D080
:104BF0002878800600D5EA69002302E0012305E059
:104C00005B1C934202D2E05C0028F9D1A869E61847
:104C1000C01AA861286A184428622846FFF7BCFF1A
:104C200004E0D5E9012114F8010B9047B442F8D310
:104C30002846FFF7C7FF70BD2DE9F0410646002466
:104C400010687529314616A510D000F005FA002825
:104C500002DA404213A507E031688A0701D512A5A0
:104C600002E0490704D511A5012401E000F0FDF997
:104C700000210A2206F1240709E0B0FBF2FCB0FB98
:104C8000F2F302FB1C00303078541846491C00280F
:104C9000F3D123462A463046BDE8F04100F0EEB994
:104CA000000000002D0000002B000000200000008C
:104CB0002DE9F05F894604464FF0000ADFF874B131
:104CC000FB44C0F820A02046E1688847002874D043
:104CD000252806D0D4E901219047206A401C206293
:104CE000F1E700265F462046E16888472028054610
:104CF00007DB312D05D2781910F8200C08B10643D6
:104D0000F1E7B00701D526F00406C4F81CA000277F
:104D1000C4F818A02A2D09D0284601F0AAFB38B300
:104D200004EB8708303DC8F8185019E059F8041B07
:104D3000204604EB87029161E1688847012F054610
:104D400018D1E069002820DA26F020061DE0D8F806
:104D5000180000EB800005EB40003038C8F8180060
:104D60002046E1688847054601F083FB0028EED124
:104D7000012F0AD02E2D08D12046E16888477F1CDC
:104D80000546022F46F02006C4DBA069002803DA9E
:104D9000404246F00106A061F00701D026F010065F
:104DA0006C2D0BD0682D09D04C2D39D06A2D35D003
:104DB000742D35D07A2D33D016E038E0E1682F46D7
:104DC00020468847B842054609D16C2F26D04FF4BB
:104DD0008060E168064320468847054604E06C2F62
:104DE0001AD04FF4807006430DB3A5F14100192885
:104DF00002D8203546F400664A46294620462660F9
:104E00004E46FBF7EFF980B101280BD0F61D26F0D6
:104E1000070000F1080956E74020E4E78020D8E7C2
:104E20000020D6E706F104094DE7284652E7206A3C
:104E3000BDE8F09FF8C6020070B5064600F008F91C
:104E40000468054630460A22002100F0DFFA2C6093
:104E500070BD30B505460B462A4613F8014B12F8D3
:104E6000010B08B1A042F8D01CB1002802D06D1C83
:104E7000F1E7284630BD40EA0103024630B59B0702
:104E800010D14FF0013400E008C208C91D1B9D433A
:104E900015EAC41FF8D013F0FF0102F8011B0DD072
:104EA0001B0AF8E711F8013B002B02F8013B05D083
:104EB00011F8013B002B02F8013BF3D130BD10B5D6
:104EC000431C02E010F8011B71B18107FAD14FF0C9
:104ED000013202C88C1A8C4314EAC211F9D0C01AEC
:104EE0000A0603D0C01E10BDC01A10BD0A0401D0AE
:104EF000801E10BD0902FCD0401E10BD10B5203A26
:104F0000C0F00B80B1E81850203AA0E81850B1E882
:104F10001850A0E81850BFF4F5AF5FEA027C24BF38
:104F2000B1E81850A0E8185044BF18C918C0BDE82F
:104F300010405FEA827C24BF51F8043B40F8043BF8
:104F400008BF7047D20728BF31F8023B48BF11F8AD
:104F5000012B28BF20F8023B48BF00F8012B704707
:104F60004FF000020429C0F0128010F0030C00F092
:104F70001B80CCF1040CBCF1020F18BF00F8012B10
:104F8000A8BF20F8022BA1EB0C0100F00DB85FEADE
:104F9000C17C24BF00F8012B00F8012B48BF00F8AA
:104FA000012B70474FF0000200B513469446964619
:104FB000203922BFA0E80C50A0E80C50B1F120012C
:104FC000BFF4F7AF090728BFA0E80C5048BF0CC0DA
:104FD0005DF804EB890028BF40F8042B08BF704738
:104FE00048BF20F8022B11F0804F18BF00F8012BAA
:104FF000704710B5044610F0030F08BF11F0030FFF
:1050000040F015804FF0013E121FC0F20E8051F8A3
:10501000043BA3EB0E0C2CEA030C1CEACE1C08BFCD
:1050200040F8043BF0D0A1F1040102F10402521E49
:1050300008DB11F8013B002B00F8013BF7D11146CA
:10504000FFF78EFF204610BD704770477047000085
:10505000004870472C1A002009684A0501D540B263
:105060007047C905FCD500B2704709684A0501D5EB
:10507000C0B27047C905FCD580B270472DE9F04732
:105080000D4699469246044600F1240801688806B8
:1050900004D5E06921F01001216000E00120A84260
:1050A00001DD471B00E00027A1697A1902EB090026
:1050B000081AA0612078C00602D42046FFF76CFDD4
:1050C000002608E0D4E901211AF806009047206A7A
:1050D000401C761C20624E45F4DB2078C0060AD5C1
:1050E0002046FFF759FD06E0D4E901213020904722
:1050F000206A401C2062381EA7F10107F4DC07E09B
:10510000D4E9012118F805009047206A401C20626C
:10511000281EA5F10105F3DC2046FFF753FD20789A
:10512000000602D50220BDE8F0870120FBE71168E8
:105130000268006A530501D508700AE0D30501D55D
:10514000088006E0130603D5C217C1E9000200E09B
:10515000086001207047000001694A1C026108785C
:10516000704700B58FB0CDE90131002105910549A7
:105170007944CDE9031011466846FFF799FD0FB059
:1051800000BD0000E5FFFFFF0A6802F8010B0A609E
:105190007047D1E900239A4202D2531C0B60107071
:1051A000704710B5436913B1AFF3008001E0FFF71A
:1051B0001AFD012010BD127800F124010A700022AE
:1051C0004A700122EDE711684FF0FF32E9E7000075
:1051D0002DE9FF5F15468A460446DFF8AC80F844A7
:1051E0000027D8E900103E46CDE9001010E03AF85B
:1051F00016106A4602A800F006FC411C07D0217870
:10520000890603D5E269391891420DD80744761C06
:105210002078800602D5E069B84205DDAE42E6DBC3
:105220003AF816000028E2D1A069C01BA061204610
:10523000FFF7B2FCD8E90010CDE90010002017E01C
:105240003AF818106A4602A800F0DDFBB0F1FF3F03
:1052500081460BD000250DF1080B05E0D4E90121B2
:105260001BF8050090476D1C4D45F7D308F1010070
:10527000B0428046E4DB206A384420622046FFF7D3
:10528000A1FCBDE8FF9F0000EEC102002DE9F04146
:105290008046D21D22F007020025D2E90002F5293E
:1052A00015A614D0011E72F1000106DA0023D0EB1E
:1052B000030063EB020211A608E0D8F800108B0788
:1052C00001D50FA602E0490701D50EA6012511461A
:1052D000002408F1240704E000F0DCF830323A55ED
:1052E000641C50EA0102F7D12B4632462146404663
:1052F000BDE8F041FFF7C2BE000000002D00000035
:105300002B0000002000000030B4002100F1240434
:1053100008E002F00705D208303542EA4372DB08A4
:105320006554491C52EA0305F3D10468002310A216
:10533000250707D5A40600D421B1C46901230DA215
:10534000641EC46130BCFFF799BE10B50446214607
:105350001068FFF78AFE02462046BDE81040002391
:10536000D2E7D21D22F00701D1E90023CCE70000EB
:105370000000000030000000F0B40D46018809056F
:1053800002D5214C7C4402E01F4C7C440E340021A9
:1053900000F1240608E002F00F071209E75D42EA77
:1053A00003721B097754491C52EA0307F3D10278B0
:1053B0000023120704D5702D06D009B10223113441
:1053C0002246F0BCFFF75ABE01231034F8E770B54F
:1053D00004460D4621461068FFF747FE024629465F
:1053E0002046BDE870400023C6E7D21D22F0070327
:1053F000D3E90023C0E70368126843F02003036089
:105400000823C3610023B7E750C002002DE9F0472D
:1054100091460F4680460446002614F8015B2DB1E4
:1054200000F030F80068405DC007F6D12B2D02D0A7
:105430002D2D18D0641E4A463946204600F094FAB5
:1054400027B13968A14201D1C7F800804FF00204AA
:1054500071050BD54042002803DDFFF7F9FD04601C
:10546000A007BDE8F08746F48066E4E70028F8DA94
:10547000FFF7EEFD04606FF00040F2E70048704770
:105480002C1A002010B500F003FB001D10BD00BF5A
:10549000F10F000030B5B0F10A024FEA900E71F141
:1054A00000034EEA817EB0EB0E0061EB91014FEA02
:1054B000101E4EEA017E10EB0E0041EB11114FEA77
:1054C000102E4EEA016E10EB0E0041EB11214FEA57
:1054D000104E4EEA014E10EB0E0041EB1141401808
:1054E00041F100014FEAD00040EA41704FEAD1019A
:1054F00010EB80054FEA810444EA907444EB010408
:105500006D1944EB0404521BA3414FF0000348BF44
:105510000A3200D530BD401C41F1000130BD70475A
:105520002DE9FF4F0C461E464FF0FF378BB0D2E9F6
:105530000001DDF860800A908A46C1F30A5505B97A
:105540003D46002108464FF00000BAF1000F00F47C
:10555000400005DA00EB80004FF4400101EA500002
:105560004FEA9059B9F1010F00DDB9460A9850EAA7
:105570004A000ED044F61050A5F2FF3545432F14D3
:10558000B8F1000F1ED07542291E1EDDC9F10002C0
:105590001CE0B8F1010F4FF0000001D0302103E012
:1055A000F24305E02154401CB042FBDB30460022B0
:1055B000002121540B99C1F80880C1E900200FB0E7
:1055C000BDE8F08FBD1B6D1CDEE74A4600DA69427C
:1055D00006A800F0AFFA06AB93E8070003AB83E838
:1055E000070050460A9900F068FB8DE80700A0F517
:1055F00000501F3800900398002D0ADD42F21F0171
:105600004A460844002303A90390684600F0D1FDF0
:1056100009E0A0F500504A461F38002303A9039073
:10562000684600F0DBFD8DE807000004000C03D0A5
:105630004FF0FF30410800E01046B8F1000F03D0F2
:105640000022009215461EE0751E05D4FFF722FFCA
:10565000303262556D1EF9D5B3460122084302D09F
:1056600000227F1C04E02078302801D100227F1E18
:10567000002A099784D01DE0112D07DAFFF70AFFF1
:10568000303262556D1C50EA0102F5D1084302D058
:105690000098C8B10EE00021681E05E0235C625C42
:1056A00063542254401E491C8142F7DBAB46A81BC1
:1056B000401E0990002004F80B000B98099AC0F8CE
:1056C0000880C0E9002B7AE711264FF0000857E761
:1056D0002DE9F04F88460446D21D22F0070191B013
:1056E000D1E90001CDE90A0100F0AFFE02460B98B6
:1056F000C00F01D02D2007E02068810701D52B20A5
:1057000002E0202101EAC000032A099001D0072A03
:1057100005DB03464146204600F0BEF90BE1207848
:10572000800601D5E06900E00620B8F1650F8146EA
:1057300006D0B8F1660F18D0B8F1670F70D131E01C
:105740000020B9F1110F009001DB112301E009F1F4
:1057500001030AAA01A90CA8FFF7E2FEDDE90C701B
:10576000002609F10105834647E001204B460090E1
:105770004FF000470AAA01A90CA8FFF7D1FEDDE906
:105780000DB00C995D46002610B909F101000D1805
:10579000B9EB050003D4C0F1FF3609F10105A5EB13
:1057A00009002BE0B9F1010F01DA4FF001090020E7
:1057B000B9F1110F0090484601DD112300E00346C6
:1057C0000AAA01A90CA8FFF7ABFEDDE90C704D4653
:1057D00000268346207800070AD4AB4500DA5D46F0
:1057E00001A8012D04DD411911F8011C302907D051
:1057F0004F4502DA17F1040F04DA012082460FE068
:105800006D1EEEE7002F02DCED1B3E4403E0781C2A
:10581000A84200DD7D1CB81B00F1010A4FF00047D3
:105820002078000703D4AA4501DB4FF0FF3A00219E
:10583000B7F1004F0DF143088DF8431024D002203A
:105840002B23002F01DA7F422D230A21021EA0F113
:10585000010000DC5FB197FBF1FC97FBF1F201FB6B
:105860001C7C17460CF1300C08F801CDEEE7A8F1CE
:10587000010003702188090501D5452100E065215B
:10588000A0F1010800F8011C09980FA9A1EB080775
:10589000FF1D00B10120411901EBEA70A1693844F4
:1058A000081A401EA0612078C00602D42046FFF7E7
:1058B00073F9099828B1D4E901219047206A401C66
:1058C00020622078C00622D52046FFF765F91EE049
:1058D000002E04DBB34502DD01A8805D00E030202E
:1058E000D4E901219047206A401C2062761CAAF16D
:1058F00001005FEA000A0AD100F0CAF8C068016836
:10590000405CD4E901219047206A401C2062281E97
:10591000A5F10105DCDC07E0D4E9012118F8010B51
:105920009047206A401C2062381EA7F10107F3DC73
:105930002046FFF747F9032011B041E610B543694F
:1059400013B1AFF3008001E0FFF742FC012010BD6E
:10595000128800F1240182840022C2840122EDE732
:1059600011684FF0FF32E9E72DE9F05F82461546F6
:105970008B4600270AF10104B9460078302801D08F
:105980009DB113E014F8010B0127782803D05828A3
:1059900001D045B10AE00DB1102D07D1002714F850
:1059A000010B102502E0082500E00A250026B0467C
:1059B0000EE005FB080005FB06F101271FFA80F841
:1059C00001EB1046B6F5803F00D3B94614F8010B41
:1059D000294600F0A1F80028EBDABBF1000F05D052
:1059E0000FB1641E00E05446CBF80040B9F1000F3F
:1059F00006D0FFF72DFB02210160C81EBDE8F09F15
:105A000048EA0640FAE770B516460C460546FFF729
:105A100039FD036893F80101012806D0FF2C0FD847
:105A2000185D68B101202C7070BDD3F807013246B3
:105A3000214603F2071303442846BDE87040184787
:105A40004FF0FF3070BD7546FFF718FDAE460500FC
:105A50006946534620F00700854618B020B5FAF78E
:105A60000FFEBDE820404FF000064FF000074FF05A
:105A700000084FF0000B21F00701AC46ACE8C0096C
:105A8000ACE8C009ACE8C009ACE8C0098D46704775
:105A9000004870474C1A00202DE9F0411F4604468B
:105AA00003260168072A01F4006004DB08B116A58B
:105AB00005E016A503E008B115A500E015A521F045
:105AC00010002060A069C01EA0610FB1401EA0613F
:105AD0002046FFF761F84FB1D4E9012138469047DD
