:020000040800F2
:10000000B01F002001060008090400080B040008C6
:100010000F04000813040008170400080000000083
:100020000000000000000000000000001B040008A9
:100030001D040008000000001F0400080F3D000818
:100040001B0600081B0600081B060008AD40000840
:100050001B0600081B0600081B0600081B060008FC
:100060001B0600081B0600081B0600081B060008EC
:100070001B0600081B0600081B0600081B060008DC
:100080001B0600081B0600081B0600081B060008CC
:100090001B0600081B0600081B0600081B060008BC
:1000A0001B0600081B0600081B0600081B060008AC
:1000B0001B0600081B0600081B0600081B0600089C
:1000C0001B0600081B0600081B0600081B0600088C
:1000D0001B0600084D3C00081B060008713500088F
:1000E0001B0600081B0600081B0600081B0600086C
:1000F0001B0600081B0600081B0600081B0600085C
:100100001B0600081B0600081B3800081B06000819
:100110001B0600081B060008193700086137000895
:100120001B0600081B0600081B0600081B0600082B
:1001300000F002F800F0B0F80AA090E8000C824449
:100140008344AAF10107DA4501D100F0A5F8AFF226
:10015000090EBAE80F0013F0010F18BFFB1A43F0A5
:1001600001031847E4610000046200000A444FF0F4
:10017000000C10F8013B13F0070408BF10F8014B06
:100180001D1108BF10F8015B641E05D010F8016B4B
:10019000641E01F8016BF9D113F0080F1EBF10F8AF
:1001A000014BAD1C0C1B09D16D1E58BF01F801CBD2
:1001B000FAD505E014F8016B01F8016B6D1EF9D555
:1001C0009142D6D37047000000230024002500266A
:1001D000103A28BF78C1FBD8520728BF30C148BFAA
:1001E0000B6070476E2904F00E85702904F06F864D
:1001F000662905F0DD86652905F0DA86672905F0B0
:10020000D7866129AFF3008003681B0A28BF41F03D
:100210008001692904F07C82642904F079827529BF
:1002200004F076826F2904F0FC85782904F03B867F
:10023000E92904F09785E42904F09485F52904F070
:100240009185EF2904F0F985F82904F03A860368CE
:10025000DB0928BF41F08001632904F01885732968
:1002600004F01D85E32905F0DF80F32905F0E48023
:10027000002070471FB505F077F904000020002129
:1002800005F06AFE401C60600020002105F07AFE47
:10029000E0601FBD10B510BD05F041F91146FFF734
:1002A000E9FF00F009F805F023FA03B4FFF7F2FFC5
:1002B00003BC05F067FA000002F02EF841F2883026
:1002C00002F07CF84FF4A06000F0BAF901210807B1
:1002D00000F015FE4FF4E13003F0BEF803F040FCEF
:1002E00041F61F4142F20F7003F0C6FA41F61F417A
:1002F00042F20F7003F016FB00213E4801F0BEFDF4
:1003000000213D4801F0BAFD01213A4801F022FBED
:1003100003F0D5FD04F053F94FF4E13003F056F942
:1003200003F0DFF90020354981F848000870C870F3
:1003300002F08DFE02F0FAFD03F0DAFE03F02DFF6D
:1003400056E02E488078012812D100BF80F3138830
:1003500000BF00BF2A48006800F4E0602949084354
:10036000001D27490860BFF34F8F00BF00BFFEE7A5
:100370002248C078012801D102F069FE1F480078A8
:10038000012806D0022818D003282ED004282ED108
:100390002CE028220021012003F07EFBC82002F07F
:1003A0000DF803F02EFC012803D102201349087038
:1003B00002E001201149087019E010484078012836
:1003C0000BD101210C4801F0C5FA02F03AFF02F00E
:1003D00088FF00200949087006E002F027FE02F0BD
:1003E000BCFF00200549087001E000E000BF00BF2D
:1003F000A7E7000000100040000C0040540100205E
:100400000CED00E00000FA05704700BFFEE700BFFA
:10041000FEE700BFFEE700BFFEE77047704770478A
:100420000CB50020019000906C48006840F48030CA
:100430006A49086000BF6948006800F40030009015
:100440000198401C0190009818B90198B0F5A06F70
:10045000F1D16248006800F4003010B10120009032
:1004600001E0002000900098012843D15C4800681A
:1004700040F010005A4908600846006820F0030068
:1004800008600846006840F0020008605348406871
:10049000524948600846406848600846406840F451
:1004A000806048600846406820F47C104860084638
:1004B000406840F4E81048600846006840F08070EA
:1004C000086000BF4548006800F000700028F9D0BF
:1004D0004248406820F003004049486008464068B0
:1004E00040F00200486000BF3C48406800F00C004B
:1004F0000828F9D10CBD10B5FFF792FF10BD10B55B
:100500003648006840F001003449086008464068F9
:10051000344908403149486008460068324908407B
:100520002E4908600846006820F4802008600846CC
:10053000406820F4FE0048604FF41F008860FFF719
:10054000DAFF4FF000602949086010BD10B50021A6
:1005500000200022214B5B6803F00C0121B104292B
:1005600006D0082928D107E0214B224C236027E040
:100570001F4B204C236023E0184B5B6803F4701082
:10058000164B5B6803F48032022303EB904022B9E0
:10059000194B4343174C23600DE0104B5B6803F489
:1005A000003323B1144B4343124C236003E0104B40
:1005B0004343104C236003E00D4B0E4C236000BFFF
:1005C00000BF064B5B68C3F303130C4CE15C094BA3
:1005D0001B68CB40074C236010BD00000010024098
:1005E000002002400000FFF8FFFFF6FE08ED00E0EB
:1005F00000127A000000002000093D0004000020E5
:100600000948804709480047FEE7FEE7FEE7FEE7A6
:10061000FEE7FEE7FEE7FEE7FEE7FEE704480549E2
:10062000054A064B70470000FF040008310100082E
:10063000B0190020B01F0020B01B0020B01B00200C
:1006400031490143314A1160704770B500210023E0
:100650000F22C47804B32D4C246804F4E064C4F57C
:10066000E064210AC1F10403CA40447804FA03F1AA
:100670008478144021430901254C0678A15504785B
:1006800004F01F050124AC4005786D11AD0005F1A3
:10069000E025C5F8004109E0047804F01F050124B5
:1006A000AC401C4D0678761145F8264070BD1A4ABC
:1006B0000A400243154B1B1F1A60704739B1134A99
:1006C000121D12680243114B1B1D1A6006E00F4AEF
:1006D000121D126882430D4B1B1D1A6070470428BF
:1006E00008D14FF0E021096941F004014FF0E02208
:1006F000116107E04FF0E021096921F004014FF09A
:10070000E0221161704700000000FA050CED00E0E6
:1007100000E400E080E100E080FFFF1F10B5012051
:1007200000F014FC002000F011FC10BD2A49086004
:1007300070472949091F08607047274984310860BC
:10074000704701460020254A10884FF67F4210402E
:100750000843224A10807047014600201F4A108833
:100760004FF68072104008431C4A1080704708B54D
:1007700000220092194A2C3A0092009A02440092F8
:10078000009A116008BD08B501460020009013488A
:100790002C3800900098084400900098008808BD0C
:1007A0000D489C300068C0B270470C480830008883
:1007B00040F0010009490831088070470648A03020
:1007C0000068C0B2704705480830008840F0020059
:1007D000024908310880704704860D422C6C0040A5
:1007E00010B50446CC48844208D10121042000F011
:1007F00093FB0021042000F08FFB46E0C7488442B1
:1008000008D10121082000F087FB0021082000F01A
:1008100083FB3AE0C248844208D10121102000F055
:100820007BFB0021102000F077FB2EE0BD488442C6
:1008300008D10121202000F06FFB0021202000F0D2
:100840006BFB22E0B848844208D10121402000F02F
:1008500063FB0021402000F05FFB16E0B3488442B8
:1008600008D10121802000F057FB0021802000F0FA
:1008700053FB0AE0AE48844207D10121801500F005
:100880004BFB0021A01500F047FB10BD10B5012166
:10089000084600F041FB0021012000F03DFB10BDA7
:1008A0002DE9F04102460025002600200023002407
:1008B000002791F803C00CF00F0591F803C00CF06D
:1008C000100CBCF1000F03D091F802C04CEA0505F2
:1008D00091F800C0BCF1000F31D0146800202BE06B
:1008E0004FF0010C0CFA00F3B1F800C00CEA03065B
:1008F0009E4220D183004FF00F0C0CFA03F7BC434B
:1009000005FA03FC4CEA040491F803C0BCF1280F7B
:1009100006D14FF0010C0CFA00FCC2F814C00AE03A
:1009200091F803C0BCF1480F05D14FF0010C0CFA4F
:1009300000FCC2F810C0401C0828D1D31460B1F8E4
:1009400000C0BCF1FF0F34DD546800202EE000F140
:10095000080C4FF0010808FA0CF3B1F800C00CEADB
:1009600003069E4221D183004FF00F0C0CFA03F7CF
:10097000BC4305FA03FC4CEA040491F803C0BCF143
:10098000280F05D100F1080C08FA0CF8C2F8148001
:1009900091F803C0BCF1480F07D100F1080C4FF0EB
:1009A000010808FA0CF8C2F81080401C0828CED3C1
:1009B0005460BDE8F0814FF6FF7101800221817023
:1009C0000421C17070470246002093680B400BB1B0
:1009D000012000E0002070470146886880B270471F
:1009E00002460020D3680B400BB1012000E000203C
:1009F00070470146C86880B2704701617047416125
:100A000070470AB1016100E041617047C160704701
:100A10004FF480320A438261816182618269826916
:100A2000704702460020434B18684FF68073184009
:100A300040EA021008433F4B186070473E49C861C6
:100A40007047F0B50A46002300240021002500F07D
:100A50000046B6F1004F02D1364EF16901E0354E45
:100A60007168C0F3034583B200F44016B6F5401F29
:100A700008D121F070612F4E766826F070662D4FF8
:100A80007E6012E000F48016B6F5801F06D10326C2
:100A900006FA05F4A14341F0706106E0460D360107
:100AA00003FA06F6B14341F0706122B1460D3601FA
:100AB00003FA06F6314300F00046B6F1004F02D1CA
:100AC0001C4EF16101E01B4E7160F0BD30B500229B
:100AD0008B071C0F0F2303FA04F2164B08338C10FC
:100AE00053F824309343134C08348D1044F82530C8
:100AF00023468C1053F824308C07240F00FA04F49A
:100B000023430C4C08348D1044F8253030BD0A497D
:100B1000DC3108607047000000080140000C014013
:100B2000001001400014014000180140001C014069
:100B300000200140000001400000204210B50121CA
:100B4000080700F0F6F900214FF0805000F0F1F9AD
:100B500010BD2A490862704728490861704701465C
:100B60000020274A106820F0E0000843106070471A
:100B70002249A0310860704710B502460020204B82
:100B8000186820F00300104318601E4B1B6843F0E8
:100B900004031C4C2360012901D130BF00E020BFB9
:100BA000184B1B6823F00403164C236010BD144837
:100BB000006840F00400124908600846006840F0F0
:100BC000020008600F48006840F004000D4908600A
:100BD00000BF00BF30BF704701460020084A52687E
:100BE0000A400AB1012000E000207047044909686A
:100BF00041EA8001024A11607047000000000E4285
:100C00000070004010ED00E0DF48006840F0010097
:100C1000DD49086008464068DC490840DA49486018
:100C200008460068DA490840D74908600846006865
:100C300020F4802008600846406820F4FE004860E8
:100C40004FF41F0088607047CF49096821F4803154
:100C5000CD4A11601146096821F480211160B0F578
:100C6000803F03D0B0F5802F0ED106E0C649096859
:100C700041F48031C44A116007E0C349096841F476
:100C8000A021C14A116000E000BF00BF704710B54D
:100C900001460022002300204A11012A02D1BA4C49
:100CA000236806E0022A02D1B74C236A01E0B64C61
:100CB000636A01F01F02012494401C400CB1012022
:100CC00000E0002010BD38B5002000900024002571
:100CD00000BF3120FFF7DBFF05460098401C009065
:100CE0000098B0F5A06F01D0002DF2D03120FFF7B1
:100CF000CEFF08B1012400E00024204638BD0146A3
:100D00000020A14A106820F0F80040EAC1001060FD
:100D10007047A04908607047024600209A4B586807
:100D200020F47C1042EA01031843974B5860704747
:100D300098490866704701460020934A506820F0A1
:100D400003000843506070478F48406800F00C0073
:100D50007047014600208C4A506820F0F00008439C
:100D60005060704701460020874A506820F4E060D8
:100D700008435060704701460020834A506820F4C1
:100D8000605040EAC1005060704729B17E4A527AF3
:100D900002437D4B5A7204E07B4A527A82437A4B7B
:100DA0005A7270477B49D83108607047014600206D
:100DB000754A506820F44040084350607047002155
:100DC000714A20321170704A82F82010012802D036
:100DD00004280AD104E001216B4A2032117005E099
:100DE0000521694A2032117000E000BF00BF704742
:100DF0006949086070476449096A0143624A11629F
:100E00007047654944390860704730B500210022B9
:100E1000002400235C4D6D6805F00C0121B104290C
:100E200005D0082923D105E05C4D056022E05B4D2B
:100E300005601FE0544D6D6805F47012524D6D68E9
:100E400005F48034022505EB92421CB9544D5543FC
:100E500005600BE04C4D6D6805F400351DB1504D3B
:100E60005543056002E04D4D5543056002E04B4D92
:100E7000056000BF00BF444D6D6805F0F001090931
:100E8000484D6B5C0568DD4045603F4D6D6805F47D
:100E9000E061090A434D6B5C4568DD4085603A4D71
:100EA0006D6805F46051C90A3E4D6B5C4568DD40D4
:100EB000C560354D6D6805F44041890B3A4D6B5C5A
:100EC000C568B5FBF3F5056130BD29B12E4A5269FD
:100ED00002432D4B5A6104E02B4A526982432A4B4C
:100EE0005A61704729B1284A92690243264B9A6198
:100EF00004E0254A92698243234B9A61704729B1E5
:100F0000214AD2690243204BDA6104E01E4AD269C9
:100F100082431D4BDA61704729B11B4AD2680243F4
:100F2000194BDA6004E0184AD2688243164BDA6043
:100F3000704729B1144A12690243134B1A6104E045
:100F4000114A12698243104B1A61704712494039A5
:100F5000086070470F49C86470470B49C8717047F3
:100F60000948406A40F0807007494862704701466E
:100F70000020054A92680A400AB1012000E00020E2
:100F80007047014988727047001002400000FFF866
:100F9000FFFFF6FE000042428004424200127A0047
:100FA00000093D00140000202400002029B1504A0F
:100FB000128802434E4B1A8004E04D4A1288824345
:100FC0004B4B1A8070474A48001D008840F01000C3
:100FD0004749091D088070474548001D00884FF6A5
:100FE000EF7108404249091D0880704700214048C0
:100FF0001C300188001F008841EA0040704700B59E
:101000000246FFF7E0FF100C394918310880091D2E
:101010000A80FFF7E1FF00BD00B50246FFF7D3FFEE
:10102000C2F30340324908310880091D0A80FFF7E6
:10103000D3FF00BD00B50246FFF7C5FF100C2C49D9
:1010400020310880091D0A80FFF7C6FF00BD00207F
:101050002749103109880907080B254914310988E7
:101060000843704700BF2248001D008800F02000A0
:101070000028F8D070471E48001D00884FF6F77111
:1010800008401B49091D088000BF1948001D008841
:1010900000F008000028F8D0704701460020144AEC
:1010A000121D12880A400AB1012000E0002070479A
:1010B0000F49091D098881430D4A121D118070478F
:1010C000014600200A4A121D12880A40D0B2084A7E
:1010D00012880A4012B108B1012000E000207047D8
:1010E0000349091D09888143014A121D1180704777
:1010F0000028004010B50446FE48844208D1012172
:10110000C014FFF709FF0021E014FFF705FFC4E05A
:10111000B4F1804F08D101210846FFF70AFF0021F2
:101120000120FFF706FFB8E0F348844208D101210F
:101130000220FFF7FEFE00210220FFF7FAFEACE0DE
:10114000EE48844208D101210420FFF7F2FE00217D
:101150000420FFF7EEFEA0E0E948844208D1012117
:101160000820FFF7E6FE00210820FFF7E2FE94E0EA
:10117000E448844208D101211020FFF7DAFE002163
:101180001020FFF7D6FE88E0DF48844208D1012115
:101190002020FFF7CEFE00212020FFF7CAFE7CE0D2
:1011A000DA48844208D101214014FFF7B5FE00213E
:1011B0006014FFF7B1FE70E0D548844209D10121E7
:1011C000C804FFF7A9FE00214FF40020FFF7A4FE9A
:1011D00063E0D048844209D101210805FFF79CFE55
:1011E00000214FF48010FFF797FE56E0CA48844272
:1011F00009D101214805FFF78FFE00214FF40010AF
:10120000FFF78AFE49E0C548844208D10121402009
:10121000FFF78FFE00214020FFF78BFE3DE0C04826
:10122000844208D101218020FFF783FE0021802025
:10123000FFF77FFE31E0BB48844208D101218015D1
:10124000FFF777FE0021A015FFF773FE25E0B648F3
:10125000844209D101210804FFF75EFE00214FF40A
:101260008030FFF759FE18E0B048844209D10121CF
:101270004804FFF751FE00214FF40030FFF74CFE09
:101280000BE0AB48844208D101218804FFF744FEFB
:1012900000214FF48020FFF73FFE10BD002202889E
:1012A000944B98420ED0994B98420BD0B0F1804F9E
:1012B00008D0914B984205D0904B984202D0904B69
:1012C000984204D14FF68F731A404B881A438D4BC6
:1012D000984207D08C4B984204D04FF6FF431A40F7
:1012E000CB881A4302808B8883850B880385814BCA
:1012F00098420BD0854B984208D08B4B984205D032
:101300008A4B984202D08A4B984201D10B7A0386CD
:1013100001238382704770B5002400220023058CCE
:101320004FF6FE7635400584028C8388048B4FF699
:101330008F752C40B51E2C400D882C43751E2A40FD
:101340000D892A434D882A436A4DA8420BD06F4D20
:10135000A84208D0744DA84205D0744DA84202D0CE
:10136000734DA84213D14FF6F7752A404D892A4391
:101370004FF6FB752A408D882A434FF6FF652B40B8
:101380004FF6FF552B408D892B43CD892B4383800E
:101390000483CD888586028470BD70B50024002248
:1013A0000023058C4FF6EF7635400584028C838848
:1013B000048B48F6FF752C404FF6FF452C400D88F6
:1013C0004FF6FF7606EA05252C434FF6DF752A40D7
:1013D0000D8906EA05152A434D8806EA05152A43B4
:1013E000444DA84202D0494DA8421DD14FF67F7509
:1013F0002A404D894FF6FF7606EA05152A434FF637
:10140000BF752A408D8806EA05152A434FF6FF3539
:101410002B404FF2FF752B408D8906EA85052B4343
:10142000CD8906EA85052B4383800483CD88058713
:10143000028470BD70B5002400220023058C4FF695
:10144000FF6635400584028C8388848B4FF68F7548
:101450002C404FF6FC752C400D882C434FF6FF5561
:101460002A400D894FF6FF7606EA05252A434D8866
:1014700006EA05252A431F4DA84202D0234DA84263
:101480001DD14FF2FF752A404D894FF6FF7606EACF
:1014900005252A434FF6FF352A408D8806EA0525A3
:1014A0002A434EF6FF752B404DF6FF752B408D8974
:1014B00006EA05152B43CD8906EA05152B438380E3
:1014C0008483CD888587028470BD70B50022002397
:1014D0000024058C4EF6FF7635400584038C848805
:1014E000828B48F6FF752A404FF6FF452A400D884B
:1014F00020E00000002C01400004004000080040F3
:10150000000C004000100040001400400034014076
:10151000004C0140005001400054014000180040C0
:10152000001C0040002000400040014000440140F9
:10153000004801404FF6FF7606EA05252A434DF69E
:10154000FF752B400D8906EA05352B434D8806EAC9
:1015500005352B43FA4DA84202D0FA4DA84208D1D6
:101560004BF6FF752C408D894FF6FF7606EA851500
:101570002C4384808283CD88A0F84050038470BDC2
:10158000828B4FF2FF331A408283828B4FF6FF73B8
:1015900003EA01231A4382837047F0B50C461546CF
:1015A000002200210026078C4EF6FF7C07EA0C077C
:1015B0000784828B018C4FF6FF7707EA043640F6EA
:1015C000FF473A404FF6FF7707EA05273A434FF6C1
:1015D000FF7707EA03373A43D94FB8420ED0D94FC5
:1015E000B8420BD0B0F1804F08D0D74FB84205D0E9
:1015F000D64FB84202D0D64FB84206D14DF6FF774B
:10160000394046F48057394305E047F6FF573940E3
:1016100044F48057394382830184F0BD828B4FF6B6
:10162000F3731A408283828B0A4382837047F0B53A
:101630000C461546002200210026078C4FF6FF6C51
:1016400007EA0C070784828B018C4FF6FF7707EAC5
:1016500004264FF60C773A404FF6FF7707EA031758
:101660002F433A43B64FB8420ED0B64FB8420BD0D4
:10167000B0F1804F08D0B44FB84205D0B34FB84254
:1016800002D0B34FB84206D14FF6FF57394046F467
:101690008077394305E04FF2FF57394044F48077B3
:1016A000394382830184F0BD028B4FF2FF331A402D
:1016B0000283028B4FF6FF7303EA01231A4302836E
:1016C0007047F0B50C461546002200210026078C15
:1016D0004FF6EF7C07EA0C070784028B018C4FF66C
:1016E000FF7707EA041640F6FF473A404FF6FF77C8
:1016F00007EA03373A434FF6FF7707EA05273A43ED
:101700008F4FB8420ED08F4FB8420BD0B0F1804F00
:1017100008D08D4FB84205D08C4FB84202D08C4FC4
:10172000B84206D14FF6DF77394046F0100739430B
:1017300005E04FF65F77394044F0100739430283E4
:101740000184F0BD028B4FF6F3731A400283028BC3
:101750000A4302837047F0B50C461546002200216B
:10176000068C4FF6FE773E400684028B018C4FF6C6
:101770000C7632407E1C06EA03162E433243704E2E
:10178000B0420ED06F4EB0420BD0B0F1804F08D0B7
:101790006D4EB04205D06D4EB04202D06C4EB0429C
:1017A00006D14FF6FD76314044F00106314305E0A5
:1017B0004FF6F576314044F001063143028301844F
:1017C000F0BD70B505460C465D4885420ED05D48BB
:1017D00085420BD0B5F1804F08D05B48854205D0DB
:1017E0005A48854202D05A48854200D100E000BFE5
:1017F000208850B92389A28861882846FFF7ABFF6B
:10180000E1882846FFF79EFF25E0208804280AD1BA
:101810002389A28861882846FFF753FFE18828467C
:10182000FFF742FF17E0208808280AD12389A28801
:1018300061882846FFF7FBFEE1882846FFF7EEFEA9
:1018400009E02389A28861882846FFF7A6FEE1887F
:101850002846FFF795FE70BD2DE9F04105460C4680
:1018600000260127608808B9022600E00026A0882B
:10187000012801D1022700E001272088A0B923898F
:10188000A28861882846FFF766FFE1882846FFF7AF
:1018900059FF23893A4631462846FFF712FFE1886F
:1018A0002846FFF701FF13E02389A28861882846B4
:1018B000FFF707FFE1882846FFF7F6FE23893A463F
:1018C00031462846FFF747FFE1882846FFF73AFFF1
:1018D000BDE8F0810A884B881A438B881A43CB886D
:1018E0001A430B891A434B891A438B891A43A0F870
:1018F000442070474FF6FF71818000210180C18034
:101900004180017270470021018041808180C18047
:10191000018141818181C181704700210180418025
:10192000012181800021C180018170470021018057
:1019300041808180C18001814181818170470000A7
:10194000002C014000340140000400400008004029
:10195000000C004021B1028842F00102028004E044
:1019600002884FF6FE731A400280704731B1B0F81A
:10197000442042F40042A0F8442005E0B0F844209E
:10198000C2F30E02A0F8442070471AB183890B43BA
:10199000838102E083898B43838170478182704712
:1019A00041EA0203A0F8483070471AB183890B431B
:1019B000838102E083898B438381704701894FF6DD
:1019C000F8721140018170470A46002101894FF6E3
:1019D0008F73194011430181704730B504460D469D
:1019E00029462046FFF7F0FF208940F007002081BC
:1019F00030BD2DE9F04104460D4616461F46602DC8
:101A000006D13B46012231462046FFF75AFE05E04B
:101A10003B46012231462046FFF79DFE29462046DF
:101A2000FFF7D2FF208940F007002081BDE8F08158
:101A300030B50C4600210189C9B24FF6FF7505EAA1
:101A40000325154325432943018130BD2DE9F0418C
:101A500005460E4617469846002443463A46314608
:101A60002846FFF7E5FF2C894FF6F870044044F054
:101A700007044FF68F70044044F070042C81BDE8D9
:101A8000F081F0B504460D4616461F463B463246E9
:101A900029462046FFF7CCFF208940F48040208172
:101AA000F0BD0185828270470A46002101884FF609
:101AB0008F731940114301807047F0B50C461546ED
:101AC0001E460021002200230189028B038C4FF661
:101AD000F877394021434FF6FC473A4040F201176E
:101AE0003A434FF6DD773B404FF6FF7707EA06179C
:101AF0002F433B43018102830384F0BD0A4600214A
:101B0000018B4FF68F7319401143018370470A46CA
:101B10000021018B48F6FF7319404FF6FF7303EA6B
:101B200002231943018370470A460021818B4FF637
:101B30008F7319401143818370470A460021818BBE
:101B400048F6FF7319404FF6FF7303EA0223194367
:101B50008183704721B1028842F08002028004E054
:101B600002884FF67F731A400280704721B1828845
:101B700042F00402828004E082884FF6FB731A4030
:101B80008280704721B1828842F00802828004E09E
:101B900082884FF6F7731A408280704721B182889D
:101BA00042F00102828004E082884FF6FE731A4000
:101BB000828070470A460021018B4FF6F773194067
:101BC0001143018370470A460021018B4FF2FF73D6
:101BD00019404FF6FF7303EA02231943018370474C
:101BE0000A460021818B4FF6F77319401143818318
:101BF00070470A460021818B4FF2FF7319404FF660
:101C0000FF7303EA02231943818370470A460021C8
:101C1000018B4FF6FB7319401143018370470A464D
:101C20000021018B4FF6FF3319404FF6FF7303EA93
:101C300002231943018370470A460021818B4FF626
:101C4000FB7319401143818370470A460021818B41
:101C50004FF6FF3319404FF6FF7303EA022319438F
:101C6000818370470A460021018B4FF67F7319402C
:101C70001143018370470A460021018BC1F30E0115
:101C80004FF6FF7303EA02231943018370470A46A4
:101C90000021818B4FF67F73194011438183704778
:101CA0000A460021818BC1F30E014FF6FF7303EA50
:101CB00002231943818370470A460021018C4FF6A5
:101CC000FD7319401143018470470A460021018CBD
:101CD0004FF6F77319401143018470470A460021FB
:101CE000018C4FF6DF7319404FF6FF7303EA0213BE
:101CF0001943018470470A460021018C4FF67F7317
:101D000019404FF6FF7303EA021319430184704729
:101D10000A460021018C4FF6FF5319404FF6FF731E
:101D200003EA02231943018470470A460021018C0B
:101D30004FF2FF7319404FF6FF7303EA0223194372
:101D4000018470470A460021018C4DF6FF7319404B
:101D50004FF6FF7303EA023319430184704730B52D
:101D6000002301248C40A3B2048C9C430484048C83
:101D700002FA01F5ADB22C43048430BD30B5002326
:101D800004248C40A3B2048C9C430484048C02FA87
:101D900001F5ADB22C43048430BD70B5034600207C
:101DA00000241846183001258D40ACB21D8CA54387
:101DB0001D8409B1082909D100EB6100056825F0EF
:101DC000700505600568154305600EE00D1FC5F33D
:101DD0004E052844056825F4E045056005684FF682
:101DE000FF7606EA02263543056070BD21B1028800
:101DF00042F00202028004E002884FF6FD731A40AE
:101E00000280704721B1028842F00402028004E09F
:101E100002884FF6FB731A400280704721B1828816
:101E200042F08002828004E082884FF67F731A407D
:101E30008280704702884FF6F7731A40028002884A
:101E40000A430280704782884FF68F731A4082805F
:101E500082880A438280704702894FF6F8731A40DD
:101E6000028102890A430281704702894FF67F731B
:101E70001A40028102890A430281704781847047B7
:101E800081857047818670470187704781877047D9
:101E9000A0F84010704702884FF6FF431A400280B6
:101EA00002880A43028070470146888E70470146C7
:101EB000088F70470146888F70470146B1F840008F
:101EC00070470146888C70470146088D704702466E
:101ED0000020138A0B400BB1012000E00020704766
:101EE000CA430282704730B5024600200023002416
:101EF000158A05EA0103958905EA010413B10CB1BD
:101F0000012000E0002030BDCA430282704700007B
:101F100010B50446FB48844209D101218803FEF72D
:101F2000FBFF00214FF48040FEF7F6FF32E0F64859
:101F3000844209D101214804FEF7FBFF00214FF440
:101F40000030FEF7F6FF25E0F048844209D1012178
:101F50008804FEF7EEFF00214FF48020FEF7E9FF32
:101F600018E0EB48844209D10121C804FEF7E1FFE3
:101F700000214FF40020FEF7DCFF0BE0E54884422F
:101F800008D101210805FEF7D4FF00214FF480108D
:101F9000FEF7CFFF10BD2DE9F04786B005460E468F
:101FA0000024A24600BFA1460027B08900B100BFAF
:101FB0002F462C8A4CF6FF700440F08804432C8294
:101FC000AC894EF6F3100440B0883189084371891A
:101FD00008430443AC81AC8A4FF6FF400440B0890B
:101FE0000443AC8201A8FEF710FFC648874202D125
:101FF000DDF810A001E0DDF80CA0A88900F4004095
:1020000040B10AEBCA0000EB0A1031684900B0FB8E
:10201000F1F807E00AEBCA0000EB0A10316889000A
:10202000B0FBF1F86420B8FBF0F004012009642152
:1020300001FB1089A88900F4004040B1322000EB78
:10204000C900B0FBF1F000F00700044308E03220C3
:1020500000EB09106421B0FBF1F000F00F00044325
:102060002C8106B0BDE8F0874FF4165101600021C5
:102070008180C18001810C214181002181817047D3
:1020800010B502460020108A4FF2FF0318400B885B
:102090004C8823438C882343CC88234318431082E5
:1020A00010BD0021018041808180C180704721B135
:1020B000828942F40052828104E082894DF6FF73E6
:1020C0001A4082817047F0B503460024002600259F
:1020D000002040F66A17B94200D100BF1846C1F38C
:1020E000421401F01F06012707FA06F5012C01D161
:1020F0000C3004E0022C01D1103000E014301AB191
:1021000007682F43076002E00768AF430760F0BD30
:102110001AB1838A0B43838202E0838A8B438382D2
:102120007047028A4FF6F0731A400282028A0A430D
:102130000282704782894FF2FF731A40828182893E
:102140000A438281704721B1828942F00202828172
:1021500004E082894FF6FD731A4082817047028A3B
:102160004FF6DF731A400282028A0A4302827047E6
:1021700021B1028A42F48042028204E0028A4BF6D4
:10218000FF731A4002827047C1F3080282807047D1
:1021900001468888C0F308007047818941F0010139
:1021A00081817047028BD2B20283028B42EA012204
:1021B00002837047028B02F47F420283028B0A4340
:1021C0000283704721B1828A42F02002828204E0B9
:1021D000828A4FF6DF731A408282704721B1828A69
:1021E00042F01002828204E0828A4FF6EF731A40B6
:1021F0008282704721B1828A42F00802828204E022
:10220000828A4FF6F7731A408282704721B1828921
:1022100042F40042828103E08289C2F30E0282818D
:10222000704721B1828A42F40062828204E0828A8D
:102230004FF2FF731A4082827047828A4FF6FB7317
:102240001A408282828A0A438282704721B1828A3E
:1022500042F00202828204E0828A4FF6FD731A4045
:102260008282704702460020B1F5007F00D100BF96
:1022700013880B400BB1012000E00020704701F4EF
:102280000072B2F5007F00D100BFCA4302807047E0
:1022900070B50246002400230025002040F66A168F
:1022A000B14200D100BFC1F3421501F01F03012666
:1022B00006FA03F3012D02D19689334006E0022D80
:1022C00002D1168A334001E0968A33400C1201266F
:1022D00006FA04F41688344013B10CB1012000E072
:1022E000002070BD10B50022002340F66A14A14200
:1022F00000D100BF0A1201249440A3B2DC43048041
:1023000010BD00000038014000440040004800407B
:10231000004C00400050004030B5354800684FF494
:102320007A72B0FBF2F1B1F1807F01D301201DE0A0
:1023300021F07F40401E4FF0E022506150170F22E5
:10234000002807DA13071D0E2A4B00F00F04241F84
:102350001D5503E013071C0E274B1C5400BF002023
:102360004FF0E022906107201061002008B100BF0B
:10237000FEE730BD0146214A12784A434FF0E02380
:102380005A6100229A611A46126942F001021A61EA
:1023900000BF4FF0E022106900F001021AB100F412
:1023A0008032002AF5D04FF0E022126922F00102BB
:1023B0004FF0E0231A6100229A61704710490860CB
:1023C0004FF0E021096941F001014FF0E022116175
:1023D00000BF0B4909680029FBD170470848006815
:1023E00020B107480068401E05490860704700009A
:1023F0000000002018ED00E000E400E028000020CC
:102400002C0000202DE9F04104460D4690461E4662
:10241000012745B1F748002141638163818729463F
:10242000343002F094FAFF2C0AD800BFF24800883A
:1024300000F040000028F9D0EF49091D0C8003E0AE
:102440002146EEA001F020F9ADB1A6B10FE00A20BF
:10245000FFF7B4FFE74890F8480000F0010030B102
:1024600000270020E34981F84800487002E0701E10
:10247000061EECD100BF3846BDE8F08170B50325DB
:10248000032413E064230022DEA1DFA0FFF7BAFFDC
:102490000446032C04D14FF4FA60FFF78FFF03E0EA
:1024A0000CB1012C00D103E0681EC5B2002DE9D1AA
:1024B00000BF204670BD70B50325032413E0C82378
:1024C0000022D0A1D1A0FFF79DFF0446032C04D128
:1024D0004FF4FA60FFF772FF03E00CB1012C00D15A
:1024E00003E0681EC5B2002DE9D100BF4FF4FA60C9
:1024F000FFF764FF204670BD70B51425032414E077
:102500004FF4FA730022C3A1C5A0FFF77BFF044676
:10251000032C04D14FF4FA60FFF750FF03E00CB135
:10252000012C00D103E0681EC5B2002DE8D100BF28
:10253000204670BD70B50325032442F21070FFF7EA
:102540003DFF14E04FF47A730022AEA1B7A0FFF76D
:1025500059FF0446032C04D14FF4FA60FFF72EFF15
:1025600003E00CB1012C00D103E0681EC5B2002DC0
:10257000E8D100BF4FF4FA60FFF720FF204670BD9E
:1025800070B50325032414E04FF4FA730022AAA1C6
:10259000ABA0FFF737FF0446032C04D14FF4FA60D9
:1025A000FFF70CFF03E00CB1012C00D103E0681E23
:1025B000C5B2002DE8D100BF204670BD2DE9F04125
:1025C0008EB00326032400274FF00008342101A811
:1025D00002F054FA00253AE04FF4FA60FFF7EEFEFD
:1025E000C823002299A19BA0FFF70CFF0446032CEF
:1025F00004D14FF4FA60FFF7E1FE06E00CB1012CC4
:1026000003D101207B49487025E0F4B990A17948B5
:10261000493002F08AF9074690A1384602F085F960
:102620008046002088F80000B81C02F071F9C5B29D
:1026300015B901206F4948702A4689A101A802F006
:1026400001F801A96DA000F064FF701EC6B2052D4F
:1026500001DA002EC0D100BF20460EB0BDE8F081E7
:102660002DE9F04100250027032603241DE0C8239F
:10267000002264A17DA0FFF7C5FE0446032C04D10F
:102680004FF4FA60FFF79AFE0DE04CB977A1594874
:10269000493002F04AF900B909E0FFF70CFF02E007
:1026A000012C00D103E0701EC6B2002EDFD100BFA6
:1026B0009CB9504F493715216E4802F0BDF90025ED
:1026C00005E0B81C405D6B494855681CC5B2142D27
:1026D000F7DB684968A000F01CFF2046BDE8F081E8
:1026E0002DE9F0419AB005460E4617464FF0030813
:1026F0000324642101A802F0C1F96348009750F84F
:102700002520334661A101A801F09CFF3FE043F67C
:102710009823002264A101A8FFF774FE0446032C4D
:1027200004D14FF4FA60FFF749FE03E00CB1012C2D
:1027300000D12FE0A8F1010000F0FF084FF4FA7378
:10274000002230A15AA0FFF75DFE0446FCB95CA14F
:102750002848493002F0E9F818B120461AB0BDE81F
:10276000F0815AA12348493002F0DFF878B14FF4E4
:10277000FA73002257A15AA0FFF744FE04464FF413
:10278000FA7300225AA15CA0FFF73CFE0446B8F1A0
:10279000000FBCD100BF2046E0E710B50324594824
:1027A0000268594801680020FFF79AFF041E01D112
:1027B00010498870204610BD70B50325032414E02D
:1027C0004FF4FA73002243A145A0FFF71BFE044615
:1027D000032C04D14FF4FA60FFF7F0FD03E00CB1D5
:1027E000012C00D103E0681EC5B2002DE8D100BF66
:1027F000204670BD540100200048004025730D0A9A
:10280000000000004F4B000041540000415445308F
:10281000000000002B435245473A20302C31000085
:1028200041542B435245473F0000000041542B4385
:1028300050494E3F000000004348494E410000000F
:1028400041542B434F50533F000000002B43535142
:102850003A00000041542B43535100002C0000006B
:10286000D0C5BAC5D6CAC1BF3A25640041542B436E
:1028700043494400420A002049434349445F4255CA
:10288000463A25730D0A00003400002041542B43C2
:10289000495053544152543D222573222C22257312
:1028A000222C222573220000434F4E4E45435400F4
:1028B00041542B4349505354415455530000000098
:1028C000434F4E4E454354204F4B0000434C4F5313
:1028D00045440000434C4F5345204F4B000000003F
:1028E00041542B434950434C4F53453D3100000068
:1028F00053485554204F4B0041542B4349505348A3
:1029000055540000400000203C00002070B5032515
:10291000032415E04FF47A730022AFF21811F7A0E8
:10292000FFF770FD0446032C04D14FF4FA60FFF763
:1029300045FD03E00CB1012C00D103E0681EC5B2D7
:10294000002DE7D100BF4FF4FA60FFF737FD2046B6
:1029500070BD70B50325032415E04FF416730022F3
:10296000AFF26011E8A0FFF74DFD0446032C04D13F
:102970004FF4FA60FFF722FD03E00CB1012C00D107
:1029800003E0681EC5B2002DE7D100BF4FF4FA6026
:10299000FFF714FD204670BD70B50325032415E034
:1029A0004FF496730022AFF2A411DCA0FFF72AFDCA
:1029B0000446032C04D14FF4FA60FFF7FFFC03E058
:1029C0000CB1012C00D103E0681EC5B2002DE7D187
:1029D00000BF204670BD70B50325032416E04FF4F8
:1029E0007A730022AFF2F801AFF2F400FFF70AFDAC
:1029F0000446032C04D14FF4FA60FFF7DFFC03E038
:102A00000CB1012C00D103E0681EC5B2002DE6D147
:102A100000BF4FF4FA60FFF7D1FC204670BD70B5DF
:102A20000325032415E04FF496730022AFF22C2106
:102A3000BEA0FFF7E7FC0446032C04D14FF4FA6074
:102A4000FFF7BCFC03E00CB1012C00D103E0681ED1
:102A5000C5B2002DE7D100BF4FF4FA60FFF7AEFC1E
:102A6000204670BD70B50325032415E04FF416739E
:102A70000022AFF27021B1A0FFF7C4FC0446032C82
:102A800004D14FF4FA60FFF799FC03E00CB1012C7C
:102A900000D103E0681EC5B2002DE7D100BF4FF49E
:102AA000FA60FFF78BFC204670BD10B50324C823E5
:102AB0000022AFF2B021A8A0FFF7A4FC04462046F4
:102AC00010BD10B50324C8230022AFF2C821AAA06C
:102AD000FFF798FC0446204610BD10B50324C82318
:102AE0000022AFF2E021ABA0FFF78CFC04462046A9
:102AF00010BD10B50324C8230022AFF2F821A9A00D
:102B0000FFF780FC0446204610BD10B50324C823FF
:102B10000022ACA1AEA0FFF775FC0446204610BD14
:102B200010B50324C8230022AFF22831AAA0FFF772
:102B300069FC0446204610BD10B50324C8230022BA
:102B4000AFF2403193A0FFF75DFC0446204610BD74
:102B500010B50324C8230022A3A1A5A0FFF752FCAF
:102B60000446204610BD70B505460324A4A000F01D
:102B7000D0FC0020A74981F84800084600214163A5
:102B8000816381873221A44801F056FF4FF4FA7324
:102B90000022A2A1A2A0FFF735FC04467CB9294679
:102BA000A2A000F071FD6420FFF708FC40F6B833E6
:102BB00000229FA11A20FFF725FC04460AE001200D
:102BC0009449487021469CA000F0A3FC0121A04834
:102BD000FEF7C0FE21469FA000F09BFC204670BD82
:102BE00070B50325032415E04FF47A730022AFF289
:102BF000EC319EA0FFF706FC0446032C04D14FF4F1
:102C0000FA60FFF7DBFB03E00CB1012C00D103E01D
:102C1000681EC5B2002DE7D100BF4FF4FA60FFF780
:102C2000CDFB204670BD70B50325032414E0C823F6
:102C30000022AFF2304190A0FFF7E4FB0446032CE2
:102C400004D14FF4FA60FFF7B9FB03E00CB1012C9B
:102C500000D103E0681EC5B2002DE8D100BF4FF4DB
:102C6000FA60FFF7ABFB204670BD70B50325032467
:102C700014E0C8230022AFF2744184A0FFF7C2FB26
:102C80000446032C04D14FF4FA60FFF797FB03E0EE
:102C90000CB1012C00D103E0681EC5B2002DE8D1B3
:102CA00000BF4FF4FA60FFF789FB204670BD30B5D6
:102CB00087B005460C4658483238A0F11801C9685B
:102CC000A0F118029278CDE9041403920690183806
:102CD000C08851494A3909694F4A4A3A5269CDE98F
:102CE000002102904C484A38037802796B49284603
:102CF00001F0A8FC284607B030BD000041542B432A
:102D0000474154543D31000041542B4349504353F3
:102D100047503D312C22434D2200000041542B43AB
:102D20004950484541443D310000000041542B4387
:102D300047434C4153533D224222000041542B4310
:102D40004744434F4E543D312C224950222C2243BC
:102D50004D4E45542200000041542B5341504252E5
:102D60003D332C312C22436F6E74797065222C22F6
:102D7000475052532200000041542B5341504252BD
:102D80003D332C312C2241504E222C22434D4E45B6
:102D90005422000041542B53415042523D312C31BA
:102DA0000000000041542B434E54503D226E74707D
:102DB000312E616C6979756E2E636F6D222C333202
:102DC000000000002B434E54503A20310000000018
:102DD00041542B434E54500041542B5341504252C6
:102DE0003D302C3100000000302E302E302E3000CF
:102DF00041542B53415042523D322C3100000000CF
:102E0000D7BCB1B8BFAACABCB7A2CBCDCAFDBEDD84
:102E10000D0A000054010020A20A00203E0000001C
:102E200041542B43495053454E4400002573000044
:102E300053454E44204F4B00B7A2CBCDCAA7B0DCC0
:102E4000A3ACD7B4CCAC3A2025640D0A0000000036
:102E5000000C0040D2D1CDEAB3C9D2BBB4CEB7A2E8
:102E6000CBCD3A2025640D0A0000000041542B43CD
:102E70004D47463D3100000041542B43534D503DDA
:102E800031372C3136372C302C30000041542B4355
:102E90005343533D2247534D22000000A4620008D3
:102EA00070B59AB004460D460326642101A801F0CE
:102EB000E5FDFFF7E3FA061E35D1FFF7FCFA061E23
:102EC00031D1FFF737FB061E2DD1FFF7CEFE0028CC
:102ED00029D1FFF785FE061E25D1FFF7A4FE061EA9
:102EE00021D12246A8A101A801F0ACFBC8230022F1
:102EF000AFF2D80101A8FFF785FAA0B92946A6A02C
:102F000000F007FB2946AFF2DC0000F0BDFB4FF4F8
:102F1000FA70FFF753FA4FF4FA630022A1A11A20C6
:102F2000FFF770FA064630461AB070BD10B503249C
:102F3000FFF7A4FA041E02D001209C494870FFF755
:102F4000BAFA041E02D0012098494870FFF7D4FA5B
:102F5000041E02D0012095494870FFF7EBFA041EC9
:102F600002D0012091494870FFF728FB041E02D0CF
:102F700001208E494870FFF773FB041E02D0012028
:102F80008A494870FFF727FD041E02D001208749B7
:102F90004870FFF744FD041E02D0012083494870A9
:102FA000FFF760FD041E02D0012080494870804870
:102FB0000268804801680020FFF792FB041E02D0DF
:102FC00001207A49487000207849087010BD70B51A
:102FD0000525032406E0FFF7A9FF044604B903E032
:102FE000681EC5B2002DF6D100BF204670BD70B579
:102FF0000525032406E0FFF7EAFF044604B903E0D1
:10300000681EC5B2002DF6D100BF204670BD10B5B8
:1030100002460B46002000211078012103E0545C99
:1030200060404C1CE1B29942F9DB10BD10B503249D
:1030300000F007F9604A5E4801685E48006800F0E9
:103040002FF95E48FFF78FFD0446204610BD7CB582
:1030500000240025FFF72FFA041E1ED1FFF725FDDF
:10306000041E1AD1FFF72DFD041E16D1FFF770FDC7
:1030700008B9012000E00020041E0ED0C823002261
:10308000AFF680014EA0FFF7BDF9C8230022AFF6CE
:103090008C01AFF20030FFF7B5F9FFF72AFD041EEF
:1030A00064D1FFF732FD041E60D1C823002248A17D
:1030B00049A0FFF7A7F9002858D13C4890F85400E0
:1030C00030383A4991F85310303901EB810100EB67
:1030D000410000F5FA6043498880344890F8570071
:1030E0003038324991F85610303901EB810100EB4C
:1030F00041003C4988712D4890F85A0030382B49DE
:1031000091F85910303901EB810100EB410035494C
:10311000C871264890F85D003038244991F85C1059
:10312000303901EB810100EB41002E4908701F4846
:1031300090F8600030381D4991F85F10303901EB8C
:10314000810100EB410027494870184890F863005E
:103150003038164991F86210303901EB810100EBEB
:1031600041002049887020A000F0D3F91D488078E4
:103170001C4949781B4ECDE900103378F279B179BA
:10318000B08800F03AFE7CBD41542B434D47533D7F
:10319000222573220D0A0000534D533A2025730D4A
:1031A0000A0000002B434D47533A00005401002011
:1031B000400000203C000020A7010020A1100020BA
:1031C00041542B434E54504349443D3100000000CC
:1031D0002B43434C4B3A000041542B43434C4B3F51
:1031E0000000000048160020CAB1BCE4B8FCD0C200
:1031F0000D0A0000F0B50446154600201EE0265CCE
:103200003211265C06F00F033032392A03DDD61D59
:1032100001F8106001E001F8102003F13006F3B26C
:10322000392B05DDDE1D012707EB4007CE5503E0F6
:10323000012606EB40068B55461C30B2A842DEDB69
:10324000F0BD00B585B04D484D49D0F80C22FFF7D0
:10325000D1FF4A4880784006000E4A490870084667
:1032600002784749891D484801F02FFC00F074FEA0
:103270004648C07945498979444A5279434BDB78BD
:10328000CDE90132CDE903104048807800903F48F5
:1032900003883D4A3EA14B4801F0D4F905B000BD7A
:1032A00070B58CB005460E4614462C2246A101A8E6
:1032B00001F090FB314890F8020149F64141084481
:1032C0004C4908804C4BA3F11A024CA1564800947B
:1032D00001F0B8F9544A55A1554801F0B3F90CB0C2
:1032E00070BD70B50024C82552480068284447F6D0
:1032F000FD71884217DC00BF0AE0324A115D4D4A79
:103300001268101901F097F80520FFF757F8641CB0
:10331000AC42F2DB4748006828444649086046A0B2
:1033200000F0F7F818E043480068284447F6FD71BC
:10333000884211DD64203F490860002407E0214AEB
:10334000115D3C4A1268101901F075F8641CAC421A
:10335000F5DB3DA000F0DDF870BD10B514210A4882
:1033600001F06AFB4FF4BE71314801F065FB4FF488
:10337000A0712D4801F060FB10BD0000201400205A
:10338000DC0C002052000020DB0D00204801002052
:10339000646174613A222573222C0920200D0A20D1
:1033A00074696D653A2225642E253032642E2530ED
:1033B000326420253032643A253032643A25303286
:1033C00064220000A7010020436F6E74656E742DA7
:1033D000547970653A6170706C69636174696F6E7D
:1033E0002F6A736F6E2D70617463682B6A736F6ED2
:1033F0000D0A000050000020770100207B0D0A20FC
:103400006D616368696E6569643A222573222C0DCB
:103410000A2073696D69643A222573222C0D0A25EE
:10342000730D0A7D000000009C0B00202573000036
:10343000A110002054000020D0B4C8EBD3A6BCB12A
:10344000726F6D0D0A000000D0B4C2FAC1CB2CB46B
:10345000D3CDB7D0B40D0A0010B586B00446012113
:103460004804FDF74CFD01210420FDF73BFD04203D
:10347000ADF8140003208DF8160018208DF8170001
:1034800005A93848FDF70CFA0820ADF8140004200F
:103490008DF8170005A93348FDF702FA26208DF8AC
:1034A000000003208DF801008DF8020001208DF846
:1034B00003006846FDF7C9F801940020ADF8080044
:1034C000ADF80A00ADF80C00ADF810000C20ADF816
:1034D0000E0001A92448FEF75EFD012240F22551AD
:1034E0002148FEF7F0FD01211F48FEF7E0FD06B080
:1034F00010BD70B504460D46E1B21C48FEF744FE0F
:1035000000BF80211948FEF7ADFE0028F9D0204603
:1035100070BD0FB410B5B4B0002437A80190C82115
:1035200002A8019B369A01F073F80EE02046621C57
:10353000D4B202AA115C0C48FEF726FE00BF40215F
:103540000948FEF78FFE0028F9D0C72C03DA02A83D
:10355000005D0028EAD10020019034B010BC5DF875
:1035600014FB000000080140004400400038014006
:1035700010B540F225516048FEF78AFE28B35E4838
:10358000FEF706FEC4B25D48008800F40040E0B9D2
:103590005A480088FF2812DC00215948FEF76EFCCB
:1035A0005648008818B901215548FEF7D3F9534908
:1035B0000888411C514A118052490C5405E04F487B
:1035C000008840F400404D49088010BD10B586B019
:1035D000044601210820FDF785FC01218804FDF740
:1035E0008EFC4548FEF794FC4FF48060ADF8100067
:1035F00003208DF8120018208DF8130004A942480A
:10360000FDF74EF94FF40060ADF8100004208DF87E
:10361000130004A93C48FDF743F900940020ADF8DD
:103620000400ADF80600ADF80800ADF80C000C2061
:10363000ADF80A0069463048FEF7ADFC01212E487E
:10364000FEF735FD012240F225512B48FEF73BFDE8
:1036500027208DF8140000208DF815008DF8160035
:1036600001208DF8170005A8FCF7EFFF40F65F1169
:10367000632000F02AF9002020490880002120481A
:10368000FEF768F906B010BD0FB438B505A8009074
:103690004FF480711D4801F0CFF91C48009A04993D
:1036A00000F0A4FF00200090184801F074F985B2E2
:1036B000164917A0FFF72DFF00240DE000BF4021A1
:1036C0000D48FEF7CFFD0028F9D01048015D0A48EB
:1036D000FEF75AFD601C84B2AC42EFDB38BC5DF8EB
:1036E00014FB10B54FF48071064801F0A5F90020D5
:1036F0000249088010BD0000004800402E01002053
:10370000001400401D120020000C01401D13002079
:10371000533A2025730D0A0010B501219548FEF794
:10372000E2FBE0B101219348FEF7EEFB924800680E
:10373000401C9149086091480068401C8F4908600E
:103740008D4800681E2803D101208D49087006E0CD
:10375000894800681E2802DD00208749086010BDE6
:103760002DE9F0410024002500260027012185488D
:10377000FEF7B9FB00284ED001218248FEF7C4FBBA
:103780008148008840F400407F49088000217D483E
:10379000FEF7E0F800207C490988C1F30E017B4A5E
:1037A000505411467AA0FFF7B4FE7DA1774801F08E
:1037B000BCF848B97CA1754801F0B7F820B97DA1E3
:1037C000724801F0B2F818B101206D49887022E00A
:1037D0007BA16B48343001F0A8F838B179A16B486F
:1037E00001F0A3F810B101206549887064493431B3
:1037F000664801F09AF860B16148493000210160E3
:1038000041600181614901F0A2F801205C4981F821
:103810004800FFF766FFBDE8F08110B501216B4855
:10382000FEF761FB38B301216848FEF76DFB68487D
:103830000068782805DA66480068401C644908601A
:1038400019E063480068782815DB62480068401C6E
:103850006049086000205E4908600120484988707E
:103860005DA0FFF756FE00215848FEF707FB002138
:103870005648FEF76FF810BD7FB505460C4601218E
:103880001020FDF73CFBADF80450ADF800400020DF
:10389000ADF80600ADF8020069463648FDF7FEFCBB
:1038A000012211463348FEF770F836208DF80C00DF
:1038B00002208DF80D0000208DF80E0001208DF8FB
:1038C0000F0003A8FCF7C1FE7FBD7FB505460C467F
:1038D00001212020FDF713FBADF80450ADF80040A6
:1038E0000020ADF80600ADF8020069462548FDF756
:1038F000D5FC012211462348FEF747F80121214853
:10390000FEF728F837208DF80C0002208DF80D0006
:1039100000208DF80E0001208DF80F0003A8FCF7A1
:1039200094FE7FBD7FB505460C4601210820FDF7BA
:10393000E6FAADF80450ADF800400020ADF80600FE
:10394000ADF8020069462148FDF7A8FC01221146A6
:103950001E48FEF71AF832208DF80C0003208DF86F
:103960000D0001208DF80E008DF80F0003A8FCF764
:103970006CFE7FBD001000403001002034010020AB
:1039800054010020001400402E0100201D120020D0
:103990005553415254204255463A25730D0A0000B2
:1039A000434C4F53454400005044503A2044454155
:1039B000435400005044502044454143540000000B
:1039C0003E0000004552524F52000000000C0040E3
:1039D000380100203C01002032B7D6D6D3B9FDC84B
:1039E000A5C1CB0010B504465748D0F80002C8B9AD
:1039F0005548C0F800424FF400415448FCF7FDFF21
:103A000000205149C1F80802012081F81802002065
:103A1000C1F81C02012240F227714D48FEF753FB0A
:103A2000012010BD0020FCE7F0B502460B46002047
:103A3000FF24FF2509E012F8016B86EA0501454ED7
:103A4000765C86EA0405444E745C1E1EA3F10107F1
:103A5000BBB2F0D14619B0B24FF6FF7606EA0020AD
:103A60000619B0B2F0BDF0B504460D46FF23FF269F
:103A700000210BE0625C5A40D0B2364F385C80EADD
:103A80000603D0B2344F3E5C481C81B2A942F1DB40
:103A900006EB032080B2F0BD2DE9F04707460D4646
:103AA0001646A819A0F101092C48077003202B49DC
:103AB0004870084645808680002402782146641CB0
:103AC0002148FF304254254842782146641C1E4854
:103AD000FF3042542148408802122146641C1A4893
:103AE000FF3042541D4882782146641C1648FF303E
:103AF00042541A48808802122146641C1248FF3042
:103B00004254164802792146641C0F48FF30425443
:103B10002146FFF7A8FF80464FEA28222146641C71
:103B20000948FF3042542046611CCCB20649FF319F
:103B300001F800800020FF39C1F80C022046FFF791
:103B400051FFBDE8F087000020140020000801406C
:103B500000380140B45F0008B46000084001002054
:103B600000B587B0012144F20400FDF7BBF991488C
:103B7000FEF7CEF94FF40070ADF8180003208DF871
:103B80001A0018208DF81B0006A98B48FCF788FE48
:103B90004FF48060ADF8180004208DF81B0006A9D2
:103BA0008548FCF77DFE4FF4165002900020ADF8DA
:103BB0000C00ADF80E00ADF81000ADF814000C20AC
:103BC000ADF8120002A97B48FEF7E5F925208DF833
:103BD000040002208DF8050003208DF80600012066
:103BE0008DF8070001A8FCF730FD012240F22551B5
:103BF0007048FEF768FA01216E48FEF758FA07B0E0
:103C000000BD70B5002400256C4890F81802032808
:103C10001AD16A48B0F80C0284B2A01E67490D5C44
:103C2000601E085C00EB052085B2A01E81B26348CF
:103C3000FFF719FFA84205D10020604981F818025A
:103C4000012070BD0020FCE70020FAE710B5002439
:103C500040F225515748FEF71BFBB0B100205749F1
:103C6000C1F810025348FEF793FAC4B2534890F8D3
:103C7000190250B95148D0F80C12D0F80C02401C6F
:103C80004E4AC2F80C021046445440F2277149488B
:103C9000FEF7FEFAD0B3494890F81802012835D152
:103CA0004648D0F808024549D1F8001288420FD2A0
:103CB0004248D0F80822D0F80802401C3F4BC3F815
:103CC000080203F1FF00815C3A48FEF75DFA1DE04F
:103CD000002240F227713748FEF7F5F9012240F241
:103CE00025513448FEF7EFF900203449C1F80002AD
:103CF000C1F80802C1F80C02022081F81802002065
:103D0000C1F81C02C1F82002C1F8100210BD10B5A4
:103D1000FEF764FB2948D0F80C02A8B1274890F8B8
:103D2000190288B92548D0F81002401C2349C1F86F
:103D300010020846D0F810020A2805D9012081F89F
:103D40001902032081F818021C4890F81802022872
:103D50001CD11A48D0F82002401C1849C1F8200292
:103D6000022813D34FF400411348FCF748FE00200B
:103D7000124981F81902084690F81802012805D165
:103D80006420C1F81402022081F8180210BD10B599
:103D90000A48D0F8041200F071FE0848D0F800126A
:103DA000FF3000F049FE00200449C1F80C02C1F8C0
:103DB000080210BD00380140000801402014002016
:103DC0000146CA1701EB92729210A1EB820292B9DE
:103DD000642091FBF0F200FB121050B94FF4C87050
:103DE00091FBF0F200FB121008B90120704700208F
:103DF000FCE70120FAE70020F8E72DE9F05F06462E
:103E00000F4690469946DDE90AAB002440F2B270B5
:103E1000864203DB40F63300864202DD0120BDE826
:103E2000F09F40F2B2750AE02846FFF7C9FF10B1D3
:103E3000A848044401E0A8480444681C85B2B5427F
:103E4000F2DB781EC7B2002510E0A448405D40F2C6
:103E5000A321484304EBC0143046FFF7B1FF18B16B
:103E6000012D01D19E480444681C85B2BD42ECDBA3
:103E7000A8F1010040F2A321484304EBC014C9EBB0
:103E80004910C0EB092004EB0014CAEB0A1004EB44
:103E900080045C44FDF7E6F82046FDF7B0F8FDF736
:103EA000E1F80020BBE71CB5002000900346132278
:103EB0000B21019040F2E270FFF79FFF1CBD10B58F
:103EC00001214FF0C050FDF71AF80120FCF741FE28
:103ED0000420FCF758FC45F25551884229D0FCF7E4
:103EE0001DFC0120FCF76BFF00BF4120FCF7CFFE5B
:103EF0000028FAD04FF48070FCF77DFF0120FCF71A
:103F000080FFFDF7B8F8FDF7ADF801210846FDF791
:103F10004DF8FDF7A7F847F6FF70FDF77DF8FDF7C0
:103F2000A1F8FFF7C0FF45F255510420FCF71FFC34
:103F30000EE07B20FCF7ABFE10B97A20FCF7A7FE61
:103F4000FDF799F801210846FDF730F8FDF78AF8EA
:103F5000FDF706F8002010BD70B5002600240025EE
:103F6000FDF744F806465E48B6FBF0F100FB11642D
:103F70004FF46160B4FBF0F05A4948714FF461604E
:103F8000B4FBF0F100FB11403C21B0FBF1F05549CE
:103F900088714FF46160B4FBF0F100FB11403C21EB
:103FA000B0FBF1F201FB12004E49C8714C48B6FB60
:103FB000F0F44D480088A0423CD04B490C8040F2C0
:103FC000B27510E02846FFF7FBFE40B1B4F5B77FAD
:103FD00002D3A4F5B77404E0681C85B206E0A4F22D
:103FE0006D14681C85B2B4F5B67FEBD800BF3D48B0
:103FF0000580002516E03B490888FFF7E1FE30B157
:10400000012D04D11D2C01D31D3C09E00CE03348E7
:10401000405DA04203D83148405D241A00E003E02F
:10402000681C85B21C2CE6D200BF681C2D49887024
:10403000601CC870002070BDF0B503460C461546E4
:10404000642093FBF0F0C6B2642093FBF0F700FB12
:104050001730C1B2132E02DD01F16400C1B208466F
:10406000CF1701EB977701EBA707BAB2072092FBB6
:10407000F0F700FB172082B25719601EDFF86CC002
:104080001CF80000384482B2CF1701EB9777BF10BD
:10409000A1EB87071FB9032C01DA501E82B207205B
:1040A00092FBF0F700FB1720C0B2F0BD10B5012065
:1040B000FDF706F808B1FFF74FFF0220FDF700F803
:1040C00010B10220FDF70CF80120FDF709F8FCF70C
:1040D000C9FF10BD0085E2018033E101C061000825
:1040E000805101004801002050010020B461000807
:1040F0001CB500243F223449002000F027FA33A0E9
:10410000FFF707FA34A0FFF704FA344800210160F2
:1041100041600181817208222B49C91C1A3800F0C4
:10412000D4FC0B22284911312C4800F0CEFC02228D
:104130002549233129481D3800F0C7FC0F222249A8
:104140002A312648103800F0C0FC04221E493A31BA
:1041500022480C3000F0B9FC20480C30A0F11C01C2
:10416000A0F129031D4ACDE900100A391CA0FFF770
:10417000D0F91A491FA0FFF7CCF918491D3920A022
:10418000FFF7C7F91549103920A0FFF7C2F9134905
:104190000C3120A0FFF7BDF91CBD10B54FF417720C
:1041A0001F49642000F0D2F91EA0FFF7B2F921A147
:1041B0001B4800F0BAFB28B11948FEF7D4FC1FA039
:1041C000FFF7A7F910BD000098160020B6C1C8A1DE
:1041D000C5E4D6C3B3C9B9A60D0A00007701002013
:1041E000BBFAC6F7C2EB25732573257325732573B8
:1041F0000D0A0000CAD6BBFABAC525730D0A000025
:10420000BCE4B8F425730D0A000000006970257342
:104210000D0A0000B6CBBFDA25730D0A00000000BE
:10422000ED160020B6C1B3F6C1CBB1B8B7DDA3BA65
:10423000000000006461746100000000B7A2CBCDF3
:10424000C1CBB1B8B7DDA3BA0000000008E0421E40
:1042500090B2002101E04A1C91B2B1F52F7FFADB48
:104260000028F4D17047002107E0002201E0531C30
:104270009AB2052AFBDB4B1C99B28142F5DB7047F1
:1042800010B54FF40041D848FCF7B7FB0120FFF709
:10429000EAFF4FF48041D448FCF7AFFB0120FFF761
:1042A000E2FF4FF40041D048FCF7A9FB0120FFF7E3
:1042B000DAFF4FF48041CC48FCF7A1FB10BD10B5EC
:1042C0004FF40041C848FCF79AFB0120FFF7CBFFF1
:1042D0004FF48041C448FCF790FB0120FFF7C3FF77
:1042E0004FF40041C048FCF788FB0120FFF7BBFFFB
:1042F0004FF48041BC48FCF782FB10BD38B5482024
:104300008DF8030003208DF802004FF40040ADF853
:1043100000006946B448FCF7C3FA4FF48041B24844
:10432000FCF76BFB4FF47A750AE04FF40041AE489E
:10433000FCF749FB012801D1002401E0012403E03E
:10434000281EA5F10105F0D100BF4FF48041A64819
:10435000FCF755FB10208DF803006946A248FCF7D6
:104360009FFA204638BD70B50446002524E004F0CD
:10437000800028B14FF400419B48FCF73EFB04E06D
:104380004FF400419848FCF73AFB6006040E012008
:10439000FFF769FF4FF480419348FCF72EFB0120A3
:1043A000FFF761FF4FF480418F48FCF728FB0120A5
:1043B000FFF759FF681CC5B2082DD8DB70BDF8B5F2
:1043C000002548208DF803004FF40040ADF80000B0
:1043D00003208DF8020069468348FCF761FA002447
:1043E0001EE04FF480418048FCF707FB0120FFF7F7
:1043F0003AFF4FF400417C48FCF7E5FA012801D16F
:10440000012600E0002646EA4500C5B24FF480418F
:104410007548FCF7F4FA0120FFF725FF601CC4B2D1
:10442000082CDEDB10208DF8030069466E48FCF78F
:1044300037FA2846F8BD70B504460D46FFF720FF51
:10444000A020FFF790FFFFF759FF08B9002070BDCB
:104450002012FFF788FFFFF751FF08B90020F6E7A9
:10446000E0B2FFF780FFFFF749FF08B90020EEE751
:104470002846FFF778FFFFF741FF08B90020E6E77D
:10448000FFF71DFF0F20FFF7E1FE0120DFE770B50A
:1044900004460D461646FFF7F3FEA020FFF763FF24
:1044A000FFF72CFF08B9002070BD2012FFF75BFF5B
:1044B000FFF724FF08B90020F6E7E0B2FFF753FF4B
:1044C000FFF71CFF08B90020EEE708E02878FFF7A7
:1044D0004AFF6D1CFFF712FF08B90020E4E7301E09
:1044E000A6F101018EB2F1D1FFF7E9FE0120DBE771
:1044F00070B50446FFF7C4FEA020FFF734FFFFF7B6
:10450000FDFE08B9002070BDC4F30720FFF72BFFA4
:10451000FFF7F4FE08B90020F5E7E0B2FFF723FF4C
:10452000FFF7ECFE08B90020EDE7FFF7A9FEA12098
:10453000FFF719FFFFF7E2FE08B90020E3E7FFF7F6
:104540003EFF0546FFF7BBFE2846DCE770B5044694
:104550000D461646FFF794FEA020FFF704FFFFF775
:10456000CDFE08B9002070BDC4F30720FFF7FBFEA5
:10457000FFF7C4FE08B90020F5E7E0B2FFF7F3FE4D
:10458000FFF7BCFE08B90020EDE70FE0FFF778FE6B
:10459000A120FFF7E8FEFFF7B1FE08B90020E2E72F
:1045A000FFF70DFF28706D1CFFF789FE301EA6F186
:1045B0000106EBD10520FFF756FE00BFD3E708B593
:1045C00001214020FCF78EFC4FF44040ADF8000084
:1045D00003208DF8020010208DF803006946024880
:1045E000FCF75EF908BD0000001801401CB50C4640
:1045F000064B7B4469460090204600F01EFB0446B3
:104600000020694600F02CFB20461CBD6B06000014
:104610007CB51D4616460C00009001D02044401E7B
:10462000074B7B442A4669460190304600F005FB63
:1046300005461CB10020694600F012FB28467CBDEF
:10464000450600000FB41CB5084B06AA7B4469461A
:104650000090059800F0F1FA04460020694600F049
:10466000FFFA20461CBC5DF814FB00001106000098
:1046700070B5044685690068C10601D5302600E0A2
:104680002026C00707D070BDD4E9012130469047ED
:10469000206A401C20626D1EF6D570BD70B50446C0
:1046A00085690078C00707D170BDD4E901212020B9
:1046B0009047206A401C20626D1EF6D570BD70B513
:1046C0000C460546012A05D02878800600D5EA69FF
:1046D000002302E0012305E05B1C934202D2E05C70
:1046E0000028F9D1A869E618C01AA861286A1844F8
:1046F00028622846FFF7BCFF04E0D5E9012114F841
:10470000010B9047B442F8D32846FFF7C7FF70BDAE
:104710002DE9F0410646002410687529314616A59A
:1047200010D000F005FA002802DA404213A507E095
:1047300031688A0701D512A502E0490704D511A501
:10474000012401E000F0FDF900210A2206F124070E
:1047500009E0B0FBF2FCB0FBF2F302FB1C003030CE
:1047600078541846491C0028F3D123462A4630467F
:10477000BDE8F04100F0EEB9000000002D0000009F
:104780002B000000200000002DE9F05F8946044660
:104790004FF0000ADFF874B1FB44C0F820A02046B7
:1047A000E1688847002874D0252806D0D4E9012183
:1047B0009047206A401C2062F1E700265F462046B1
:1047C000E16888472028054607DB312D05D2781996
:1047D00010F8200C08B10643F1E7B00701D526F028
:1047E0000406C4F81CA00027C4F818A02A2D09D07C
:1047F000284601F0AAFB38B304EB8708303DC8F81F
:10480000185019E059F8041B204604EB8702916107
:10481000E1688847012F054618D1E069002820DAB1
:1048200026F020061DE0D8F8180000EB800005EB0C
:1048300040003038C8F818002046E168884705462F
:1048400001F083FB0028EED1012F0AD02E2D08D1D4
:104850002046E16888477F1C0546022F46F0200667
:10486000C4DBA069002803DA404246F00106A061DB
:10487000F00701D026F010066C2D0BD0682D09D062
:104880004C2D39D06A2D35D0742D35D07A2D33D0BA
:1048900016E038E0E1682F4620468847B8420546D2
:1048A00009D16C2F26D04FF48060E1680643204682
:1048B0008847054604E06C2F1AD04FF480700643F9
:1048C0000DB3A5F14100192802D8203546F4006641
:1048D0004A462946204626604E46FBF783FC80B1B7
:1048E00001280BD0F61D26F0070000F1080956E755
:1048F0004020E4E78020D8E70020D6E706F104094D
:104900004DE7284652E7206ABDE8F09F301A0000C4
:1049100070B5064600F008F90468054630460A22DC
:10492000002100F0DFFA2C6070BD30B505460B4663
:104930002A4613F8014B12F8010B08B1A042F8D037
:104940001CB1002802D06D1CF1E7284630BD40EABA
:104950000103024630B59B0710D14FF0013400E04F
:1049600008C208C91D1B9D4315EAC41FF8D013F0E7
:10497000FF0102F8011B0DD01B0AF8E711F8013BFB
:10498000002B02F8013B05D011F8013B002B02F887
:10499000013BF3D130BD10B5431C02E010F8011B00
:1049A00071B18107FAD14FF0013202C88C1A8C43E1
:1049B00014EAC211F9D0C01A0A0603D0C01E10BDF5
:1049C000C01A10BD0A0401D0801E10BD0902FCD01F
:1049D000401E10BD10B5203AC0F00B80B1E8185051
:1049E000203AA0E81850B1E81850A0E81850BFF4D9
:1049F000F5AF5FEA027C24BFB1E81850A0E8185078
:104A000044BF18C918C0BDE810405FEA827C24BFCB
:104A100051F8043B40F8043B08BF7047D20728BF59
:104A200031F8023B48BF11F8012B28BF20F8023BA8
:104A300048BF00F8012B70474FF000020429C0F076
:104A4000128010F0030C00F01B80CCF1040CBCF1C0
:104A5000020F18BF00F8012BA8BF20F8022BA1EB12
:104A60000C0100F00DB85FEAC17C24BF00F8012BF7
:104A700000F8012B48BF00F8012B70474FF00002EF
:104A800000B5134694469646203922BFA0E80C5044
:104A9000A0E80C50B1F12001BFF4F7AF090728BF1F
:104AA000A0E80C5048BF0CC05DF804EB890028BF9B
:104AB00040F8042B08BF704748BF20F8022B11F0C4
:104AC000804F18BF00F8012B704710B5044610F056
:104AD000030F08BF11F0030F40F015804FF0013EA7
:104AE000121FC0F20E8051F8043BA3EB0E0C2CEA0F
:104AF000030C1CEACE1C08BF40F8043BF0D0A1F127
:104B0000040102F10402521E08DB11F8013B002BE4
:104B100000F8013BF7D11146FFF78EFF204610BD8C
:104B20007047704770470000004870474C190020DC
:104B300009684A0501D540B27047C905FCD500B2E5
:104B4000704709684A0501D5C0B27047C905FCD550
:104B500080B270472DE9F0470D46994692460446CB
:104B600000F124080168880604D5E06921F01001ED
:104B7000216000E00120A84201DD471B00E0002782
:104B8000A1697A1902EB0900081AA0612078C00611
:104B900002D42046FFF76CFD002608E0D4E901218D
:104BA0001AF806009047206A401C761C20624E4589
:104BB000F4DB2078C0060AD52046FFF759FD06E051
:104BC000D4E9012130209047206A401C2062381E21
:104BD000A7F10107F4DC07E0D4E9012118F805008A
:104BE0009047206A401C2062281EA5F10105F3DCD5
:104BF0002046FFF753FD2078000602D50220BDE8CD
:104C0000F0870120FBE711680268006A530501D5AF
:104C100008700AE0D30501D5088006E0130603D525
:104C2000C217C1E9000200E00860012070470000DF
:104C300001694A1C02610878704700B58FB0CDE960
:104C400001310021059105497944CDE90310114650
:104C50006846FFF799FD0FB000BD0000E5FFFFFFBC
:104C60000A6802F8010B0A607047D1E900239A42F2
:104C700002D2531C0B601070704710B5436913B11A
:104C8000AFF3008001E0FFF71AFD012010BD12789C
:104C900000F124010A7000224A700122EDE7116838
:104CA0004FF0FF32E9E700002DE9FF5F15468A4625
:104CB0000446DFF8AC80F8440027D8E900103E46EF
:104CC000CDE9001010E03AF816106A4602A800F08C
:104CD00006FC411C07D02178890603D5E269391802
:104CE00091420DD80744761C2078800602D5E069F1
:104CF000B84205DDAE42E6DB3AF816000028E2D104
:104D0000A069C01BA0612046FFF7B2FCD8E90010E3
:104D1000CDE90010002017E03AF818106A4602A802
:104D200000F0DDFBB0F1FF3F81460BD000250DF117
:104D3000080B05E0D4E901211BF8050090476D1C24
:104D40004D45F7D308F10100B0428046E4DB206A0C
:104D5000384420622046FFF7A1FCBDE8FF9F000019
:104D6000261500002DE9F0418046D21D22F00702F1
:104D70000025D2E90002F52915A614D0011E72F112
:104D8000000106DA0023D0EB030063EB020211A658
:104D900008E0D8F800108B0701D50FA602E04907FC
:104DA00001D50EA601251146002408F1240704E0D0
:104DB00000F0DCF830323A55641C50EA0102F7D1B9
:104DC0002B46324621464046BDE8F041FFF7C2BEC1
:104DD000000000002D0000002B000000200000005B
:104DE00030B4002100F1240408E002F00705D208E5
:104DF000303542EA4372DB086554491C52EA030528
:104E0000F3D10468002310A2250707D5A40600D417
:104E100021B1C46901230DA2641EC46130BCFFF737
:104E200099BE10B5044621461068FFF78AFE024677
:104E30002046BDE810400023D2E7D21D22F0070132
:104E4000D1E90023CCE700000000000030000000A2
:104E5000F0B40D460188090502D5214C7C4402E0DE
:104E60001F4C7C440E34002100F1240608E002F0BF
:104E70000F071209E75D42EA03721B097754491CC8
:104E800052EA0307F3D102780023120704D5702DEC
:104E900006D009B1022311342246F0BCFFF75ABEF6
:104EA00001231034F8E770B504460D46214610681A
:104EB000FFF747FE024629462046BDE87040002322
:104EC000C6E7D21D22F00703D3E90023C0E7036839
:104ED000126843F0200303600823C3610023B7E78F
:104EE000881300002DE9F04791460F46804604469E
:104EF000002614F8015B2DB100F030F80068405D29
:104F0000C007F6D12B2D02D02D2D18D0641E4A4695
:104F10003946204600F094FA27B13968A14201D100
:104F2000C7F800804FF0020471050BD540420028FD
:104F300003DDFFF7F9FD0460A007BDE8F08746F444
:104F40008066E4E70028F8DAFFF7EEFD04606FF012
:104F50000040F2E7004870474C19002010B500F0FF
:104F600003FB001D10BD00BFF10F000030B5B0F114
:104F70000A024FEA900E71F100034EEA817EB0EB17
:104F80000E0061EB91014FEA101E4EEA017E10EB1C
:104F90000E0041EB11114FEA102E4EEA016E10EB9C
:104FA0000E0041EB11214FEA104E4EEA014E10EB7C
:104FB0000E0041EB1141401841F100014FEAD000D1
:104FC00040EA41704FEAD10110EB80054FEA8104BD
:104FD00044EA907444EB01046D1944EB0404521B41
:104FE000A3414FF0000348BF0A3200D530BD401C3A
:104FF00041F1000130BD70472DE9FF4F0C461E46C0
:105000004FF0FF378BB0D2E90001DDF860800A90E5
:105010008A46C1F30A5505B93D46002108464FF0BE
:105020000000BAF1000F00F4400005DA00EB800048
:105030004FF4400101EA50004FEA9059B9F1010FD5
:1050400000DDB9460A9850EA4A000ED044F61050E6
:10505000A5F2FF3545432F14B8F1000F1ED075425D
:10506000291E1EDDC9F100021CE0B8F1010F4FF04E
:10507000000001D0302103E0F24305E02154401C40
:10508000B042FBDB30460022002121540B99C1F8CD
:105090000880C1E900200FB0BDE8F08FBD1B6D1C7A
:1050A000DEE74A4600DA694206A800F0AFFA06AB2E
:1050B00093E8070003AB83E8070050460A9900F025
:1050C00068FB8DE80700A0F500501F38009003989A
:1050D000002D0ADD42F21F014A460844002303A9BD
:1050E0000390684600F0D1FD09E0A0F500504A4663
:1050F0001F38002303A90390684600F0DBFD8DE80C
:1051000007000004000C03D04FF0FF30410800E01E
:105110001046B8F1000F03D00022009215461EE0A1
:10512000751E05D4FFF722FF303262556D1EF9D58A
:10513000B3460122084302D000227F1C04E02078FD
:10514000302801D100227F1E002A099784D01DE05B
:10515000112D07DAFFF70AFF303262556D1C50EA55
:105160000102F5D1084302D00098C8B10EE0002139
:10517000681E05E0235C625C63542254401E491C97
:105180008142F7DBAB46A81B401E0990002004F8C3
:105190000B000B98099AC0F80880C0E9002B7AE749
:1051A00011264FF0000857E72DE9F04F88460446D6
:1051B000D21D22F0070191B0D1E90001CDE90A0129
:1051C00000F0AFFE02460B98C00F01D02D2007E083
:1051D0002068810701D52B2002E0202101EAC000D0
:1051E000032A099001D0072A05DB034641462046E1
:1051F00000F0BEF90BE12078800601D5E06900E0FF
:105200000620B8F1650F814606D0B8F1660F18D0B8
:10521000B8F1670F70D131E00020B9F1110F0090A3
:1052200001DB112301E009F101030AAA01A90CA87D
:10523000FFF7E2FEDDE90C70002609F10105834667
:1052400047E001204B4600904FF000470AAA01A911
:105250000CA8FFF7D1FEDDE90DB00C995D460026E4
:1052600010B909F101000D18B9EB050003D4C0F124
:10527000FF3609F10105A5EB09002BE0B9F1010F9B
:1052800001DA4FF001090020B9F1110F00904846F2
:1052900001DD112300E003460AAA01A90CA8FFF7CB
:1052A000ABFEDDE90C704D460026834620780007F2
:1052B0000AD4AB4500DA5D4601A8012D04DD411991
:1052C00011F8011C302907D04F4502DA17F1040FFD
:1052D00004DA012082460FE06D1EEEE7002F02DCAB
:1052E000ED1B3E4403E0781CA84200DD7D1CB81B8A
:1052F00000F1010A4FF000472078000703D4AA45C7
:1053000001DB4FF0FF3A0021B7F1004F0DF14308E8
:105310008DF8431024D002202B23002F01DA7F4286
:105320002D230A21021EA0F1010000DC5FB197FBD2
:10533000F1FC97FBF1F201FB1C7C17460CF1300CE1
:1053400008F801CDEEE7A8F10100037021880905F6
:1053500001D5452100E06521A0F1010800F8011CFC
:1053600009980FA9A1EB0807FF1D00B10120411901
:1053700001EBEA70A1693844081A401EA061207848
:10538000C00602D42046FFF773F9099828B1D4E982
:1053900001219047206A401C20622078C00622D557
:1053A0002046FFF765F91EE0002E04DBB34502DD61
:1053B00001A8805D00E03020D4E901219047206AF7
:1053C000401C2062761CAAF101005FEA000A0AD1A3
:1053D00000F0CAF8C0680168405CD4E90121904738
:1053E000206A401C2062281EA5F10105DCDC07E0D4
:1053F000D4E9012118F8010B9047206A401C206273
:10540000381EA7F10107F3DC2046FFF747F9032018
:1054100011B041E610B5436913B1AFF3008001E06C
:10542000FFF742FC012010BD128800F124018284A4
:105430000022C2840122EDE711684FF0FF32E9E754
:105440002DE9F05F824615468B4600270AF10104DC
:10545000B9460078302801D09DB113E014F8010B53
:105460000127782803D0582801D045B10AE00DB1B2
:10547000102D07D1002714F8010B102502E0082594
:1054800000E00A250026B0460EE005FB080005FBFB
:1054900006F101271FFA80F801EB1046B6F5803FB0
:1054A00000D3B94614F8010B294600F0A1F80028F2
:1054B000EBDABBF1000F05D00FB1641E00E05446DB
:1054C000CBF80040B9F1000F06D0FFF72DFB022109
:1054D0000160C81EBDE8F09F48EA0640FAE770B5D3
:1054E00016460C460546FFF739FD036893F801019F
:1054F000012806D0FF2C0FD8185D68B101202C7050
:1055000070BDD3F807013246214603F20713034466
:105510002846BDE8704018474FF0FF3070BD754613
:10552000FFF718FDAE4605006946534620F0070018
:10553000854618B020B5FBF771F8BDE820404FF064
:1055400000064FF000074FF000084FF0000B21F06D
:105550000701AC46ACE8C009ACE8C009ACE8C0093A
:10556000ACE8C0098D467047004870476C190020B0
:105570002DE9F0411F46044603260168072A01F47D
:10558000006004DB08B116A505E016A503E008B12C
:1055900015A500E015A521F010002060A069C01E2F
:1055A000A0610FB1401EA0612046FFF761F84FB126
:1055B000D4E9012138469047206A401C2062C01C73
:1055C000206206E0206AFAE7D4E9012115F8010B10
:1055D0009047761EF8D22046FFF760F8BDE8F081CC
:1055E0004E414E006E616E00494E4600696E660087
:1055F0003A2800D2303820F02002412A01D3A2F10B
:105600003700884201D34FF0FF3070472DE9F04753
:10561000814616468AB0354878440DC88DE80D009D
:1056200032487844801C03AC0DC884E80D0041F674
:105630009B300844372190FBF1F290FBF1F5A5F186
:10564000800501FB12041B3C02D56442012000E0EE
:105650000020DFF898A080460027FA44AAF1BE0A8D
:105660000EE0E0070AD03246684607EB4701012307
:105670000AEB810100F01EFB8DE8070064107F1C1F
:10568000002CEED1194F7F44AE3F19E0E80715D04A
:1056900007EB04100DF1180A90E80E008AE80E00DE
:1056A000C068F04201D1981908903246012306A93A
:1056B00003A800F0FFFA03AB83E807006D10641C39
:1056C000002DE3D14FF0010332466946B8F1000FD7
:1056D00003A802D000F0D9FA01E000F0EBFAC9E922
:1056E0000001C9F808200AB0BDE8F087700C00007E
:1056F00010B50446AFF300802046BDE81040FAF72D
:10570000D4BD00004FF0013C50F8042B51F8043B8D
:105710009A4221D1A2EB0C03934313EACC1317D185
:1057200050F8042B51F8043B9A4215D1A2EB0C031C
:10573000934313EACC130BD150F8042B51F8043BDC
:105740009A4209D1A2EB0C03934313EACC13DBD0AA
:105750004FF00000704700BFD01A01BAB1FA81F1D2
:1057600001F0180122FA01F0CB40C1F12001DBB2B7
:10577000C0B2C01A2CFA01F3D11A914311EAC31135
:10578000E6D1704701491820ABBEFEE726000200B3
:1057900070475FEA400C08BF91F0000F4FEA8C237E
:1057A0004FEAC12243EA51514FEA1C5018BF00F59D
:1057B000F0404FEA300018BF41F000415FEA6C5CF6
:1057C00000F02980BCF1FF3F08BF40F080407047E7
:1057D000130C06BF12044FF0100C4FF0000C130E08
:1057E00004BF12020CF1080C130F04BF12010CF1DC
:1057F000040C930F04BF92000CF1020CD30F04BFF2
:1058000052000CF1010C11464FF00002A0F11F00F4
:10581000A0EB0C00704711F0004F08BF704731F04B
:1058200000413FF4D5AF0B0C06BF09044FF0100C3C
:105830004FF0000C0B0E04BF09020CF1080C0B0F0B
:1058400004BF09010CF1040C8B0F04BF89000CF19B
:10585000020CCB0F04BF49000CF1010CCCF120036A
:10586000A0EB0C0022FA03F302FA0CF241EA030166
:1058700000F10100704720F07F4C80EA030023F024
:105880007F47ACEB070303F57C5300F0004003F1C6
:10589000FF032DE980494FEA154B09B44FEA144341
:1058A00025EA0B4E24EA03480FF2042606EB1327E1
:1058B00049083E785FEA320203FB0667C7F5000736
:1058C00007FB06F64FEA54374FEAD64606F10206C2
:1058D00007FB066CCCF1005C4FEA1C472CEA074C36
:1058E00007FB06F40CFB06F504EB15464FEA96168B
:1058F00034BF00204FF000404FEAD13706FB07FCD1
:105900004FEA1C4C0CFB0BF7D21B03FB0CF761EBB3
:1059100007010CFB0EF7B0EB074072EB17420CFBD4
:1059200008F734BFA2EB0742B2EB074261EB174125
:105930004FEA0C444FEA910706FB07FC4FEA1C4C68
:105940000CFB0BF7B0EBC74072EB573203FB0CF7C5
:1059500034BFA2EBC742B2EBC74261EB57310CFB3D
:105960000EF7B0EBC70072EB57720CFB08F734BFB1
:10597000A2EBC702B2EBC70261EB5771039F4FEA7C
:10598000816141EA921104EBCC044FEAD1374FEA2E
:10599000826206FB07FC42EA90124FEA80604FEAFF
:1059A0001C4C0CFB0BF7D21B03FB0CF761EB070144
:1059B0000CFB0EF7B0EB074072EB17420CFB08F73D
:1059C00034BFA2EB0742B2EB074261EB17414FEA4B
:1059D0008C554FEA910704EB9C2406FB07FC4FEA29
:1059E0001C4C0CFB0BF7B0EBC74072EB573203FBC0
:1059F0000CF734BFA2EBC742B2EBC74261EB5731A1
:105A00000CFB0EF7B0EBC70072EB57720CFB08F7FC
:105A100034BFA2EBC702B2EBC70261EB577115EBC3
:105A20004C254FEA816141EA92114FEA82624FEAC6
:105A3000D13742EA901206FB07FC44F100044FEA1A
:105A400080604FEA1C4C0CFB0BF7D21B03FB0CF7DE
:105A500061EB07010CFB0EF7B0EB074072EB17424E
:105A60000CFB08F734BFA2EB0742B2EB074261EB35
:105A7000174115EB1C154FEA813141EA92414FEA7B
:105A8000823242EA90424FEA80304FEA0C7644F18B
:105A9000000448EA03434EEA0B484FF0000EB2EB15
:105AA000080C71EB030724BF624639464EEB0E0E1D
:105AB0004FF0000B0018524149414BEB0B0BB2EB7E
:105AC000080C71EB03077BF1000B24BF62463946DB
:105AD0004EEB0E0E4FF0000B0018524149414BEBBC
